:100000000C9434000C9451000C9451000C94510049
:100010000C9451000C9451000C9451000C9451001C
:100020000C9451000C9451000C9451000C9451000C
:100030000C9451000C9451000C9451000C945100FC
:100040000C9451000C9451000C9453000C945100EA
:100050000C9451000C9451000C9451000C945100DC
:100060000C9451000C94510011241FBECFEFD8E026
:10007000DEBFCDBF11E0A0E0B1E0E2E0FEE002C0F3
:1000800005900D92A437B107D9F721E0A4E7B1E0BC
:1000900001C01D92AE3BB207E1F70E94D2030C945F
:1000A000F5060C9400001F920F920FB60F921124C8
:1000B0002F933F934F935F936F937F938F939F9370
:1000C000AF93BF93EF93FF930E949800E091760166
:1000D000AE2FB0E0A956BE4F8C93EF5FE093760150
:1000E000EF3111F08D3091F4F0E0E956FE4F1082BF
:1000F0001092760124E731E040E051E065E071E0E4
:1001000087E991E00E948401109275017894FF9133
:10011000EF91BF91AF919F918F917F916F915F917F
:100120004F913F912F910F900FBE0F901F901895F8
:100130008091C00087FFFCCF8091C6000895909108
:10014000C00095FFFCCF8093C6000895E8EBF1E076
:1001500088E191E0938382838AE091E091838083B8
:100160001092C50087E68093C400E0ECF0E0808147
:100170008D7F808386E08093C200E1ECF0E088E12F
:10018000808380818068808308958AE00C949F003A
:100190000F931F93CF938C01C0E0F801EC0FF11D7A
:1001A0008081811105C0CF911F910F910C94C500E2
:1001B0000E949F00CF5FF1CFDB01FC01835F2191A3
:1001C0009D91291304C08E13FACF81E0089580E039
:1001D0000895EF92FF920F931F93CF93DF93EC015B
:1001E0007A01F90188818033E1F08133F9F080816F
:1001F000882309F44EC066E271E0CE010E94DC0063
:100200008823D1F086E291E09F938F9386E491E07A
:100210009F938F930E940D040F900F900F900F905B
:1002200031C08BB190E289278BB9E1CF81E0908119
:10023000911180E08083DBCFDF93CF9382E591E063
:100240009F938F930E940D04F701A3E3B1E0C701D0
:1002500005960F900F900F900F9021912D93E81716
:10026000F907D9F799B181E0911101C080E0805D73
:10027000809338011092390186E291E00E940303D5
:10028000F8011082DF91CF911F910F91FF90EF90B5
:100290000895DF93CF9382E591E0BACF0F931F9338
:1002A000CF93DF938C018FE591E09F938F930E9412
:1002B0000D04E8010B5F1F4F0F900F9089910E9472
:1002C0009F00C017D107D1F78AE00E949F00DF91FD
:1002D000CF911F910F910895FB013196DC019C0194
:1002E0002B5F3F4F51915D93A217B307D9F741118F
:1002F0000C94A2030C949203FC014F96218121934C
:10030000E817F907D9F708950F931F93CF93DF9359
:10031000EC01DB01CA018901E881E053EA3008F011
:1003200048C0F0E0E950F94F0C940704CE010E9458
:100330007C01CE010E9403030E943B028111FCCF8D
:10034000DF91CF911F910F91089541E0BE01CD0142
:10035000DF91CF911F910F910C946C0140E0BE0191
:10036000F7CFCB01DF91CF911F910F910C944E01EC
:1003700081E0F9019081911180E0F8018083E0CF64
:100380008FE591E09F938F930E940D04F801808187
:10039000805D0E949F000F900F908AE0DF91CF91C7
:1003A0001F910F910C949F008BB190E289278BB91C
:1003B000C7CF86E691E0DF91CF911F910F910C940A
:1003C00023040E94B10380E00E94B70381E00C94F3
:1003D000BD038091B7010895EF92FF920F931F9391
:1003E000CF93E82E80E00E94C30307E010E0C0E056
:1003F000F12CC701002E02C0959587950A94E2F76B
:1004000080FF18C081E00E94C90381E00E94C303FD
:10041000CC0F0E94CF038111C16080E00E94C30312
:100420000150110930F78C2FCF911F910F91FF9040
:10043000EF90089580E0E7CFCF9380E00E94BD0366
:1004400080E60E94EC0180E00E94EC01C82F81E070
:100450000E94BD038C2FCF910895CF9380E00E941E
:10046000BD038FEF0E94EC01C82F81E00E94BD0305
:100470008C2FCF9108950E942D02982F907381E0C8
:1004800009F080E008950E942D0285FD04C084FDDE
:1004900004C08FEF089580E0089581E00895EF9201
:1004A000FF920F931F93CF93DF93EC018B017C019D
:1004B000E40EF11CCE15DF0539F4DF91CF911F91C9
:1004C0000F91FF90EF90089589910E94EC01F8013F
:1004D00081938F01EFCF0F931F93CF93DF93EC01A5
:1004E0008C01060F111DC017D10729F4DF91CF91A0
:1004F0001F910F91089589910E94EC01F4CFCF9341
:10050000DF93C82FD62F80E00E94BD038C2F8F7100
:1005100080620E94EC018D2F0E94EC0181E0DF914E
:10052000CF910C94BD03CF93DF93EC0180E00E9448
:10053000BD0381E60E94EC014091B701BE01CE01EE
:100540000E944F0281E00E94BD0360E487E0DF91DA
:10055000CF910C947F0280E00E94BD0382EE0E9446
:10056000EC0181E00E94BD0360E787E00E947F020A
:1005700080E00E94B7036BE080E00E947F0281E090
:100580000C94B7036093B701682F85E00E947F0247
:1005900060E081E10E947F026091B70182E10E94E8
:1005A0007F0260E083E10E947F0260E084E10E94BC
:1005B0007F0260E085E10E947F0260E086E10E94A8
:1005C0007F0266E086E00E947F0268E080E00E9491
:1005D0007F0263E081E00E947F0263E082E00E948C
:1005E0007F026FE484E00E947F0260E08CE10E9461
:1005F0007F020C94AB0260E787E00E947F026AE012
:1006000080E00C947F02CF93DF93EC0180E00E94A6
:10061000B7030E94FB0280E00E94BD0381EE0E94AE
:10062000EC0181E00E94BD0380E00E94BD0380EAEE
:100630000E94EC016091B701CE010E946B0281E043
:100640000E94BD0381E0DF91CF910C94B70380E05D
:100650000E94B70368E080E00C947F020F931F9321
:10066000CF93DF93082FEB01142F80E00E94BD038E
:10067000802F8F710E94EC01412FBE01CE010E949C
:100680004F0281E0DF91CF911F910F910C94BD0338
:10069000CF93DF930F92CDB7DEB741E0BE016F5F1E
:1006A0007F4F87E10E942E03898181700F90DF9137
:1006B000CF9108950E942D0291E086FD05C00E9411
:1006C000480391E0811190E0892F0895CF93DF9343
:1006D0000F92CDB7DEB741E0BE016F5F7F4F88E07C
:1006E0000E942E0389818F700F90DF91CF91089522
:1006F0000F931F93CF93DF93C82F8B01D42F80E0EC
:100700000E94BD038C2F8F7180620E94EC016D2FBF
:10071000C8010E946B0281E0DF91CF911F910F9180
:100720000C94BD03CF93DF93EC0180E00E94B703EC
:1007300045E0BE018BE00E94780381E0DF91CF911C
:100740000C94B703CF93DF93EC0145E0BC018AE042
:100750000E94780345E0BE0180E1DF91CF910C94C7
:100760007803229A219A259A239A24980895882317
:1007700011F02A9A08952A980895882311F0299A49
:10078000089529980895882311F02D9A08952D9899
:100790000895882311F02B9A08952B98089583B11A
:1007A000807108950E94A6000E94E10160E282E04B
:1007B0000E94C20285E091E00E94A20380E091E0E5
:1007C0000E9492037894559AC1E08091750181113D
:1007D00004C00E94AB02C09375010E945A03882393
:1007E00079F087E791E00E94930205E711E024E7A2
:1007F00031E045E051E0BA0187E791E00E94E9006D
:100800008FE39CE90197F1F700C00000DECFEE0F07
:10081000FF1F0590F491E02D0994B0E0A0E0E3E122
:10082000F4E00C94CE06AE014B5F5F4FFA0161918C
:100830007191AF018091BA019091BB010E944F0468
:10084000E2E00C94EA060F931F93CF93DF93E091BD
:10085000BA01F091BB01238110E000E021FD0EC040
:100860000FEF1FEFC801DF91CF911F910F910895F6
:100870000995892B11F00FEF1FEFCE01EC01899143
:100880006091BA017091BB01DB011896ED91FC916A
:100890008111EECF8AE00995892B21F3E1CFABE0FE
:1008A000B0E0E5E5F4E00C94BE067C013B018A0172
:1008B000FC0117821682838181FFB9C19AE0292E3B
:1008C000CE0101965C01F7019381F30193FD8591BF
:1008D00093FF81913F01882309F446C1853239F4A1
:1008E00093FD859193FF81913F01853229F4B701F2
:1008F00090E00E943006E7CF912C412C512CFFE173
:10090000F51538F08B3209F188F4803201F1833229
:1009100021F157FC3AC020ED280F2A3040F556FE51
:100920001FC0929C200D1124922E06C08D3291F092
:10093000803379F7689450F8F30193FD859193FF24
:1009400081913F018111DBCF20C0689451F86894F8
:1009500052F8F2CF689453F8EFCF689454F8ECCF84
:10096000429C200D1124422E689455F8E5CF8E321A
:1009700029F456FCF9C0689456F8DECF8C3619F489
:10098000689457F8D9CF8836B9F2982F9F7D95543F
:100990009330C0F08336A1F18337C1F1833509F07C
:1009A0005BC0F801C190D1908F01692D70E056FCB9
:1009B00002C06FEF7FEFC6010E941A064C016894D7
:1009C00057F80AC00C5F1F4F2FE3298388248394B4
:1009D000912C6501E89457F853FC04C0481419049D
:1009E00009F018F5342C8114910431F5332009F401
:1009F0006ACFB70180E290E00E9430063A94F6CFC9
:100A0000F801808189830E5F1F4FE0CFF801C1900C
:100A1000D1908F01692D70E056FC02C06FEF7FEF1F
:100A2000C6010E9425064C01D5CFB70180E290E0B7
:100A30000E9430064A94D2CFF60157FC859157FEAA
:100A400081916F01B70190E00E94300631103A9415
:100A5000F1E08F1A9108C7CF843619F0893609F072
:100A600074C0F80157FE6AC06191719181919191B2
:100A70008F01252D2F76D22E97FF09C09095809556
:100A8000709561957F4F8F4F9F4F6894D7F82AE0FC
:100A900030E0A5010E946006C82ECA188C2C5D2C7F
:100AA000D6FE0CC0E89450F8C91440F4D4FE05C03A
:100AB000D2FC03C0FD2DFE7E5F2E892C54FE8FC01C
:100AC000FE01EC0DF11D8081803309F081C0252DE0
:100AD000297E522E852D8870382E53FC8FC050FEF3
:100AE00089C09C2C841418F44C0C942C981854FE37
:100AF0008BC0B70180E390E00E94300652FE09C02F
:100B000088E790E051FE02C088E590E0B7010E94BE
:100B10003006C91408F484C0CA94D12C9FEFC91AB6
:100B2000D90ACA0CDB1CF60182916F01B70190E073
:100B30000E943006AC14BD04B1F758CF6191719199
:100B4000072E000C880B990B93CFD52CE894D4F882
:100B50002AE030E0853739F1952D997FD92E8F36EF
:100B600001F148F48835A9F0F701868197812B9629
:100B7000E2E10C94DA06803749F08837A9F7D4FE11
:100B800002C06894D2F820E130E00DC06894D4F837
:100B9000F6CF54FE03C0E92FE660DE2E20E132E0FE
:100BA00002C028E030E0F801D7FE0DC061917191DC
:100BB000819191918F01A5010E946006C82ECA18EB
:100BC000E894D7F86BCF6191719190E080E0F2CF1B
:100BD00052FC02C083947ECF839483947BCF852D77
:100BE000867809F477CFF6CFB70180E290E00E94D3
:100BF000300683948414C0F3312C79CF342C381808
:100C0000841408F474CFF8CF852D867809F481CF49
:100C10008BE251FE80E257FC8DE2B70190E077CF86
:100C2000B70180E390E00E9430069A9472CF8FEF74
:100C30009FEF9DCFFC010590615070400110D8F7E7
:100C4000809590958E0F9F1F0895FC016150704014
:100C500001900110D8F7809590958E0F9F1F0895F1
:100C60000F931F93CF93DF93182F092FEB018B81E5
:100C700081FD09C01FEF0FEF812F902FDF91CF91E2
:100C80001F910F91089582FF14C02E813F818C81A6
:100C90009D81281739073CF4E881F981CF0101963D
:100CA0009983888310838E819F8101969F838E8391
:100CB000E3CFE885F985812F0995892BA1F3DACF58
:100CC000FA01AA27283051F1203181F1E8946F937D
:100CD0006E7F6E5F7F4F8F4F9F4FAF4FB1E03ED023
:100CE000B4E03CD0670F781F891F9A1FA11D680FC1
:100CF000791F8A1F911DA11D6A0F711D811D911DF4
:100D0000A11D20D009F468943F912AE0269F112468
:100D10003019305D3193DEF6CF010895462F4770CC
:100D2000405D4193B3E00FD0C9F7F6CF462F4F7027
:100D3000405D4A3318F0495D31FD4052419302D085
:100D4000A9F7EACFB4E0A69597958795779567952B
:100D5000BA95C9F700976105710508959B01AC012B
:100D60000A2E06945795479537952795BA95C9F752
:100D7000620F731F841F951FA01D08952F923F922D
:100D80004F925F926F927F928F929F92AF92BF929B
:100D9000CF92DF92EF92FF920F931F93CF93DF9347
:100DA000CDB7DEB7CA1BDB0B0FB6F894DEBF0FBEA4
:100DB000CDBF09942A88398848885F846E847D84F1
:100DC0008C849B84AA84B984C884DF80EE80FD80F3
:100DD0000C811B81AA81B981CE0FD11D0FB6F89469
:100DE000DEBF0FBECDBFED010895F894FFCF960191
:100DF000A501AE01B101B201B801C001D401A00149
:020E0000A0014F
:100E020021212121213F3F3F3F3F000000010000FF
:100E12000000000098000000000000020000000036
:100E22009F00000000003C3C3C7375636365737374
:100E32003E3E3E00000000000000000000000000F6
:100E4200000000000000535543434553533A2573B5
:100E52000A0052454345495645443A25730A005310
:100E6200544154453A00494E56414C49442053544A
:040E720041544500A2
:00000001FF
