:100000000EC028C027C026C025C024C023C022C0DF
:1000100021C020C01FC01EC01DC01CC01BC0112499
:100020001FBECFE5D2E0DEBFCDBF10E0A0E6B0E05E
:10003000E8E2F4E002C005900D92AA36B107D9F7C4
:1000400020E0AAE6B0E001C01D92AB36B207E1F7AE
:10005000A3D1E8C1D5CF7FD180E083D181E087C132
:1000600080916A000895EF92FF920F931F93CF93B0
:10007000E82E80E082D107E010E0C0E0F12CC7015B
:10008000002E02C0959587950A94E2F780FF14C070
:1000900081E079D181E071D1CC0F7BD18111C16038
:1000A00080E06BD10150110950F78C2FCF911F9137
:1000B0000F91FF90EF90089580E0EBCFCF9380E019
:1000C00056D180E6D0DF80E0CEDFC82F81E04FD16F
:1000D0008C2FCF910895CF9380E049D18FEFC3DF6C
:1000E000C82F81E044D18C2FCF910895F4DF982F51
:1000F000907381E009F080E00895EDDF85FD04C094
:1001000084FD04C08FEF089580E0089581E0089594
:10011000EF92FF920F931F93CF93DF93EC018B012C
:100120007C01E40EF11CCE15DF0539F4DF91CF918F
:100130001F910F91FF90EF900895899194DFF8013E
:1001400081938F01F0CF0F931F93CF93DF93EC0137
:100150008C01060F111DC017D10729F4DF91CF9133
:100160001F910F91089589917EDFF5CFCF93DF9393
:10017000C82FD62F80E0FBD08C2F8F71806273DF69
:100180008D2F71DF81E0DF91CF91F1C0CF93DF93AD
:10019000EC0180E0ECD081E666DF40916A00BE01B0
:1001A000CE01B6DF81E0E3D060E487E0DF91CF915C
:1001B000DDCF80E0DCD082EE56DF81E0D8D060E792
:1001C00087E0D4DF80E0CDD06BE080E0CFDF81E05E
:1001D000C8C060936A00682F85E0C8DF60E081E1F5
:1001E000C5DF60916A0082E1C1DF60E083E1BEDFCC
:1001F00060E084E1BBDF60E085E1B8DF60E086E1DC
:10020000B5DF66E086E0B2DF68E080E0AFDF63E0A4
:1002100081E0ACDF63E082E0A9DF6FE484E0A6DF89
:1002200060E08CE1A3DFC5CF60E787E09FDF6AE095
:1002300080E09CCFCF93DF93EC0180E092D0F4DF9D
:1002400080E095D081EE0FDF81E091D080E08FD00B
:1002500080EA09DF60916A00CE0175DF81E087D016
:1002600081E0DF91CF917DC080E07BD068E080E0CD
:100270007DCF0F931F93CF93DF93082FEB01142FA4
:1002800080E075D0802F8F71EEDE412FBE01CE0150
:100290003FDF81E0DF91CF911F910F9168C0CF9335
:1002A000DF930F92CDB7DEB741E0BE016F5F7F4FA6
:1002B00087E1DFDF898181700F90DF91CF91089511
:1002C0000ADF91E086FD04C0EADF91E0811190E051
:1002D000892F0895CF93DF930F92CDB7DEB741E01A
:1002E000BE016F5F7F4F88E0C4DF89818F700F9000
:1002F000DF91CF9108950F931F93CF93DF93C82F72
:100300008B01D42F80E033D08C2F8F718062ABDED5
:100310006D2FC80118DF81E0DF91CF911F910F9100
:1003200026C0CF93DF93EC0180E01BD045E0BE01F7
:100330008BE0E1DF81E0DF91CF9113C0CF93DF93BA
:10034000EC0145E0BC018AE0D6DF45E0BE0180E17A
:10035000DF91CF91D0CFBB9ABC9ABA9AB99AB8988C
:100360000895882311F0C39A0895C39808958823A7
:1003700011F0C49A0895C4980895882311F0C29A80
:100380000895C2980895882311F0C19A0895C198DC
:10039000089586B381700895CDB7DEB7AA970FB6DA
:1003A000F894DEBF0FBECDBF85E0E0E6F0E0DE01F1
:1003B000969601900D928A95E1F785E0E5E6F0E0EA
:1003C000DE01919601900D928A95E1F744DE60E29C
:1003D00082E0FFDECE018696B1DFCE018196A1DFFD
:1003E000FE01319681E40E2FFF2E81938F5F8B35B6
:1003F000E1F71C8E81E48B8F11E4802F9F2D1ADF93
:1004000075DE8111FDCF79DE65DFD3DE87EA91E607
:100410000197F1F700C000001F5F1B3509F411E4DC
:080420001B8FEBCFF894FFCF16
:0A042800E7E7E7E7E7D7D7D7D7D714
:00000001FF
