:100000000C9434000C9451000C9451000C94510049
:100010000C9451000C9451000C9451000C9451001C
:100020000C9451000C9451000C9451000C9451000C
:100030000C9451000C9451000C9451000C945100FC
:100040000C9451000C9451000C94A8000C94510095
:100050000C9451000C9451000C9451000C945100DC
:100060000C9451000C94510011241FBECFEFD8E026
:10007000DEBFCDBF11E0A0E0B1E0E8EFF1E002C0EB
:1000800005900D92AC31B107D9F721E0ACE1B1E0B8
:1000900001C01D92A334B207E1F70E94F7000C944F
:1000A000FA000C9400008091C00087FFFCCF809183
:1000B000C6000895CF93C82F8A3019F48DE00E94AE
:1000C0005A008091C00085FFFCCFC093C600CF913D
:1000D0000895EDE3F1E08EE091E09383828380E088
:1000E00091E0918380831092C50087E68093C400DD
:1000F000E0ECF0E080818D7F808386E08093C20019
:10010000E1ECF0E088E180838081806880837894EE
:1001100008950F931F93CF938C01C0E0F801EC0F6B
:10012000F11D8081811104C0CF911F910F9108951D
:100130000E945A00CF5FF2CF8AE00E945A008AE004
:100140000E945A008DE00E945A008DE00C945A00E3
:100150001F920F920FB60F9211242F933F934F933C
:100160005F936F937F938F939F93AF93BF93CF933F
:10017000EF93FF930E945300C82F80911C01E82F3A
:10018000F0E0E35EFE4FC083811104C0CA3011F479
:100190000E949C008C2F0E945A00E0911C01EF5F8E
:1001A000E0931C01EF3111F0CA3071F4F0E0E35E2E
:1001B000FE4F108210921C010E949C008DE191E084
:1001C0000E9489000E949C007894FF91EF91CF914A
:1001D000BF91AF919F918F917F916F915F914F915F
:1001E0003F912F910F900FBE0F901F9018950E9476
:0801F0006900FFCFF894FFCF76
:1001F80000000001000000000000530000000000A3
:0C0208000002000000005A00000000008E
:00000001FF
