:100000000C9434000C9451000C9451000C94510049
:100010000C9451000C9451000C9451000C9451001C
:100020000C9451000C9451000C9451000C9451000C
:100030000C9451000C9451000C9451000C945100FC
:100040000C9451000C9451000C94AF000C9451008E
:100050000C9451000C9451000C9451000C945100DC
:100060000C9451000C94510011241FBECFEFD8E026
:10007000DEBFCDBF11E0A0E0B1E0E0E1FDE002C0F5
:1000800005900D92A637B107D9F721E0A6E7B1E0B8
:1000900001C01D92AF3DB207E1F70E944F030C94DF
:1000A00086060C940000BC0190E0492F50E0FA0154
:1000B000E050FF4F2081211102C081E00895460FDA
:1000C000571FFA018081022E000C330B8217130692
:1000D00011F49F5FEACF80E008950F931F93CF93B1
:1000E000DF938C018FE591E09F938F930E949E0395
:1000F000E8010B5F1F4F0F900F9089910E94210123
:10010000C017D107D1F78AE00E942101DF91CF917A
:100110001F910F910895FC013196A5E2B1E006967A
:1001200021912D93E817F907D9F785E291E00C9416
:100130001F03FC013196A0E2B1E0069621912D93B8
:10014000E817F907D9F780E291E00C940F03FC015E
:100150004F9621812193E817F907D9F708951F9247
:100160000F920FB60F9211242F933F934F935F93EB
:100170006F937F938F939F93AF93BF93EF93FF936F
:100180000E941A01E0917701AE2FB0E0A854BE4F53
:100190008C93EF5FE0937701EF3111F08D3049F5EB
:1001A000F0E0E854FE4F1082109277018091B80180
:1001B0008233B1F148F4803371F0813361F188E624
:1001C00091E00E94B40313C0833379F18433B9F70B
:1001D00080E291E02CC088EB91E00E94A70088EBC0
:1001E00091E00E9480020E94B8018111FCCF109220
:1001F00076017894FF91EF91BF91AF919F918F918C
:100200007F916F915F914F913F912F910F900FBE12
:100210000F901F90189588EB91E00E948B00E7CF1C
:1002200088EB91E00E949900E2CF85E291E00E9484
:100230006D00DDCF8091C00087FFFCCF8091C600AC
:1002400008959091C00095FFFCCF8093C60008955B
:10025000E9EDF1E088E391E0938382838AE291E023
:10026000918380831092C50087E68093C400E0EC00
:10027000F0E080818D7F808386E08093C200E1EC96
:10028000F0E088E1808380818068808308958AE03F
:100290000C9421010F931F93CF938C01C0E0F801C0
:1002A000EC0FF11D8081811105C0CF911F910F913D
:1002B0000C9447010E942101CF5FF1CF0E942E03D1
:1002C00080E00E94340381E00C943A038091D801CD
:1002D0000895EF92FF920F931F93CF93E82E80E043
:1002E0000E94400307E010E0C0E0F12CC701002E9F
:1002F00002C0959587950A94E2F780FF18C081E0C7
:100300000E94460381E00E944003CC0F0E944C03F0
:100310008111C16080E00E9440030150110930F753
:100320008C2FCF911F910F91FF90EF90089580E057
:10033000E7CFCF9380E00E943A0380E60E946901F4
:1003400080E00E946901C82F81E00E943A038C2F4F
:10035000CF910895CF9380E00E943A038FEF0E94DF
:100360006901C82F81E00E943A038C2FCF91089534
:100370000E94AA01982F907381E009F080E008950F
:100380000E94AA0185FD04C084FD04C08FEF08957A
:1003900080E0089581E00895EF92FF920F931F93FC
:1003A000CF93DF93EC018B017C01E40EF11CCE15A1
:1003B000DF0539F4DF91CF911F910F91FF90EF90FE
:1003C000089589910E946901F80181938F01EFCF0F
:1003D0000F931F93CF93DF93EC018C01060F111D38
:1003E000C017D10729F4DF91CF911F910F91089584
:1003F00089910E946901F4CFCF93DF93C82FD62F44
:1004000080E00E943A038C2F8F7180620E94690104
:100410008D2F0E94690181E0DF91CF910C943A0306
:10042000CF93DF93EC0180E00E943A0381E60E94C3
:1004300069014091D801BE01CE010E94CC0181E04A
:100440000E943A0360E487E0DF91CF910C94FC01B5
:1004500080E00E943A0382EE0E94690181E00E94DE
:100460003A0360E787E00E94FC0180E00E943403C9
:100470006BE080E00E94FC0181E00C943403609307
:10048000D801682F85E00E94FC0160E081E10E94B4
:10049000FC016091D80182E10E94FC0160E083E1EF
:1004A0000E94FC0160E084E10E94FC0160E085E1C3
:1004B0000E94FC0160E086E10E94FC0166E086E0AB
:1004C0000E94FC0168E080E00E94FC0163E081E0A2
:1004D0000E94FC0163E082E00E94FC016FE484E082
:1004E0000E94FC0160E08CE10E94FC010C94280257
:1004F00060E787E00E94FC016AE080E00C94FC0168
:10050000CF93DF93EC0180E00E9434030E947802D5
:1005100080E00E943A0381EE0E94690181E00E941E
:100520003A0380E00E943A0380EA0E9469016091E8
:10053000D801CE010E94E80181E00E943A0381E0E7
:10054000DF91CF910C94340380E00E94340368E083
:1005500080E00C94FC010F931F93CF93DF93082F3F
:10056000EB01142F80E00E943A03802F8F710E94CC
:100570006901412FBE01CE010E94CC0181E0DF91D3
:10058000CF911F910F910C943A03CF93DF930F9269
:10059000CDB7DEB741E0BE016F5F7F4F87E10E94BC
:1005A000AB02898181700F90DF91CF9108950E94F5
:1005B000AA0191E086FD05C00E94C50291E081116B
:1005C00090E0892F0895CF93DF930F92CDB7DEB7D8
:1005D00041E0BE016F5F7F4F88E00E94AB028981DE
:1005E0008F700F90DF91CF9108950F931F93CF934A
:1005F000DF93C82F8B01D42F80E00E943A038C2F09
:100600008F7180620E9469016D2FC8010E94E8010C
:1006100081E0DF91CF911F910F910C943A03CF931A
:10062000DF93EC0180E00E94340345E0BE018BE0E3
:100630000E94F50281E0DF91CF910C943403CF93B7
:10064000DF93EC0145E0BC018AE00E94F50245E041
:10065000BE0180E1DF91CF910C94F502229A219A9C
:10066000259A239A24980895882311F02A9A0895A8
:100670002A980895882311F0299A089529980895B1
:10068000882311F02D9A08952D980895882311F04C
:100690002B9A08952B98089583B1807108950E9434
:1006A00028010E945E0160E282E00E943F0285E232
:1006B00091E00E941F0380E291E00E940F03789472
:1006C000FF24F394C2E5D1E006E411E080917601C5
:1006D000811104C00E942802F09276010E94D70284
:1006E0008823C1F088E791E00E94100288E791E03A
:1006F0000E9453008823A9F080E091E09F938F939C
:100700001F930F930E949E030F900F900F900F90D6
:10071000109276018FE39CE90197F1F700C0000089
:10072000D5CF88E791E09F938F93DF93CF930E947B
:100730009E0380E091E00E948002E6CFB0E0A0E05E
:10074000E4EAF3E00C945F06AE014B5F5F4FFA0101
:1007500061917191AF018091DB019091DC010E9468
:10076000E003E2E00C947B060F931F93CF93DF939B
:10077000E091DB01F091DC01238110E000E021FD3C
:100780000EC00FEF1FEFC801DF91CF911F910F91A6
:1007900008950995892B11F00FEF1FEFCE01EC01A1
:1007A00089916091DB017091DC01DB011896ED917C
:1007B000FC918111EECF8AE00995892B21F3E1CFDD
:1007C000ABE0B0E0E6EEF3E00C944F067C013B01B9
:1007D0008A01FC0117821682838181FFB9C19AE0E8
:1007E000292ECE0101965C01F7019381F30193FD5F
:1007F000859193FF81913F01882309F446C1853299
:1008000039F493FD859193FF81913F01853229F45D
:10081000B70190E00E94C105E7CF912C412C512CEB
:10082000FFE1F51538F08B3209F188F4803201F1DF
:10083000833221F157FC3AC020ED280F2A3040F5D1
:1008400056FE1FC0929C200D1124922E06C08D32A0
:1008500091F0803379F7689450F8F30193FD859116
:1008600093FF81913F018111DBCF20C0689451F843
:10087000689452F8F2CF689453F8EFCF689454F824
:10088000ECCF429C200D1124422E689455F8E5CF00
:100890008E3229F456FCF9C0689456F8DECF8C36B7
:1008A00019F4689457F8D9CF8836B9F2982F9F7DFC
:1008B00095549330C0F08336A1F18337C1F183356D
:1008C00009F05BC0F801C190D1908F01692D70E0F3
:1008D00056FC02C06FEF7FEFC6010E94AB054C01D2
:1008E000689457F80AC00C5F1F4F2FE329838824B0
:1008F0008394912C6501E89457F853FC04C0481484
:10090000190409F018F5342C8114910431F53320C1
:1009100009F46ACFB70180E290E00E94C1053A94E1
:10092000F6CFF801808189830E5F1F4FE0CFF80179
:10093000C190D1908F01692D70E056FC02C06FEF1D
:100940007FEFC6010E94B6054C01D5CFB70180E20A
:1009500090E00E94C1054A94D2CFF60157FC8591E0
:1009600057FE81916F01B70190E00E94C1053110DF
:100970003A94F1E08F1A9108C7CF843619F089367E
:1009800009F074C0F80157FE6AC0619171918191BC
:1009900091918F01252D2F76D22E97FF09C090952A
:1009A0008095709561957F4F8F4F9F4F6894D7F8D2
:1009B0002AE030E0A5010E94F105C82ECA188C2C4F
:1009C0005D2CD6FE0CC0E89450F8C91440F4D4FE57
:1009D00005C0D2FC03C0FD2DFE7E5F2E892C54FE87
:1009E0008FC0FE01EC0DF11D8081803309F081C0C4
:1009F000252D297E522E852D8870382E53FC8FC0D0
:100A000050FE89C09C2C841418F44C0C942C98181B
:100A100054FE8BC0B70180E390E00E94C10552FEF6
:100A200009C088E790E051FE02C088E590E0B70178
:100A30000E94C105C91408F484C0CA94D12C9FEF48
:100A4000C91AD90ACA0CDB1CF60182916F01B701E1
:100A500090E00E94C105AC14BD04B1F758CF61917C
:100A60007191072E000C880B990B93CFD52CE8942D
:100A7000D4F82AE030E0853739F1952D997FD92EC9
:100A80008F3601F148F48835A9F0F7018681978106
:100A90002B96E2E10C946B06803749F08837A9F772
:100AA000D4FE02C06894D2F820E130E00DC0689412
:100AB000D4F8F6CF54FE03C0E92FE660DE2E20E125
:100AC00032E002C028E030E0F801D7FE0DC06191AD
:100AD0007191819191918F01A5010E94F105C82E1C
:100AE000CA18E894D7F86BCF6191719190E080E0DB
:100AF000F2CF52FC02C083947ECF839483947BCF49
:100B0000852D867809F477CFF6CFB70180E290E0A3
:100B10000E94C10583948414C0F3312C79CF342C06
:100B20003818841408F474CFF8CF852D867809F42A
:100B300081CF8BE251FE80E257FC8DE2B70190E05D
:100B400077CFB70180E390E00E94C1059A9472CFFD
:100B50008FEF9FEF9DCFFC01059061507040011019
:100B6000D8F7809590958E0F9F1F0895FC016150D6
:100B7000704001900110D8F7809590958E0F9F1FBF
:100B800008950F931F93CF93DF93182F092FEB0135
:100B90008B8181FD09C01FEF0FEF812F902FDF9117
:100BA000CF911F910F91089582FF14C02E813F8134
:100BB0008C819D81281739073CF4E881F981CF01A8
:100BC00001969983888310838E819F8101969F83EC
:100BD0008E83E3CFE885F985812F0995892BA1F3D1
:100BE000DACFFA01AA27283051F1203181F1E894B7
:100BF0006F936E7F6E5F7F4F8F4F9F4FAF4FB1E010
:100C00003ED0B4E03CD0670F781F891F9A1FA11D0A
:100C1000680F791F8A1F911DA11D6A0F711D811D0B
:100C2000911DA11D20D009F468943F912AE0269FD0
:100C300011243019305D3193DEF6CF010895462F2F
:100C40004770405D4193B3E00FD0C9F7F6CF462F10
:100C50004F70405D4A3318F0495D31FD4052419379
:100C600002D0A9F7EACFB4E0A69597958795779536
:100C70006795BA95C9F700976105710508959B01BD
:100C8000AC010A2E06945795479537952795BA9546
:100C9000C9F7620F731F841F951FA01D08952F921F
:100CA0003F924F925F926F927F928F929F92AF92FC
:100CB000BF92CF92DF92EF92FF920F931F93CF9349
:100CC000DF93CDB7DEB7CA1BDB0B0FB6F894DEBFE0
:100CD0000FBECDBF09942A88398848885F846E8406
:100CE0007D848C849B84AA84B984C884DF80EE8050
:100CF000FD800C811B81AA81B981CE0FD11D0FB659
:100D0000F894DEBF0FBECDBFED010895F894FFCF7C
:100D10003C3C3C737563636573733E3E3E0000006C
:100D200000000000000000000000000000000000C3
:100D3000D7D7D7D7D7E7E7E7E7E7000000010000FC
:100D4000000000001A010000000000020000000086
:100D5000210100000000535543434553533A257386
:100D60000A0052454345495645443A25730A004115
:100D70004444524553533A00494E56414C4944204D
:060D8000535441544500EC
:00000001FF
