:100000000C9434000C9451000C9451000C94510049
:100010000C9451000C9451000C9451000C9451001C
:100020000C9451000C9451000C9451000C9451000C
:100030000C9451000C9451000C9451000C945100FC
:100040000C9451000C9451000C9453000C945100EA
:100050000C9451000C9451000C9451000C945100DC
:100060000C9451000C94510011241FBECFEFD8E026
:10007000DEBFCDBF11E0A0E0B1E0EEE8F1E002C0EC
:1000800005900D92AC31B107D9F721E0ACE1B1E0B8
:1000900001C01D92A232B207E1F70E94C1000C9488
:1000A000C5000C9400001F920F920FB60F921124FE
:1000B0002F933F934F935F936F937F938F939F9370
:1000C000AF93BF93EF93FF930E947D00813021F4A3
:1000D00085B190E2892785B9FF91EF91BF91AF91EA
:1000E0009F918F917F916F915F914F913F912F9150
:1000F0000F900FBE0F901F9018958091C00087FF42
:10010000FCCF8091C60008959091C00095FFFCCF70
:100110008093C6000895ECE1F1E08EE091E09383D6
:10012000828380E091E0918380831092C50087E60E
:100130008093C400E0ECF0E080818D7F808386E0D6
:100140008093C200E1ECF0E088E1808380818068E8
:10015000808308958AE00C9484000F931F93CF93BB
:100160008C01C0E0F801EC0FF11D8081811105C008
:10017000CF911F910F910C94AA000E948400CF5F31
:0E018000F1CF0E948B00259AFFCFF894FFCF9D
:10018E00000000010000000000007D0000000000E3
:0C019E00000200000000840000000000CF
:00000001FF
