:100000000C9435000C945D000C945D000C945D0024
:100010000C945D000C945D000C945D000C945D00EC
:100020000C945D000C945D000C945D000C945D00DC
:100030000C945D000C945D000C945D000C945D00CC
:100040000C945D000C945D000C945F000C945D00BA
:100050000C945D000C945D000C945D000C945D00AC
:100060000C945D000C945D00520811241FBECFEF6C
:10007000D8E0DEBFCDBF12E0A0E0B1E0E0EAF6E1FB
:1000800002C005900D92AC3FB107D9F723E0ACEF69
:10009000B2E001C01D92A338B207E1F710E0C5E35A
:1000A000D0E004C02197FE010E945608C433D10756
:1000B000C9F70E9420080C94440B0C9400001F9276
:1000C0000F920FB60F9211242F933F934F935F938C
:1000D0006F937F938F939F93AF93BF93EF93FF9310
:1000E0000E940804E091FC02AE2FB0E0A35EBC4F7A
:1000F0008C93EF5FE093FC02ED3111F08D3061F4F1
:10010000F0E0E45EFC4F10821092FC026DE173E0BF
:100110008DE393E00E9498037894FF91EF91BF9153
:10012000AF919F918F917F916F915F914F913F918F
:100130002F910F900FBE0F901F901895EF92FF9286
:100140000F931F93CF93DF9300D000D000D00F9276
:10015000CDB7DEB78C011F8221E0AE01495F5F4F52
:1001600060E00E94E1058F811F928F938CE591E002
:100170009F938F930E945C081F8221E0AE01495F2C
:100180005F4F61E0C8010E94E1058F811F928F934C
:1001900089E691E09F938F930E945C081F8221E083
:1001A000AE01495F5F4F62E0C8010E94E1058F81A7
:1001B0001F928F9385E791E09F938F930E945C0835
:1001C0001F8221E0AE01495F5F4F63E0C8010E94DA
:1001D000E1058F811F928F9385E891E09F938F9324
:1001E0000E945C081F8221E0AE01495F5F4F64E01E
:1001F000C8010E94E1058F811F928F9384E991E0ED
:100200009F938F930E945C081F8221E0AE01495F9B
:100210005F4F65E0C8010E94E1058F811F928F93B7
:1002200085EA91E09F938F930E945C081F8221E0F2
:10023000AE01495F5F4F66E0C8010E94E1058F8112
:100240001F928F9381EB91E09F938F930E945C08A4
:100250001F8221E0AE01495F5F4F67E0C8010E9445
:10026000E1058F811F928F9380EC91E09F938F9394
:100270000E945C081F820FB6F894DEBF0FBECDBF90
:1002800021E0AE01495F5F4F68E0C8010E94E105CF
:100290008F811F928F938DEC91E09F938F930E949B
:1002A0005C08FE0131967F0186E011928A95E9F79C
:1002B00025E0A7016AE0C8010E94E105FF92EF92E4
:1002C0008EED91E09F938F930E945C0825E0A7013B
:1002D0006BE0C8010E94E105FF92EF928FEE91E082
:1002E0009F938F930E945C081F8221E0AE01495FBB
:1002F0005F4F6CE0C8010E94E1058F811F928F93D0
:1003000080E092E09F938F930E945C081F8221E01F
:10031000AE01495F5F4F6DE0C8010E94E1058F812A
:100320001F928F9381E192E09F938F930E945C08CC
:100330001F8221E0AE01495F5F4F6EE0C8010E945D
:10034000E1058F811F928F9382E292E09F938F93BA
:100350000E945C081F8221E0AE01495F5F4F6FE0A1
:10036000C8010E94E1058F811F928F9383E392E081
:100370009F938F930E945C0825E0A70160E1C8016C
:100380000E94E105FF92EF9284E492E09F938F93A5
:100390000E945C081F820FB6F894DEBF0FBECDBF6F
:1003A00021E0AE01495F5F4F61E1C8010E94E105B4
:1003B0008F811F928F9382E592E09F938F930E948B
:1003C0005C081F8221E0AE01495F5F4F62E1C80116
:1003D0000E94E1058F811F928F9381E692E09F93A7
:1003E0008F930E945C081F8221E0AE01495F5F4F3E
:1003F00063E1C8010E94E1058F811F928F9380E71E
:1004000092E09F938F930E945C081F8221E0AE01CF
:10041000495F5F4F64E1C8010E94E1058F811F922F
:100420008F938FE792E09F938F930E945C081F82C7
:1004300021E0AE01495F5F4F65E1C8010E94E1051F
:100440008F811F928F938EE892E09F938F930E94EB
:100450005C081F8221E0AE01495F5F4F66E1C80181
:100460000E94E1058F811F928F938DE992E09F9307
:100470008F930E945C081F8221E0AE01495F5F4FAD
:1004800067E1C8010E94E1058F811F928F938CEA7A
:1004900092E09F938F930E945C081F8221E0AE013F
:1004A000495F5F4F6CE1C8010E94E1058F811F9297
:1004B0008F938EEB92E09F938F930E945C080FB610
:1004C000F894DEBF0FBECDBF27960FB6F894DEBFFF
:1004D0000FBECDBFDF91CF911F910F91FF90EF9095
:1004E0000895DC01FB018C91808311968C9111970A
:1004F000818312968C9182830895DB01FC01835FD6
:1005000021919D91291304C08E13FACF81E00895A3
:1005100080E008950F931F93CF93DF938C018AECB3
:1005200092E09F938F930E945C08E801005F1F4F49
:100530000F900F9089910E940F04C017D107D1F737
:100540008AE0DF91CF911F910F910C940F040F93CC
:100550001F93CF938C0183ED92E09F938F930E9422
:100560005C080F900F90C0E0F801EC0FF11D808146
:10057000882321F00E940F04CF5FF6CF8AE0CF914D
:100580001F910F910C940F04CF93DF93EC018DED2D
:1005900092E09F938F930E945C0888810E940F04D1
:1005A00089810E940F048A810E940F040F900F908E
:1005B0008AE0DF91CF910C940F040F931F93CF9398
:1005C000DF938C01EB018881813351F1C0F48033DA
:1005D00011F1C8010E94DD04882309F459C060E2CA
:1005E00071E0CE010E947D02882309F441C080E2BF
:1005F00091E0DF91CF911F910F910C948A02823389
:10060000C9F0833331F7CB010196DF91CF911F9170
:100610000F910C94C4028BB190E289278BB9D9CF8A
:10062000C8010E94DD0461E0811160E0C8010E9400
:10063000E004CFCF8BB190E289278BB96F5F7F4FFA
:10064000C8010E94650761E071E0C8010C960E9434
:10065000710260E071E0C8010E94A305B801695F02
:100660007F4FC801DF91CF911F910F910C946507C7
:10067000CE010E94A7026C96BE01C8010E946507C8
:100680006DE271E0CE010E94710260E271E0E3CFA1
:10069000CE01DF91CF911F910F910C94A702EF92A1
:1006A000FF920F931F93CF93C62F0E9401067C01E8
:1006B000C250C43000F5C2E086EE92E09F938F9363
:1006C0000E945C080F900F900C2F10E00E5F1F4FE0
:1006D000F701EC0FF11D80810E940F04CF5FC0175E
:1006E0001106B1F3ACF38AE0CF911F910F91FF9007
:1006F000EF900C940F04C0E0DFCFCF93DF930E9404
:100700003A06EC0186EE92E09F938F930E945C087C
:1007100088810E940F0489810E940F048A810E94AF
:100720000F040F900F908AE0DF91CF910C940F048B
:100730000F931F93CF93DF938C01EB01E881EA3095
:1007400008F05EC0F0E0EA5BF44F0C945608635E7C
:100750007F4F0C960E947102BE016F5F7F4FC801F0
:100760000E94A305C8010E94F1048111FBCFDF9113
:10077000CF911F910F9108956F5F7F4FDF91CF91C0
:100780001F910F910C9465076E5F7F4F4981DF9138
:10079000CF911F910F910C942B07DF91CF911F9157
:1007A0000F910C947D036981DF91CF911F910F917F
:1007B0000C944F030E94DD0461E0811160E0C801E8
:1007C000DF91CF911F910F910C94E00486EE92E09F
:1007D0009F938F930E945C08C8010E94DD04805D96
:1007E0000E940F040F900F908AE0DF91CF911F912C
:1007F0000F910C940F048BB190E289278BB9B7CF7E
:100800008DEE92E0DF91CF911F910F910C947208C1
:100810008091C00087FFFCCF8091C6000895909121
:10082000C00095FFFCCF8093C6000895EDE7F3E08C
:100830008EE491E09383828380E491E091838083CE
:100840001092C50087E68093C400E0ECF0E0808160
:100850008D7F808386E08093C200E1ECF0E088E148
:10086000808380818068808308958AE00C940F04DF
:100870000F931F93CF938C01C0E0F801EC0FF11D93
:100880008081811105C0CF911F910F910C94350487
:100890000E940F04CF5FF1CFCF93DF93C82FD62FE5
:1008A00080E00E94DF078C2F8F7180620E94F40726
:1008B0008D2F0E94F40781E0DF91CF910C94DF0728
:1008C000CF93DF93FC01108281E0818390E29283D9
:1008D00093E093831482858388E08683DF011796F3
:1008E00085E0ED0119928A95E9F781E28087818799
:1008F00015969EE1ED0119929A95E9F79AE794878A
:1009000020E325879687828B838B97E3968B878B53
:10091000808F98E3938F848F858F99E390A381A331
:1009200082A391E495A386A387A3DF91CF91089535
:100930000E94D30780E00E94D90781E00C94DF0772
:1009400080E00C944C0481E00C944C0482E00C9404
:100950004C0483E00C944C0484E00C944C0485E03B
:100960000C944C0486E00C944C0487E00C944C04EA
:1009700088E00C944C04423089F030F4442359F060
:1009800082E1413049F00895443061F048F086E159
:10099000453011F0089581E10C944C0483E1FCCFC3
:1009A00084E1FACF85E1F8CF87E10C944C048CE127
:1009B0000C944C04FC0180810895FC018181089510
:1009C000FC0161830895CF9380E00E94DF078FEFE1
:1009D0000E94F407C82F81E00E94DF078C2FCF917F
:1009E00008950E94E304982F907381E009F080E05D
:1009F0000895CF93DF93EC010E94E30485FF04C0C8
:100A00008C81DF91CF91089584FF02C08D81F9CF51
:100A10008FEFF7CFCF9380E00E94DF0780E60E9440
:100A2000F40780E00E94F407C82F81E00E94DF07EE
:100A30008C2FCF910895CF93DF93EC0181E08883D1
:100A400080E00E94DF0782EE0E94F40781E00E94AE
:100A5000DF0760E787E00E944C0480E00E94D9072E
:100A60006E81636080E00E944C0481E0DF91CF9151
:100A70000C94D907CF93DF93EC01188260E787E0ED
:100A80000E944C046E81626080E0DF91CF910C94F3
:100A90004C04CF93DF93EC01188280E00E94D907C9
:100AA0006E8180E0DF91CF910C944C04EF92FF9225
:100AB0000F931F93CF93DF93EB018A017B01E20E2B
:100AC000F11CCE15DF0539F089910E94F407F80179
:100AD00081938F01F6CFDF91CF911F910F91FF90FE
:100AE000EF9008950F931F93CF93DF93EC018B0149
:100AF00080E00E94DF0781E60E94F4072A81A801B6
:100B0000B801CE010E94560581E00E94DF0760E433
:100B100087E0DF91CF911F910F910C944C040F93BC
:100B20001F93CF93DF93EB018B01040F111DC017AF
:100B3000D10721F089910E94F407F9CFDF91CF917D
:100B40001F910F9108950F931F93CF93DF93EC01A3
:100B50008B0180E00E94D907CE010E943A0580E017
:100B60000E94DF0781EE0E94F40781E00E94DF0708
:100B700080E00E94DF0780EA0E94F4074A81B80102
:100B8000CE010E948F0581E00E94DF0781E0DF91A6
:100B9000CF911F910F910C94D907CF93DF93C62F5C
:100BA000D42F80E00E94DF078C2F8F7180620E941B
:100BB000F4078D2F0E94F40781E0DF91CF910C9410
:100BC000DF07EF92FF920F931F93CF93DF938C0178
:100BD000E62EEA01F22E80E00E94DF078E2D8F7153
:100BE0000E94F4072F2DAE01BE01C8010E945605D8
:100BF00081E0DF91CF911F910F91FF90EF900C94C6
:100C0000DF07109278031092790310927A03109202
:100C10007B0310927C036230F1F038F4662379F0A4
:100C20006130A1F088E793E008956430F1F0C0F0FE
:100C30006530C1F721E04CE753E06FE004C025E0E8
:100C400048E753E06AE00E94E105ECCF25E048E781
:100C500053E06BE0F8CF21E04CE753E06CE0F3CFDA
:100C600021E04CE753E06DE0EECF21E04CE753E0AC
:100C70006EE0E9CF25E043E753E060E10E94E10543
:100C800083E793E0089521E042E753E060E00E94AB
:100C9000E10580917203089521E041E753E061E0AE
:100CA0000E94E10580917103089521E040E753E03F
:100CB00062E00E94E10580917003089521E04FE613
:100CC00053E063E00E94E10580916F03089521E005
:100CD0004EE653E064E00E94E10580916E030895C2
:100CE00021E04DE653E065E00E94E10580916D034F
:100CF000089521E04CE653E066E00E94E105809112
:100D00006C03089521E04BE653E067E00E94E105A3
:100D100080916B03089521E04AE653E068E00E9469
:100D2000E10580916A0308956230F1F038F466239A
:100D300079F06130A1F08091690308956430F1F099
:100D4000C0F06530C1F721E049E653E066E104C038
:100D500021E049E653E061E10E94E105ECCF21E0AA
:100D600049E653E062E1F8CF21E049E653E063E170
:100D7000F3CF21E049E653E064E1EECF21E049E61C
:100D800053E065E1E9CF21E048E653E067E10E94E6
:100D9000E10580916803089521E047E653E06CE1A6
:100DA0000E94E105809167030895CF93DF930F922E
:100DB000CDB7DEB721E0AE014F5F5F4F67E10E9424
:100DC000E105898181700F90DF91CF910895CF93D4
:100DD000DF93EC010E94E30491E086FD06C0CE01A2
:100DE0000E94D50691E0811190E0892FDF91CF918B
:100DF0000895CF93DF930F92CDB7DEB721E0AE0118
:100E00004F5F5F4F68E00E94E10589818F700F900E
:100E1000DF91CF910895EF92FF920F931F93CF939D
:100E2000DF938C01C62F7A01D22F80E00E94DF076A
:100E30008C2F8F7180620E94F4074D2FB701C8017B
:100E40000E948F0581E0DF91CF911F910F91FF905C
:100E5000EF900C94DF07EF92FF921F93CF93DF93F5
:100E6000EC017B01142F80E00E94D907123009F1B8
:100E700060F41123B1F01130C1F081E0DF91CF9126
:100E80001F91FF90EF900C94D9071430D1F0A8F087
:100E900021E0A7016FE0153081F7CE010E940B071A
:100EA000ECCF2B81A7016AE0F8CF2B81A7016BE083
:100EB000F4CF21E0A7016CE0F0CF21E0A7016DE0C5
:100EC000ECCF21E0A7016EE0E8CF0F931F93CF9303
:100ED000DF93EC018B01AC01445F5F4F2B816AE033
:100EE0000E940B072B81A80160E1CE01DF91CF9119
:100EF0001F910F910C940B07EF92FF921F93CF93CA
:100F0000DF93EC0180E28A8362E085E00E944C047A
:100F100061E083E00E944C047E018CE0E80EF11C4D
:100F200010E0412FB701CE010E942B0785E0E80EAB
:100F3000F11C1F5F1630A9F7BE01695F7F4FCE011C
:100F40000E9465076A8181E10E944C046A8182E106
:100F50000E944C046A8183E10E944C046A8184E10E
:100F60000E944C046A8185E10E944C046A8186E1FA
:100F70000E944C0466E086E00E944C046E8180E092
:100F80000E944C0460E081E00E944C046FE382E028
:100F90000E944C0460E08CE1DF91CF911F91FF90A3
:100FA000EF900C944C04229A219A259A239A249823
:100FB0000895882311F02A9A08952A98089588237D
:100FC00011F0299A089529980895882311F02D9AEF
:100FD00008952D980895882311F02B9A08952B9841
:100FE000089583B180710895EF92FF920F931F933C
:100FF000CF93E82E80E00E94E50707E010E0C0E014
:10100000F12CC701002E02C0959587950A94E2F74E
:1010100080FF12C02B9A2D9ACC0F1C99C16080E0E2
:101020000E94E5070150110960F78C2FCF911F91A5
:101030000F91FF90EF90089580E00E94EB07EBCFB7
:101040000E9416048DE393E00E9498048DE393E0E0
:101050000E947C078DE393E00E941B0578948DE34A
:1010600093E00E94DA04811104C08DE393E00E94B2
:101070001B058DE393E00E94E706882361F06DEF86
:1010800072E08DE393E00E9472056DEF72E08DE3F4
:1010900093E00E94DD028FE39CE90197F1F700C025
:1010A0000000DDCF8DE393E00C946004EE0FFF1F92
:1010B0000590F491E02D0994B0E0A0E0E2E6F8E0BC
:1010C0000C941D0BAE014B5F5F4FFA016191719162
:1010D000AF0180917F03909180030E949E08E2E01F
:1010E0000C94390B0F931F93CF93DF93E0917F0301
:1010F000F0918003238110E000E021FD0EC00FEF8E
:101100001FEFC801DF91CF911F910F9108950995AD
:10111000892B11F00FEF1FEFCE01EC018991609147
:101120007F0370918003DB011896ED91FC91811192
:10113000EECF8AE00995892B21F3E1CFABE0B0E057
:10114000E4EAF8E00C940D0B7C013B018A01FC0100
:1011500017821682838181FFB9C19AE0292ECE01C0
:1011600001965C01F7019381F30193FD859193FF53
:1011700081913F01882309F446C1853239F493FDFA
:10118000859193FF81913F01853229F4B70190E069
:101190000E947F0AE7CF912C412C512CFFE1F515DD
:1011A00038F08B3209F188F4803201F1833221F179
:1011B00057FC3AC020ED280F2A3040F556FE1FC0DC
:1011C000929C200D1124922E06C08D3291F0803316
:1011D00079F7689450F8F30193FD859193FF81911D
:1011E0003F018111DBCF20C0689451F8689452F818
:1011F000F2CF689453F8EFCF689454F8ECCF429C48
:10120000200D1124422E689455F8E5CF8E3229F432
:1012100056FCF9C0689456F8DECF8C3619F4689401
:1012200057F8D9CF8836B9F2982F9F7D95549330CF
:10123000C0F08336A1F18337C1F1833509F05BC07B
:10124000F801C190D1908F01692D70E056FC02C069
:101250006FEF7FEFC6010E94690A4C01689457F84E
:101260000AC00C5F1F4F2FE3298388248394912C9D
:101270006501E89457F853FC04C04814190409F0B8
:1012800018F5342C8114910431F5332009F46ACF18
:10129000B70180E290E00E947F0A3A94F6CFF8010D
:1012A000808189830E5F1F4FE0CFF801C190D190FC
:1012B0008F01692D70E056FC02C06FEF7FEFC60111
:1012C0000E94740A4C01D5CFB70180E290E00E94E1
:1012D0007F0A4A94D2CFF60157FC859157FE81913F
:1012E0006F01B70190E00E947F0A31103A94F1E05B
:1012F0008F1A9108C7CF843619F0893609F074C067
:10130000F80157FE6AC061917191819191918F01AD
:10131000252D2F76D22E97FF09C090958095709538
:1013200061957F4F8F4F9F4F6894D7F82AE030E048
:10133000A5010E94AF0AC82ECA188C2C5D2CD6FEBF
:101340000CC0E89450F8C91440F4D4FE05C0D2FC97
:1013500003C0FD2DFE7E5F2E892C54FE8FC0FE0142
:10136000EC0DF11D8081803309F081C0252D297E8F
:10137000522E852D8870382E53FC8FC050FE89C0A8
:101380009C2C841418F44C0C942C981854FE8BC08C
:10139000B70180E390E00E947F0A52FE09C088E70F
:1013A00090E051FE02C088E590E0B7010E947F0AFC
:1013B000C91408F484C0CA94D12C9FEFC91AD90A61
:1013C000CA0CDB1CF60182916F01B70190E00E940C
:1013D0007F0AAC14BD04B1F758CF61917191072E0B
:1013E000000C880B990B93CFD52CE894D4F82AE005
:1013F00030E0853739F1952D997FD92E8F3601F15F
:1014000048F48835A9F0F701868197812B96E2E1AF
:101410000C94290B803749F08837A9F7D4FE02C015
:101420006894D2F820E130E00DC06894D4F8F6CF8B
:1014300054FE03C0E92FE660DE2E20E132E002C058
:1014400028E030E0F801D7FE0DC0619171918191E3
:1014500091918F01A5010E94AF0AC82ECA18E89485
:10146000D7F86BCF6191719190E080E0F2CF52FCA0
:1014700002C083947ECF839483947BCF852D86781E
:1014800009F477CFF6CFB70180E290E00E947F0A9F
:1014900083948414C0F3312C79CF342C38188414FD
:1014A00008F474CFF8CF852D867809F481CF8BE2CC
:1014B00051FE80E257FC8DE2B70190E077CFB70193
:1014C00080E390E00E947F0A9A9472CF8FEF9FEFA3
:1014D0009DCFFC010590615070400110D8F78095B8
:1014E00090958E0F9F1F0895FC01615070400190F0
:1014F0000110D8F7809590958E0F9F1F08950F9338
:101500001F93CF93DF93182F092FEB018B8181FD60
:1015100009C01FEF0FEF812F902FDF91CF911F9107
:101520000F91089582FF14C02E813F818C819D818F
:10153000281739073CF4E881F981CF010196998396
:10154000888310838E819F8101969F838E83E3CF52
:10155000E885F985812F0995892BA1F3DACFFA0166
:10156000AA27283051F1203181F1E8946F936E7FE2
:101570006E5F7F4F8F4F9F4FAF4FB1E03ED0B4E0D3
:101580003CD0670F781F891F9A1FA11D680F791F14
:101590008A1F911DA11D6A0F711D811D911DA11D25
:1015A00020D009F468943F912AE0269F1124301935
:1015B000305D3193DEF6CF010895462F4770405DD0
:1015C0004193B3E00FD0C9F7F6CF462F4F70405D7F
:1015D0004A3318F0495D31FD4052419302D0A9F7DA
:1015E000EACFB4E0A6959795879577956795BA95D4
:1015F000C9F700976105710508959B01AC010A2E9A
:1016000006945795479537952795BA95C9F7620F70
:10161000731F841F951FA01D08952F923F924F9214
:101620005F926F927F928F929F92AF92BF92CF9272
:10163000DF92EF92FF920F931F93CF93DF93CDB77B
:10164000DEB7CA1BDB0B0FB6F894DEBF0FBECDBFF3
:1016500009942A88398848885F846E847D848C84C4
:101660009B84AA84B984C884DF80EE80FD800C81CD
:101670001B81AA81B981CE0FD11D0FB6F894DEBFB0
:101680000FBECDBFED010895F894FFCFA703BC03B3
:10169000C403CD03D303DA03E603FB03B703B703A5
:1016A0003300000000000000000000000000000007
:1016B000000000000000000000000000000000002A
:1016C0003C3C3C737563636573733E3E3E000000B3
:1016D000000000000000000000000000000000000A
:1016E00000000001000000000000080400000000ED
:1016F0000002000000000F04000000003A434F4EBB
:101700004649473A2025780A003A454E5F41413A1A
:101710002025780A003A454E5F5258414444523AD7
:101720002025780A003A53455455505F41573A20D6
:1017300025780A003A53455455505F524554523A61
:101740002025780A003A52465F43483A2025780A15
:10175000003A52465F53455455503A2025780A00C6
:101760003A5354415455533A2025780A003A4F428F
:1017700053455256455F54583A2025780A003A524C
:10178000585F414444525F50303A2025730A003A72
:1017900052585F414444525F50313A2025730A0049
:1017A0003A52585F414444525F50323A2025780AF9
:1017B000003A52585F414444525F50333A202578F2
:1017C0000A003A52585F414444525F50343A20254F
:1017D000780A003A52585F414444525F50353A20EB
:1017E00025780A003A54585F414444523A20257300
:1017F0000A003A52585F50575F50303A2025780A15
:10180000003A52585F50575F50313A2025780A000D
:101810003A52585F50575F50323A2025780A003AC2
:1018200052585F50575F50333A2025780A003A5299
:10183000585F50575F50343A2025780A003A525882
:101840005F50575F50353A2025780A003A4649469E
:101850004F5F5354415455533A2025780A003A4477
:10186000594E50443A2025780A0053554343455376
:10187000533A0052454345495645443A0041444491
:10188000524553533A0053544154453A00494E5639
:0C189000414C4944205354415445000091
:00000001FF
