:100000000C9434000C9451000C9451000C94510049
:100010000C9451000C9451000C9451000C9451001C
:100020000C9451000C9451000C9451000C9451000C
:100030000C9451000C9451000C9451000C945100FC
:100040000C9451000C9451000C9451000C945100EC
:100050000C9451000C9451000C9451000C945100DC
:100060000C9451000C94510011241FBECFEFD8E026
:10007000DEBFCDBF11E0A0E0B1E0E2E9F1E002C0F7
:1000800005900D92A832B107D9F721E0A8E2B1E0BE
:1000900001C01D92AE32B207E1F70E9497000C94A6
:1000A000C7000C9400008091C00087FFFCCF8091B6
:1000B000C60008959091C00095FFFCCF8093C600C4
:1000C0000895E8E2F1E08EE091E09383828380E09E
:1000D00091E0918380831092C50087E68093C400ED
:1000E000E0ECF0E080818D7F808386E08093C20029
:1000F000E1ECF0E088E1808380818068808308956E
:100100008AE00C945A000F931F93CF938C01C0E0A8
:10011000F801EC0FF11D8081811105C0CF911F9175
:100120000F910C9480000E945A00CF5FF1CF0E9483
:1001300061008AE00E945A00C0E0DAE08C2F6D2F47
:100140000E94BB00E92FF0E0E45EFE4F80810E9438
:100150005A00CF5FEC2FF0E0E45EFE4F808181110A
:10016000EDCF2FEF87EA91E6215080409040E1F7F4
:1001700000C00000DECF991B79E004C0991F9617DC
:1001800008F0961B881F7A95C9F780950895F89412
:02019000FFCF9F
:100192000000000100000000000053000000000009
:1001A2000002000000005A000000000049742057BD
:0801B2006F726B73210A00005B
:00000001FF
