:100000000C9435000C945D000C945D000C945D0024
:100010000C945D000C945D000C945D000C945D00EC
:100020000C945D000C945D000C945D000C945D00DC
:100030000C945D000C945D000C945D000C945D00CC
:100040000C945D000C945D000C945F000C945D00BA
:100050000C945D000C945D000C945D000C945D00AC
:100060000C945D000C945D000D0911241FBECFEFB0
:10007000D8E0DEBFCDBF13E0A0E0B1E0E4E2F8E1FC
:1000800002C005900D92A630B107D9F723E0A6E093
:10009000B3E001C01D92A339B207E1F710E0C5E358
:1000A000D0E004C02197FE010E941109C433D1079A
:1000B000C9F70E94DB080C94FF0B0C9400001F9200
:1000C0000F920FB60F9211242F933F934F935F938C
:1000D0006F937F938F939F93AF93BF93EF93FF9310
:1000E0000E949A0490910603E92FF0E0E95DFC4F2D
:1000F00080839F5F90930603903211F08D3071F4EE
:1001000090912703911102C08D3041F010920603A7
:1001100067E273E087E493E00E940A047894FF9119
:10012000EF91BF91AF919F918F917F916F915F916F
:100130004F913F912F910F900FBE0F901F901895E8
:10014000EF92FF920F931F93CF93DF9300D000D0D5
:1001500000D00F92CDB7DEB78C011F8221E0AE0137
:10016000495F5F4F60E00E9473068F811F928F93FB
:100170008CE591E09F938F930E9417091F8221E0E5
:10018000AE01495F5F4F61E0C8010E9473068F8135
:100190001F928F9389E691E09F938F930E94170996
:1001A0001F8221E0AE01495F5F4F62E0C8010E94FB
:1001B00073068F811F928F9385E791E09F938F93B2
:1001C0000E9417091F8221E0AE01495F5F4F63E083
:1001D000C8010E9473068F811F928F9385E891E07A
:1001E0009F938F930E9417091F8221E0AE01495F00
:1001F0005F4F64E0C8010E9473068F811F928F9346
:1002000084E991E09F938F930E9417091F8221E058
:10021000AE01495F5F4F65E0C8010E9473068F81A0
:100220001F928F9385EA91E09F938F930E94170905
:100230001F8221E0AE01495F5F4F66E0C8010E9466
:1002400073068F811F928F9381EB91E09F938F9321
:100250000E9417091F8221E0AE01495F5F4F67E0EE
:10026000C8010E9473068F811F928F9380EC91E0EA
:100270009F938F930E9417091F820FB6F894DEBFD9
:100280000FBECDBF21E0AE01495F5F4F68E0C801FE
:100290000E9473068F811F928F938DEC91E09F9344
:1002A0008F930E941709FE0131967F0186E011921B
:1002B0008A95E9F725E0A7016AE0C8010E94730664
:1002C000FF92EF928EED91E09F938F930E9417091A
:1002D00025E0A7016BE0C8010E947306FF92EF9230
:1002E0008FEE91E09F938F930E9417091F8221E068
:1002F000AE01495F5F4F6CE0C8010E9473068F81B9
:100300001F928F9380E092E09F938F930E94170932
:100310001F8221E0AE01495F5F4F6DE0C8010E947E
:1003200073068F811F928F9381E192E09F938F9349
:100330000E9417091F8221E0AE01495F5F4F6EE006
:10034000C8010E9473068F811F928F9382E292E010
:100350009F938F930E9417091F8221E0AE01495F8E
:100360005F4F6FE0C8010E9473068F811F928F93C9
:1003700083E392E09F938F930E94170925E0A701E2
:1003800060E1C8010E947306FF92EF9284E492E05C
:100390009F938F930E9417091F820FB6F894DEBFB8
:1003A0000FBECDBF21E0AE01495F5F4F61E1C801E3
:1003B0000E9473068F811F928F9382E592E09F9334
:1003C0008F930E9417091F8221E0AE01495F5F4FA2
:1003D00062E1C8010E9473068F811F928F9381E6AC
:1003E00092E09F938F930E9417091F8221E0AE0134
:1003F000495F5F4F63E1C8010E9473068F811F92BE
:100400008F9380E792E09F938F930E9417091F823A
:1004100021E0AE01495F5F4F64E1C8010E947306AD
:100420008F811F928F938FE792E09F938F930E940B
:1004300017091F8221E0AE01495F5F4F65E1C801E6
:100440000E9473068F811F928F938EE892E09F9394
:100450008F930E9417091F8221E0AE01495F5F4F11
:1004600066E1C8010E9473068F811F928F938DE908
:1004700092E09F938F930E9417091F8221E0AE01A3
:10048000495F5F4F67E1C8010E9473068F811F9229
:100490008F938CEA92E09F938F930E9417091F829B
:1004A00021E0AE01495F5F4F6CE1C8010E94730615
:1004B0008F811F928F938EEB92E09F938F930E9478
:1004C00017090FB6F894DEBF0FBECDBF27960FB643
:1004D000F894DEBF0FBECDBFDF91CF911F910F917A
:1004E000FF90EF900895DC01FB018C9180831196C1
:1004F0008C911197818312968C91828308950F932A
:100500001F93CF93DF93EC018B0161E773E00796B4
:100510000E947302B801655E7F4FCE010E941208EF
:1005200061E071E0CE010C960E94730260E071E020
:10053000CE010E94350661E773E0CE01DF91CF91D5
:100540001F910F910C941208DB01FC01835F219134
:100550009D91291304C08E13FACF81E0089580E0A5
:1005600008950F931F93CF93DF938C018AEC92E051
:100570009F938F930E941709E801005F1F4F0F9010
:100580000F9089910E94A104C017D107D1F78AE08A
:10059000DF91CF911F910F910C94A1040F931F93A2
:1005A000CF93DF938C0183ED92E09F938F930E9412
:1005B0001709E801055E1F4F0F900F9089910E9467
:1005C000A104C017D107D1F78AE0DF91CF911F9125
:1005D0000F910C94A1040F931F93CF938C018DED79
:1005E00092E09F938F930E9417090F900F90C0E0A5
:1005F000F801EC0FF11D8081882321F00E94A104F5
:10060000CF5FF6CF8AE0CF911F910F910C94A10498
:10061000CF93DF93EC0187EE92E09F938F930E943C
:10062000170988810E94A10489810E94A1048A81FE
:100630000E94A1040F900F908AE0DF91CF910C945B
:10064000A104EF92FF920F931F93CF93DF938C013E
:10065000EB01E881E053E730B0F5F0E0EF5FF34FF6
:100660000C9411097B018FEFE81AF80AC7010E9468
:10067000EB02C8010E946F05882321F0B701C80171
:100680000E947F0281E20E94A1048E01005E1F4F42
:1006900089910E94A104C017D107D1F78AE0DF91A8
:1006A000CF911F910F91FF90EF900C94A1048BB10B
:1006B00090E289278BB9C8010E946F05BE016F5F68
:1006C0007F4F811155C0DF91CF911F910F91FF9006
:1006D000EF9008950E946F0561E0811160E0C8010C
:1006E0000E947205E8CF8BB190E289278BB964E74D
:1006F00073E0C80107960E947302BE016F5F7F4FCF
:10070000C8010E94120861E271E0C8010C960E94C3
:10071000730260E271E0C8010E94350664E773E08D
:10072000C801DF91CF911F910F91FF90EF900C9432
:100730001208CB010196DF91CF911F910F91FF908D
:10074000EF900C940803CB010196DF91CF911F919C
:100750000F91FF90EF900C94B1022196CE010E9470
:10076000CE02C8010E946F05882309F4ACCFBE01F8
:10077000C801DF91CF911F910F91FF90EF900C94E2
:100780007F02EF92FF920F931F93CF93C62F0E9489
:1007900093067C01C250C43000F5C2E080EF92E0C5
:1007A0009F938F930E9417090F900F900C2F10E0CA
:1007B0000E5F1F4FF701EC0FF11D80810E94A10415
:1007C000CF5FC0171106B1F3ACF38AE0CF911F9150
:1007D0000F91FF90EF900C94A104C0E0DFCFCF9376
:1007E000DF930E94CC06EC0180EF92E09F938F9301
:1007F0000E94170988810E94A10489810E94A10496
:100800008A810E94A1040F900F908AE0DF91CF911E
:100810000C94A1040F931F93CF93DF938C01EB01F2
:100820008FE30E94A10488810E94A1048AE00E94B3
:10083000A104E881EA3008F06CC0F0E0E85FF34F13
:100840000C941109BE016F5F7F4FC8010E943506ED
:10085000C8010E9483058111FBCF81E20E94A1049F
:100860008E01005E1F4F89910E94A104C017D1071D
:10087000D1F78AE0DF91CF911F910F910C94A104E1
:10088000BE016F5F7F4FC801DF91CF911F910F9124
:100890000C941208BE016E5F7F4F4981C801DF9141
:1008A000CF911F910F910C94BD07C801DF91CF919B
:1008B0001F910F910C94EF036981C801DF91CF91D3
:1008C0001F910F910C94C103C8010E946F0561E054
:1008D000811160E0C801DF91CF911F910F910C94BD
:1008E000720580EF92E09F938F930E941709C801D1
:1008F0000E946F05805D0E94A1040F900F90B9CFF8
:100900008BB190E289278BB9DF91CF911F910F9125
:10091000089587EF92E00E942D0981E20E94A104D0
:100920008E01005E1F4F89910E94A1040C171D07C4
:10093000D1F79FCF8091C00087FFFCCF8091C60088
:1009400008959091C00095FFFCCF8093C600089554
:10095000EDE8F3E08EE491E09383828380E491E01C
:10096000918380831092C50087E68093C400E0ECF9
:10097000F0E080818D7F808386E08093C200E1EC8F
:10098000F0E088E1808380818068808308958AE038
:100990000C94A1040F931F93CF938C01C0E0F80136
:1009A000EC0FF11D8081811105C0CF911F910F9136
:1009B0000C94C7040E94A104CF5FF1CFCF93DF93C3
:1009C000C82FD62F80E00E949A088C2F8F718062EA
:1009D0000E94AF088D2F0E94AF0881E0DF91CF9178
:1009E0000C949A08CF93DF93FC01108281E08183FD
:1009F00090E2928393E093831482858388E08683D8
:100A0000DF01179685E0ED0119928A95E9F781E2F9
:100A10008087818715969EE1ED0119929A95E9F7F5
:100A200099E7948720E325879687828B838B97E3CA
:100A3000968B878B808F98E3938F848F858F99E334
:100A400090A381A382A391E495A386A387A3DF91BA
:100A5000CF9108950E948E0880E00E94940881E062
:100A60000C949A0880E00C94DE0481E00C94DE047F
:100A700082E00C94DE0483E00C94DE0484E00C94A9
:100A8000DE0485E00C94DE0486E00C94DE0487E04E
:100A90000C94DE0488E00C94DE04423089F030F4DB
:100AA000442359F082E1413049F00895443061F027
:100AB00048F086E1453011F0089581E10C94DE04A0
:100AC00083E1FCCF84E1FACF85E1F8CF87E10C9494
:100AD000DE048CE10C94DE04FC0180810895FC01AD
:100AE00081810895FC0161830895CF9380E00E9485
:100AF0009A088FEF0E94AF08C82F81E00E949A08E1
:100B00008C2FCF9108950E947505982F907381E0E6
:100B100009F080E00895CF93DF93EC010E94750502
:100B200085FF04C08C81DF91CF91089584FF02C0BE
:100B30008D81F9CF8FEFF7CFCF9380E00E949A0895
:100B400080E60E94AF0880E00E94AF08C82F81E0D5
:100B50000E949A088C2FCF910895CF93DF93EC01D8
:100B600081E0888380E00E949A0882EE0E94AF08AC
:100B700081E00E949A0860E787E00E94DE0480E03E
:100B80000E9494086E81636080E00E94DE0481E030
:100B9000DF91CF910C949408CF93DF93EC011882EE
:100BA00060E787E00E94DE046E81626080E0DF9192
:100BB000CF910C94DE04CF93DF93EC01188280E098
:100BC0000E9494086E8180E0DF91CF910C94DE0446
:100BD000EF92FF920F931F93CF93DF93EB018A0164
:100BE0007B01E20EF11CCE15DF0539F089910E94E0
:100BF000AF08F80181938F01F6CFDF91CF911F915C
:100C00000F91FF90EF9008950F931F93CF93DF9371
:100C1000EC018B0180E00E949A0881E60E94AF08F7
:100C20002A81A801B801CE010E94E80581E00E9456
:100C30009A0860E487E0DF91CF911F910F910C94A7
:100C4000DE040F931F93CF93DF93EB018B01040F0F
:100C5000111DC017D10721F089910E94AF08F9CF6B
:100C6000DF91CF911F910F9108950F931F93CF9311
:100C7000DF93EC018B0180E00E949408CE010E947A
:100C8000CC0580E00E949A0881EE0E94AF0881E0C6
:100C90000E949A0880E00E949A0880EA0E94AF08A9
:100CA0004A81B801CE010E94210681E00E949A0883
:100CB00081E0DF91CF911F910F910C949408CF9315
:100CC000DF93C62FD42F80E00E949A088C2F8F715B
:100CD00080620E94AF088D2F0E94AF0881E0DF91F3
:100CE000CF910C949A08EF92FF920F931F93CF939A
:100CF000DF938C01E62EEA01F22E80E00E949A0832
:100D00008E2D8F710E94AF082F2DAE01BE01C8013C
:100D10000E94E80581E0DF91CF911F910F91FF9034
:100D2000EF900C949A081092880310928903109205
:100D30008A0310928B0310928C036230F1F038F426
:100D4000662379F06130A1F088E893E0089564307B
:100D5000F1F0C0F06530C1F721E04CE853E06FE0FE
:100D600004C025E048E853E06AE00E947306ECCF37
:100D700025E048E853E06BE0F8CF21E04CE853E091
:100D80006CE0F3CF21E04CE853E06DE0EECF21E0E2
:100D90004CE853E06EE0E9CF25E043E853E060E142
:100DA0000E94730683E893E0089521E042E853E04F
:100DB00060E00E94730680918203089521E041E87B
:100DC00053E061E00E94730680918103089521E061
:100DD00040E853E062E00E9473068091800308952A
:100DE00021E04FE753E063E00E94730680917F03A8
:100DF000089521E04EE753E064E00E94730680917D
:100E00007E03089521E04DE753E065E00E947306FC
:100E100080917D03089521E04CE753E066E00E9455
:100E2000730680917C03089521E04BE753E067E06F
:100E30000E94730680917B03089521E04AE753E006
:100E400068E00E94730680917A0308956230F1F0A1
:100E500038F4662379F06130A1F080917903089528
:100E60006430F1F0C0F06530C1F721E049E753E0AC
:100E700066E104C021E049E753E061E10E947306A6
:100E8000ECCF21E049E753E062E1F8CF21E049E708
:100E900053E063E1F3CF21E049E753E064E1EECFB3
:100EA00021E049E753E065E1E9CF21E048E753E07D
:100EB00067E10E94730680917803089521E047E777
:100EC00053E06CE10E947306809177030895CF93FD
:100ED000DF930F92CDB7DEB721E0AE014F5F5F4FDA
:100EE00067E10E947306898181700F90DF91CF9135
:100EF0000895CF93DF93EC010E94750591E086FD84
:100F000006C0CE010E94670791E0811190E0892F11
:100F1000DF91CF910895CF93DF930F92CDB7DEB7D6
:100F200021E0AE014F5F5F4F68E00E947306898148
:100F30008F700F90DF91CF910895EF92FF920F93F2
:100F40001F93CF93DF938C01C62F7A01D22F80E0BD
:100F50000E949A088C2F8F7180620E94AF084D2FDB
:100F6000B701C8010E94210681E0DF91CF911F9156
:100F70000F91FF90EF900C949A08FF920F931F939C
:100F8000CF93DF93EC01F62E072F142F80E00E9401
:100F90009408123091F1D0F4112311F1113041F184
:100FA00081E00E949408EF2DF02FDE0185E0189F6C
:100FB000A00DB11D11241C968B818E0F9F2F911DAA
:100FC000E817F90749F121912D93FACF1430F9F080
:100FD000C8F0153029F721E04F2D502F6FE004C0E5
:100FE0002B814F2D502F6AE0CE010E949D07D8CF54
:100FF0002B814F2D502F6BE0F7CF21E04F2D502F3D
:101000006CE0F2CF21E04F2D502F6DE0EDCF21E0CD
:101010004F2D502F6EE0E8CFDF91CF911F910F91B0
:10102000FF9008950F931F93CF93DF93EC018B01F3
:10103000AC01445F5F4F2B816AE00E949D072B81CA
:10104000A80160E1CE010E949D07F801DE0117961C
:101050008B81800F912F911DE817F90719F02191CD
:101060002D93FACFDF91CF911F910F910895EF92B9
:10107000FF921F93CF93DF93EC0180E28A8362E0BB
:1010800085E00E94DE0461E083E00E94DE047E01D0
:101090008CE0E80EF11C10E0412FB701CE010E9458
:1010A000BD0785E0E80EF11C1F5F1630A9F7BE01F1
:1010B000695F7F4FCE010E9412086A8181E10E9420
:1010C000DE046A8182E10E94DE046A8183E10E947B
:1010D000DE046A8184E10E94DE046A8185E10E9467
:1010E000DE046A8186E10E94DE0466E086E00E94FA
:1010F000DE046E8180E00E94DE0460E081E00E94F8
:10110000DE046FE382E00E94DE0460E08CE1DF91A8
:10111000CF911F91FF90EF900C94DE04229A219AB8
:10112000259A239A24980895882311F02A9A0895DD
:101130002A980895882311F0299A089529980895E6
:10114000882311F02D9A08952D980895882311F081
:101150002B9A08952B98089583B180710895EF928A
:10116000FF920F931F93CF93E82E80E00E94A00878
:1011700007E010E0C0E0F12CC701002E02C09595F9
:1011800087950A94E2F780FF12C02B9A2D9ACC0F14
:101190001C99C16080E00E94A0080150110960F70D
:1011A0008C2FCF911F910F91FF90EF90089580E0C9
:1011B0000E94A608EBCF0E94A80487E493E00E9457
:1011C0002A0587E493E00E94370887E493E00E94B1
:1011D000AD05789487E493E00E946C05811104C00A
:1011E00087E493E00E94AD0587E493E00E947907CD
:1011F000882361F067E073E087E493E00E940406CF
:1012000067E073E087E493E00E9421038FE39CE9A9
:101210000197F1F700C00000DDCF87E493E00C9464
:10122000F204EE0FFF1F0590F491E02D0994B0E059
:10123000A0E0EDE1F9E00C94D80BAE014B5F5F4FFD
:10124000FA0161917191AF0180918F0390919003A8
:101250000E945909E2E00C94F40B0F931F93CF9373
:10126000DF93E0918F03F0919003238110E000E081
:1012700021FD0EC00FEF1FEFC801DF91CF911F912D
:101280000F9108950995892B11F00FEF1FEFCE01F3
:10129000EC01899160918F0370919003DB011896A6
:1012A000ED91FC918111EECF8AE00995892B21F314
:1012B000E1CFABE0B0E0EFE5F9E00C94C80B7C01C6
:1012C0003B018A01FC0117821682838181FFB9C12B
:1012D0009AE0292ECE0101965C01F7019381F3017A
:1012E00093FD859193FF81913F01882309F446C1C5
:1012F000853239F493FD859193FF81913F018532C9
:1013000029F4B70190E00E943A0BE7CF912C412CD1
:10131000512CFFE1F51538F08B3209F188F4803259
:1013200001F1833221F157FC3AC020ED280F2A3019
:1013300040F556FE1FC0929C200D1124922E06C02F
:101340008D3291F0803379F7689450F8F30193FD72
:10135000859193FF81913F018111DBCF20C068947B
:1013600051F8689452F8F2CF689453F8EFCF68942C
:1013700054F8ECCF429C200D1124422E689455F86D
:10138000E5CF8E3229F456FCF9C0689456F8DECFCA
:101390008C3619F4689457F8D9CF8836B9F2982F5B
:1013A0009F7D95549330C0F08336A1F18337C1F10E
:1013B000833509F05BC0F801C190D1908F01692D90
:1013C00070E056FC02C06FEF7FEFC6010E94240B55
:1013D0004C01689457F80AC00C5F1F4F2FE3298314
:1013E00088248394912C6501E89457F853FC04C039
:1013F0004814190409F018F5342C8114910431F5BE
:10140000332009F46ACFB70180E290E00E943A0BE2
:101410003A94F6CFF801808189830E5F1F4FE0CFA9
:10142000F801C190D1908F01692D70E056FC02C087
:101430006FEF7FEFC6010E942F0B4C01D5CFB70194
:1014400080E290E00E943A0B4A94D2CFF60157FC1A
:10145000859157FE81916F01B70190E00E943A0B90
:1014600031103A94F1E08F1A9108C7CF843619F001
:10147000893609F074C0F80157FE6AC06191719114
:10148000819191918F01252D2F76D22E97FF09C042
:1014900090958095709561957F4F8F4F9F4F689481
:1014A000D7F82AE030E0A5010E946A0BC82ECA18BE
:1014B0008C2C5D2CD6FE0CC0E89450F8C91440F476
:1014C000D4FE05C0D2FC03C0FD2DFE7E5F2E892C0C
:1014D00054FE8FC0FE01EC0DF11D8081803309F0B8
:1014E00081C0252D297E522E852D8870382E53FCE3
:1014F0008FC050FE89C09C2C841418F44C0C942C82
:10150000981854FE8BC0B70180E390E00E943A0B1C
:1015100052FE09C088E790E051FE02C088E590E0E5
:10152000B7010E943A0BC91408F484C0CA94D12CA4
:101530009FEFC91AD90ACA0CDB1CF60182916F0110
:10154000B70190E00E943A0BAC14BD04B1F758CF3C
:1015500061917191072E000C880B990B93CFD52CBC
:10156000E894D4F82AE030E0853739F1952D997F59
:10157000D92E8F3601F148F48835A9F0F70186811C
:1015800097812B96E2E10C94E40B803749F0883781
:10159000A9F7D4FE02C06894D2F820E130E00DC073
:1015A0006894D4F8F6CF54FE03C0E92FE660DE2E2F
:1015B00020E132E002C028E030E0F801D7FE0DC0A3
:1015C00061917191819191918F01A5010E946A0BA6
:1015D000C82ECA18E894D7F86BCF6191719190E04A
:1015E00080E0F2CF52FC02C083947ECF8394839438
:1015F0007BCF852D867809F477CFF6CFB70180E2CF
:1016000090E00E943A0B83948414C0F3312C79CF7C
:10161000342C3818841408F474CFF8CF852D8678CC
:1016200009F481CF8BE251FE80E257FC8DE2B701D5
:1016300090E077CFB70180E390E00E943A0B9A9454
:1016400072CF8FEF9FEF9DCFFC01059061507040EE
:101650000110D8F7809590958E0F9F1F0895FC017B
:101660006150704001900110D8F7809590958E0FD1
:101670009F1F08950F931F93CF93DF93182F092F68
:10168000EB018B8181FD09C01FEF0FEF812F902FA0
:10169000DF91CF911F910F91089582FF14C02E8189
:1016A0003F818C819D81281739073CF4E881F981BD
:1016B000CF0101969983888310838E819F81019643
:1016C0009F838E83E3CFE885F985812F0995892B48
:1016D000A1F3DACFFA01AA27283051F1203181F1A4
:1016E000E8946F936E7F6E5F7F4F8F4F9F4FAF4F2A
:1016F000B1E03ED0B4E03CD0670F781F891F9A1F3D
:10170000A11D680F791F8A1F911DA11D6A0F711DF0
:10171000811D911DA11D20D009F468943F912AE0FC
:10172000269F11243019305D3193DEF6CF010895E4
:10173000462F4770405D4193B3E00FD0C9F7F6CF15
:10174000462F4F70405D4A3318F0495D31FD4052DD
:10175000419302D0A9F7EACFB4E0A6959795879573
:1017600077956795BA95C9F7009761057105089552
:101770009B01AC010A2E06945795479537952795FE
:10178000BA95C9F7620F731F841F951FA01D089596
:101790002F923F924F925F926F927F928F929F9281
:1017A000AF92BF92CF92DF92EF92FF920F931F936F
:1017B000CF93DF93CDB7DEB7CA1BDB0B0FB6F89420
:1017C000DEBF0FBECDBF09942A88398848885F8460
:1017D0006E847D848C849B84AA84B984C884DF80D1
:1017E000EE80FD800C811B81AA81B981CE0FD11DB5
:1017F0000FB6F894DEBF0FBECDBFED010895F8948B
:10180000FFCF320357036A0373039903A303AD03A6
:10181000220440044A0455045C04640471048004F6
:0418200084048404B4
:10182400350000000000000000000000000000007F
:1018340000000000000000000000000000000000A4
:101844003400000000000000000000000000000060
:101854000000000000000000000000000000000084
:10186400000000010000000000009A0400000000D5
:10187400000200000000A104000000003A434F4EA3
:101884004649473A2025780A003A454E5F41413A95
:101894002025780A003A454E5F5258414444523A52
:1018A4002025780A003A53455455505F41573A2051
:1018B40025780A003A53455455505F524554523ADC
:1018C4002025780A003A52465F43483A2025780A90
:1018D400003A52465F53455455503A2025780A0041
:1018E4003A5354415455533A2025780A003A4F420A
:1018F40053455256455F54583A2025780A003A52C7
:10190400585F414444525F50303A2025730A003AEC
:1019140052585F414444525F50313A2025730A00C3
:101924003A52585F414444525F50323A2025780A73
:10193400003A52585F414444525F50333A2025786C
:101944000A003A52585F414444525F50343A2025C9
:10195400780A003A52585F414444525F50353A2065
:1019640025780A003A54585F414444523A2025737A
:101974000A003A52585F50575F50303A2025780A8F
:10198400003A52585F50575F50313A2025780A0088
:101994003A52585F50575F50323A2025780A003A3D
:1019A40052585F50575F50333A2025780A003A5214
:1019B400585F50575F50343A2025780A003A5258FD
:1019C4005F50575F50353A2025780A003A46494619
:1019D4004F5F5354415455533A2025780A003A44F2
:1019E400594E50443A2025780A00535543434553F1
:1019F400533A0046494C454C494E453A00524543FA
:101A040045495645443A00414444524553533A00EB
:101A140053544154453A00494E56414C494420538D
:061A24005441544500008E
:00000001FF
