:100000000C9434000C9451000C9451000C94510049
:100010000C9451000C9451000C9451000C9451001C
:100020000C9451000C9451000C9451000C9451000C
:100030000C9451000C9451000C9451000C945100FC
:100040000C9451000C9451000C9453000C945100EA
:100050000C9451000C9451000C9451000C945100DC
:100060000C9451000C94510011241FBECFEFD8E026
:10007000DEBFCDBF11E0A0E0B1E0EEE9F1E002C0EB
:1000800005900D92AC31B107D9F721E0ACE1B1E0B8
:1000900001C01D92A332B207E1F70E94C8000C9480
:1000A000CD000C9400001F920F920FB60F921124F6
:1000B0002F933F934F935F936F937F938F939F9370
:1000C000AF93BF93EF93FF930E94840080911C0134
:1000D0008F5F80931C01803229F495B1892785B9FF
:1000E00010921C017894FF91EF91BF91AF919F9175
:1000F0008F917F916F915F914F913F912F910F90D1
:100100000FBE0F901F9018958091C00087FFFCCF05
:100110008091C60008959091C00095FFFCCF809318
:10012000C6000895EDE1F1E08EE091E093838283D3
:1001300080E091E0918380831092C50087E68093F0
:10014000C400E0ECF0E080818D7F808386E08093C6
:10015000C200E1ECF0E088E18083808180688083E8
:1001600008958AE00C948B000F931F93CF938C011A
:10017000C0E0F801EC0FF11D8081811105C0CF9125
:100180001F910F910C94B1000E948B00CF5FF1CFB3
:0E0190000E949200259A7894FFCFF894FFCF3A
:10019E0000000001000000000000840000000000CC
:0C01AE000002000000008B0000000000B8
:00000001FF
