:100000000C943A000C9457000C9457000C94570031
:100010000C9457000C9457000C9457000C94570004
:100020000C9457000C9457000C9457000C945700F4
:100030000C9457000C9457000C9457000C945700E4
:100040000C9457000C9457000C9457000C945700D4
:100050000C9457000C9457000C9457000C945700C4
:100060000C9457000C9457006364696E6F7073753D
:1000700078585B0011241FBECFEFD8E0DEBFCDBFA4
:1000800011E0A0E0B1E0E6EAFCE002C005900D92CC
:10009000AC34B107D9F721E0ACE4B1E001C01D9266
:1000A000A335B207E1F70E9482020C9451060C942A
:1000B0000000AC0190E0E92FF0E0DA01AE0FBF1FC5
:1000C0002C91E60FF71F211102C0108208952083A2
:1000D0009F5FF1CF1092C50087E68093C400E0ECEB
:1000E000F0E080818D7F808386E08093C20088E18C
:1000F0008093C1000895CF93C82F8A3019F48DE002
:100100000E947B008091C00085FFFCCFC093C60099
:10011000CF9108958091C00087FFFCCF8091C600E9
:1001200008950E94610280E00E94670281E00C94C1
:100130006D0280914C010895EF92FF920F931F93EF
:10014000CF93E82E80E00E94730207E010E0C0E049
:10015000F12CC701002E02C0959587950A94E2F70D
:1001600080FF18C081E00E94790281E00E94730242
:10017000CC0F0E947F028111C16080E00E94730257
:100180000150110930F78C2FCF911F910F91FF90E3
:10019000EF90089580E0E7CFCF9380E00E946D025A
:1001A00080E60E949C0080E00E949C00C82F81E0B5
:1001B0000E946D028C2FCF910895CF9380E00E9412
:1001C0006D028FEF0E949C00C82F81E00E946D029B
:1001D0008C2FCF9108950E94DD00982F907381E0BD
:1001E00009F080E008950E94DD0085FD04C084FDD3
:1001F00004C08FEF089580E0089581E00895EF92A4
:10020000FF920F931F93CF93DF93EC018B017C013F
:10021000E40EF11CCE15DF0539F4DF91CF911F916B
:100220000F91FF90EF90089589910E949C00F80132
:1002300081938F01EFCF0F931F93CF93DF93EC0147
:100240008C01060F111DC017D10729F4DF91CF9142
:100250001F910F91089589910E949C00F4CFCF9334
:10026000DF93C82FD62F80E00E946D028C2F8F71F4
:1002700080620E949C008D2F0E949C0081E0DF9193
:10028000CF910C946D02CF93DF93EC0180E00E943C
:100290006D0281E60E949C0040914C01BE01CE019E
:1002A0000E94FF0081E00E946D0260E487E0DF9120
:1002B000CF910C942F0180E00E946D0282EE0E948B
:1002C0009C0081E00E946D0260E787E00E942F01A0
:1002D00080E00E9467026BE080E00E942F0181E0D5
:1002E0000C94670260934C01682F85E00E942F01F7
:1002F00060E081E10E942F0160914C0182E10E9447
:100300002F0160E083E10E942F0160E084E10E9400
:100310002F0160E085E10E942F0160E086E10E94EC
:100320002F0166E086E00E942F0168E080E00E94D5
:100330002F0163E081E00E942F0163E082E00E94D0
:100340002F016FE484E00E942F0160E08CE10E94A5
:100350002F010C945B0160E787E00E942F016AE0A7
:1003600080E00C942F01CF93DF93EC0180E00E949A
:1003700067020E94AB0180E00E946D0281EE0E9444
:100380009C0081E00E946D0280E00E946D0280EA84
:100390000E949C0060914C01CE010E941B0181E0F3
:1003A0000E946D0281E0DF91CF910C94670280E0A2
:1003B0000E94670268E080E00C942F010F931F9366
:1003C000CF93DF93082FEB01142F80E00E946D0282
:1003D000802F8F710E949C00412FBE01CE010E9490
:1003E000FF0081E0DF91CF911F910F910C946D027E
:1003F000CF93DF930F92CDB7DEB741E0BE016F5FC1
:100400007F4F87E10E94DE01898181700F90DF912B
:10041000CF9108950E94DD0091E086FD05C00E9405
:10042000F80191E0811190E0892F0895CF93DF9337
:100430000F92CDB7DEB741E0BE016F5F7F4F88E01E
:100440000E94DE0189818F700F90DF91CF91089516
:100450000F931F93CF93DF93C82F8B01D42F80E08E
:100460000E946D028C2F8F7180620E949C006D2F04
:10047000C8010E941B0181E0DF91CF911F910F9174
:100480000C946D02CF93DF93EC0180E00E94670231
:1004900045E0BE018BE00E94280281E0DF91CF9110
:1004A0000C946702CF93DF93EC0145E0BC018AE036
:1004B0000E94280245E0BE0180E1DF91CF910C94BB
:1004C0002802229A219A259A239A2498089588230B
:1004D00011F02A9A08952A980895882311F0299AEC
:1004E000089529980895882311F02D9A08952D983C
:1004F0000895882311F02B9A08952B98089583B1BD
:1005000080710895CDB7DEB7CA54D1090FB6F894FB
:10051000DEBF0FBECDBF0E946A008EE091E09093D7
:10052000500180934F0180E091E090934E018093C1
:100530004D0185E0ECE1F1E0DE01AA5BBF4F0190E7
:100540000D928A95E1F785E0E1E2F1E0DE01AF5B33
:10055000BF4F01900D928A95E1F70E94910060E2F1
:1005600082E00E947201CE018A5B9F4F0E9452027C
:10057000CE018F5B9F4F0E9442028E010F5D1F4F85
:1005800086E3E82E81E0F82E9CE3C92E91E0D92E77
:1005900086E291E00E94FB021F930F93FF92EF927D
:1005A0000E9427031F930F93DF92CF920E9427038D
:1005B000C8010E94FB02BE016F5F7F4FC8010E940D
:1005C0005900CE0101960E94B3010FB6F894DEBF28
:1005D0000FBECDBF0E94EB008111FCCF0E94F30043
:1005E0000E9416020E945B018FE39CE90197F1F7DC
:1005F00000C00000CDCF0F931F93CF93DF93E09106
:100600004F01F0915001238110E000E021FD0EC068
:100610000FEF1FEFC801DF91CF911F910F91089548
:100620000995892B11F00FEF1FEFCE01EC01899195
:1006300060914F0170915001DB011896ED91FC9192
:100640008111EECF8AE00995892B21F3E1CFB0E04B
:10065000A0E0EDE2F3E00C942A06AE014B5F5F4FA1
:10066000FA0161917191AF0180914D0190914E011C
:100670000E94AF04E2E00C94460620FD09C0FC0194
:1006800023FD05C022FF02C0738362835183408330
:10069000089533E044FD10C034E046FD0DC0DB0199
:1006A000FC01AA0FBB1FEE1FFF1F1094D1F76A0FAA
:1006B0007B1F8E1F9F1F31E0660F771F881F991FBA
:1006C0003150D1F7620F711D811D911D08950F9357
:1006D0001F93CF93DF938C01C8010E94C505EC01E5
:1006E00097FD08C00E94B105892BB1F7B801CE0172
:1006F0000E94FF05CE01DF91CF911F910F910895C8
:100700008F929F92AF92BF92EF92FF920F931F939F
:10071000CF93DF938C01D62F7A01B22E0E94C505AC
:100720009C0133272B32310529F02D323105A9F4F4
:100730006894B7F8D15061F480E0DF91CF911F91B8
:100740000F91FF90EF90BF90AF909F908F90089582
:10075000C8010E94C50597FDEFCFCB2DCD7F2B2D76
:100760002073F9F48033E9F4AA24AA94AD0E89F039
:10077000C8010E94C50597FD0CC0282F2F7D283584
:1007800061F4C264D25029F0C8010E94C50597FFE8
:1007900008C0812C912C54011BC0B6FE2BC0C26036
:1007A000DA2D812C912C540120ED280F283028F1CE
:1007B000C4FD09C02A3008F1C6FF05C02F7D3FEEF9
:1007C000320F3630C8F0B8010E94FF05C1FFB4CF28
:1007D000C7FF08C0B094A09490948094811C911C91
:1007E000A11CB11C2C2FB501A401C7010E943D031F
:1007F00081E0A3CFC261D4CF27504C2FC501B401F3
:100800000E9449034B015C01C260D15009F3C80149
:100810000E94C50597FFC8CFDBCFA0E2B0E0E3E1BF
:10082000F4E00C9420065C01962E7A01CE0101962C
:100830006C0180E2F60111928A95E9F7F501838057
:10084000890150E040E0B0E020E0A0E061E070E02D
:10085000F80183FC959183FE9191892F8F0191116D
:1008600007C010E000E0C801A096ECE00C943C0644
:100870009E3519F44115510531F1A4171506ECF414
:100880009D3549F19D32C9F4222309F1E82FE695FF
:10089000E695E695EC0DFD2DF11D982F97709B01C7
:1008A00001C0220F9A95EAF79081292B20838B179C
:1008B00081F08B1730F48F5FE9CF2111E7CFB92F8B
:1008C000E5CF8150E3CFA1E04F5F5F4FC1CF21E083
:1008D000FBCF20E0F9CF222319F08E8180628E8336
:1008E000AA2361F0F6019E012F5D3F4FDF018D913C
:1008F00080958083FD01A217B307C1F788248394F4
:10090000C5010E94C50597FD16C0E82FE695E6953E
:10091000E695EC0DFD2DF11D208130E0AC01477016
:10092000552702C0359527954A95E2F720FD06C068
:10093000B5010E94FF05882059F093CFE114F1041E
:1009400019F0F70181937F019A94812C9110D8CFEF
:10095000E114F10409F487CFF701108284CFB0E0ED
:10096000A0E0E5EBF4E00C941E065C01EB01742EB4
:10097000652EFC0117821682C12CF501F380FE0161
:10098000F3FC8591F3FE8191182FEF018823E9F0A4
:1009900090E00E94B105892B21F0C5010E946703F8
:1009A000ECCF153241F4FE01F3FC1591F3FE1191E9
:1009B000EF01153269F4C5010E94C50597FD8CC091
:1009C0001817D9F2B5010E94FF058C2D90E088C060
:1009D00000E01A3231F4F3FC1591F3FE1191EF01AE
:1009E00001E0D12C20ED210F2A3048F101FF37C062
:1009F000DD2059F31836B1F11C3609F43DC011233E
:100A000021F3612F70E088E690E00E94BA05892BFF
:100A1000E1F2F12CE12C00FD06C0E72DF62DE1906E
:100A2000F1907E2E6F2E1E3679F5F50146815781A5
:100A300070E060E0202FC7010E943D039ECF02605E
:100A40006D2D70E090E080E040E20E944903D62ED8
:100A5000FE01F3FC1591F3FE1191EF01C3CFDD24EC
:100A6000DA94C8CFFE01F3FC1591F3FE1191EF016A
:100A7000183609F0C4CF08600460FE01F3FC15913C
:100A8000F3FE1191EF01BBCF1336B1F401FD02C0AB
:100A9000DD24D394C5010E94C50597FD1DC0E11456
:100AA000F10419F0F70181937F01DA94D110F2CFAC
:100AB00000FD63CFC39461CF1B35B9F49E01A7013C
:100AC0006D2DC5010E940D04EC01892B89F7F501FC
:100AD0008381807309F479CF8FEF9FEFC11075CFB9
:100AE000CDB7DEB7EEE00C943A06C5010E9467036D
:100AF00097FDF2CF1F3699F130F4143641F01936D4
:100B000039F0006405C01337A9F01537D1F700623A
:100B1000202FA7016D2DC5010E9480038111C8CF30
:100B2000D6CFE114F10419F0F70181927F01DA9434
:100B3000DD2071F0C5010E94C5054C0197FD08C07C
:100B40000E94B105892B69F3B501C4010E94FF051C
:100B5000E114F10409F4ACCFF7011082A9CF0061D0
:100B6000D7CF91110C941706803219F08950855017
:100B7000C8F70895FC010590061621F00020D9F76A
:100B8000C00108953197CF010895CF93DF93EC0111
:100B90002B8120FF2FC026FF0CC02F7B2B838E8143
:100BA0009F8101969F838E838A8190E0DF91CF9110
:100BB000089522FF14C0E881F9818081082E000C7D
:100BC000990B20620097A9F03196F983E8832E8172
:100BD0003F812F5F3F4F3F832E839927E7CFEA85E1
:100BE000FB85099597FFF3CF2B81019631F080E2C9
:100BF000282B2B838FEF9FEFD9CF80E1F9CFFB011B
:100C0000238120FF11C026FD0FC08F3F980771F090
:100C100082832F7D206423832681378121503109EF
:100C200037832683992708958FEF9FEF089599279B
:100C3000882708952F923F924F925F926F927F92F2
:100C40008F929F92AF92BF92CF92DF92EF92FF92DC
:100C50000F931F93CF93DF93CDB7DEB7CA1BDB0B88
:100C60000FB6F894DEBF0FBECDBF09942A8839882D
:100C700048885F846E847D848C849B84AA84B98434
:100C8000C884DF80EE80FD800C811B81AA81B98140
:100C9000CE0FD11D0FB6F894DEBF0FBECDBFED0154
:060CA0000895F894FFCF57
:100CA600000000010000000000008A0000000000B3
:100CB6000002000000007B0000000000E7E7E7E715
:100CC600E7D7D7D7D7D7656E74657220736F6D6512
:100CD6007468696E67002563252A63002533305BD7
:0C0CE600302D39612D7A412D5A205D001F
:00000001FF
