:100000000C9434000C9451000C9451000C94510049
:100010000C9451000C9451000C9451000C9451001C
:100020000C9451000C9451000C9451000C9451000C
:100030000C9451000C9451000C9451000C945100FC
:100040000C9451000C9451000C9460000C945100DD
:100050000C9451000C9451000C9451000C945100DC
:100060000C9451000C94510011241FBECFEFD8E026
:10007000DEBFCDBF11E0A0E0B1E0E6EDF1E002C0EF
:1000800005900D92A432B107D9F721E0A4E2B1E0C6
:1000900001C01D92AB34B207E1F70E94E4000C945A
:1000A000E9000C940000DB01FC01895F21919D9126
:1000B000291304C08E13FACF81E0089580E00895DB
:1000C0001F920F920FB60F9211242F933F934F93CD
:1000D0005F936F937F938F939F93AF93BF93CF93D0
:1000E000EF93FF930E94A000C0912401EC2FF0E059
:1000F000EB5DFE4F8083CF5FC0932401C03269F473
:1001000065E271E080E091E00E945300882319F0DD
:1001100085B1C827C5B9109224017894FF91EF9159
:10012000CF91BF91AF919F918F917F916F915F918F
:100130004F913F912F910F900FBE0F901F901895E8
:100140008091C00087FFFCCF8091C60008959091F8
:10015000C00095FFFCCF8093C6000895E5E4F1E070
:1001600085E191E09383828387E091E091838083AE
:100170001092C50087E68093C400E0ECF0E0808137
:100180008D7F808386E08093C200E1ECF0E088E11F
:10019000808380818068808308958AE00C94A70022
:1001A0000F931F93CF938C01C0E0F801EC0FF11D6A
:1001B0008081811105C0CF911F910F910C94CD00CA
:1001C0000E94A700CF5FF1CF0E94AE00259A7894DD
:0601D000FFCFF894FFCF01
:1001D600737563636573730000000100000000001F
:1001E60000A00000000000000200000000A70000C0
:0401F6000000000005
:00000001FF
