:100000000C9434000C9451000C9451000C94510049
:100010000C9451000C9451000C9451000C9451001C
:100020000C9451000C9451000C9451000C9451000C
:100030000C9451000C9451000C9451000C945100FC
:100040000C9451000C9451000C9451000C945100EC
:100050000C9451000C9451000C9451000C945100DC
:100060000C9451000C94510011241FBECFEFD8E026
:10007000DEBFCDBF11E0A0E0B1E0E0E7FBE002C0F1
:1000800005900D92A436B107D9F721E0A4E6B1E0BE
:1000900001C01D92AE3CB207E1F70E94A4020C948D
:1000A000B6050C9400008091C00087FFFCCF8091C2
:1000B000C60008959091C00095FFFCCF8093C600C4
:1000C0000895E8ECF1E088E391E0938382838AE28B
:1000D00091E0918380831092C50087E68093C400ED
:1000E000E0ECF0E080818D7F808386E08093C20029
:1000F000E1ECF0E088E1808380818068808308956E
:100100008AE00C945A000F931F93CF938C01C0E0A8
:10011000F801EC0FF11D8081811105C0CF911F9175
:100120000F910C9480000E945A00CF5FF1CF0E9483
:10013000830280E00E94890281E00C948F0280910A
:10014000C7010895EF92FF920F931F93CF93E82E6C
:1001500080E00E94950207E010E0C0E0F12CC701AA
:10016000002E02C0959587950A94E2F780FF18C08B
:1001700081E00E949B0281E00E949502CC0F0E94C8
:10018000A1028111C16080E00E9495020150110915
:1001900030F78C2FCF911F910F91FF90EF90089522
:1001A00080E0E7CFCF9380E00E948F0280E60E943C
:1001B000A20080E00E94A200C82F81E00E948F026E
:1001C0008C2FCF910895CF9380E00E948F028FEF04
:1001D0000E94A200C82F81E00E948F028C2FCF9135
:1001E00008950E94E300982F907381E009F080E069
:1001F00008950E94E30085FD04C084FD04C08FEFD4
:10020000089580E0089581E00895EF92FF920F93A2
:100210001F93CF93DF93EC018B017C01E40EF11C63
:10022000CE15DF0539F4DF91CF911F910F91FF902B
:10023000EF90089589910E94A200F80181938F01A7
:10024000EFCF0F931F93CF93DF93EC018C01060F39
:10025000111DC017D10729F4DF91CF911F910F9184
:10026000089589910E94A200F4CFCF93DF93C82F05
:10027000D62F80E00E948F028C2F8F7180620E94A7
:10028000A2008D2F0E94A20081E0DF91CF910C94FB
:100290008F02CF93DF93EC0180E00E948F0281E612
:1002A0000E94A2004091C701BE01CE010E9405013B
:1002B00081E00E948F0260E487E0DF91CF910C948F
:1002C000350180E00E948F0282EE0E94A20081E050
:1002D0000E948F0260E787E00E94350180E00E9463
:1002E00089026BE080E00E94350181E00C94890274
:1002F0006093C701682F85E00E94350160E081E1CD
:100300000E9435016091C70182E10E94350160E0E1
:1003100083E10E94350160E084E10E94350160E0E4
:1003200085E10E94350160E086E10E94350166E0CA
:1003300086E00E94350168E080E00E94350163E0BC
:1003400081E00E94350163E082E00E9435016FE4A4
:1003500084E00E94350160E08CE10E9435010C943C
:10036000610160E787E00E9435016AE080E00C945B
:100370003501CF93DF93EC0180E00E9489020E9457
:10038000B10180E00E948F0281EE0E94A20081E014
:100390000E948F0280E00E948F0280EA0E94A200E9
:1003A0006091C701CE010E94210181E00E948F026D
:1003B00081E0DF91CF910C94890280E00E94890254
:1003C00068E080E00C9435010F931F93CF93DF9387
:1003D000082FEB01142F80E00E948F02802F8F7175
:1003E0000E94A200412FBE01CE010E94050181E0C2
:1003F000DF91CF911F910F910C948F02CF93DF93D8
:100400000F92CDB7DEB741E0BE016F5F7F4F87E14E
:100410000E94E401898181700F90DF91CF9108954E
:10042000CF930E94E300C82F1F928F938FE491E037
:100430009F938F930E94CE020F900F900F900F907A
:10044000C6FD14C00E94FE01C1E08111C0E01F92F0
:10045000CF938AE591E09F938F930E94CE020F90F5
:100460000F900F900F908C2FCF910895C1E0FBCF8C
:10047000CF93DF930F92CDB7DEB741E0BE016F5F40
:100480007F4F88E00E94E40189818F700F90DF9197
:10049000CF9108950F931F93CF93DF93C82F8B01B4
:1004A000D42F80E00E948F028C2F8F7180620E9477
:1004B000A2006D2FC8010E94210181E0DF91CF9140
:1004C0001F910F910C948F02CF93DF93EC0180E08A
:1004D0000E94890245E0BE018BE00E944A0281E051
:1004E000DF91CF910C948902CF93DF93EC0145E02B
:1004F000BC018AE00E944A0245E0BE0180E1DF9132
:10050000CF910C944A02229A219A259A239A2498F0
:100510000895882311F02A9A08952A980895882327
:1005200011F0299A089529980895882311F02D9A99
:1005300008952D980895882311F02B9A08952B98EB
:10054000089583B1807108950E9461000E94970010
:1005500060E282E00E94780180E291E00E947402F1
:1005600085E291E00E9464027894559AC1E08091FE
:100570006501811104C00E946101C09365010E9460
:100580001002882321F086E491E00E94E4028FE3C8
:100590009CE90197F1F700C00000E9CFB0E0A0E0CE
:1005A000E4EDF2E00C948F05AE014B5F5F4FFA0172
:1005B00061917191AF018091CA019091CB010E942C
:1005C0001003E2E00C94AB050F931F93CF93DF93DE
:1005D000E091CA01F091CB01238110E000E021FD00
:1005E0000EC00FEF1FEFC801DF91CF911F910F9148
:1005F00008950995892B11F00FEF1FEFCE01EC0143
:1006000089916091CA017091CB01DB011896ED913F
:10061000FC918111EECF8AE00995892B21F3E1CF7E
:10062000ABE0B0E0E6E1F3E00C947F057C013B0138
:100630008A01FC0117821682838181FFB9C19AE089
:10064000292ECE0101965C01F7019381F30193FD00
:10065000859193FF81913F01882309F446C185323A
:1006600039F493FD859193FF81913F01853229F4FF
:10067000B70190E00E94F104E7CF912C412C512C5E
:10068000FFE1F51538F08B3209F188F4803201F181
:10069000833221F157FC3AC020ED280F2A3040F573
:1006A00056FE1FC0929C200D1124922E06C08D3242
:1006B00091F0803379F7689450F8F30193FD8591B8
:1006C00093FF81913F018111DBCF20C0689451F8E5
:1006D000689452F8F2CF689453F8EFCF689454F8C6
:1006E000ECCF429C200D1124422E689455F8E5CFA2
:1006F0008E3229F456FCF9C0689456F8DECF8C3659
:1007000019F4689457F8D9CF8836B9F2982F9F7D9D
:1007100095549330C0F08336A1F18337C1F183350E
:1007200009F05BC0F801C190D1908F01692D70E094
:1007300056FC02C06FEF7FEFC6010E94DB044C0144
:10074000689457F80AC00C5F1F4F2FE32983882451
:100750008394912C6501E89457F853FC04C0481425
:10076000190409F018F5342C8114910431F5332063
:1007700009F46ACFB70180E290E00E94F1043A9454
:10078000F6CFF801808189830E5F1F4FE0CFF8011B
:10079000C190D1908F01692D70E056FC02C06FEFBF
:1007A0007FEFC6010E94E6044C01D5CFB70180E27D
:1007B00090E00E94F1044A94D2CFF60157FC859153
:1007C00057FE81916F01B70190E00E94F104311052
:1007D0003A94F1E08F1A9108C7CF843619F0893620
:1007E00009F074C0F80157FE6AC06191719181915E
:1007F00091918F01252D2F76D22E97FF09C09095CC
:100800008095709561957F4F8F4F9F4F6894D7F873
:100810002AE030E0A5010E942105C82ECA188C2CC0
:100820005D2CD6FE0CC0E89450F8C91440F4D4FEF8
:1008300005C0D2FC03C0FD2DFE7E5F2E892C54FE28
:100840008FC0FE01EC0DF11D8081803309F081C065
:10085000252D297E522E852D8870382E53FC8FC071
:1008600050FE89C09C2C841418F44C0C942C9818BD
:1008700054FE8BC0B70180E390E00E94F10452FE69
:1008800009C088E790E051FE02C088E590E0B7011A
:100890000E94F104C91408F484C0CA94D12C9FEFBB
:1008A000C91AD90ACA0CDB1CF60182916F01B70183
:1008B00090E00E94F104AC14BD04B1F758CF6191EF
:1008C0007191072E000C880B990B93CFD52CE894CF
:1008D000D4F82AE030E0853739F1952D997FD92E6B
:1008E0008F3601F148F48835A9F0F70186819781A8
:1008F0002B96E2E10C949B05803749F08837A9F7E5
:10090000D4FE02C06894D2F820E130E00DC06894B3
:10091000D4F8F6CF54FE03C0E92FE660DE2E20E1C6
:1009200032E002C028E030E0F801D7FE0DC061914E
:100930007191819191918F01A5010E942105C82E8D
:10094000CA18E894D7F86BCF6191719190E080E07C
:10095000F2CF52FC02C083947ECF839483947BCFEA
:10096000852D867809F477CFF6CFB70180E290E045
:100970000E94F10483948414C0F3312C79CF342C79
:100980003818841408F474CFF8CF852D867809F4CC
:1009900081CF8BE251FE80E257FC8DE2B70190E0FF
:1009A00077CFB70180E390E00E94F1049A9472CF70
:1009B0008FEF9FEF9DCFFC010590615070400110BB
:1009C000D8F7809590958E0F9F1F0895FC01615078
:1009D000704001900110D8F7809590958E0F9F1F61
:1009E00008950F931F93CF93DF93182F092FEB01D7
:1009F0008B8181FD09C01FEF0FEF812F902FDF91B9
:100A0000CF911F910F91089582FF14C02E813F81D5
:100A10008C819D81281739073CF4E881F981CF0149
:100A200001969983888310838E819F8101969F838D
:100A30008E83E3CFE885F985812F0995892BA1F372
:100A4000DACFFA01AA27283051F1203181F1E89458
:100A50006F936E7F6E5F7F4F8F4F9F4FAF4FB1E0B1
:100A60003ED0B4E03CD0670F781F891F9A1FA11DAC
:100A7000680F791F8A1F911DA11D6A0F711D811DAD
:100A8000911DA11D20D009F468943F912AE0269F72
:100A900011243019305D3193DEF6CF010895462FD1
:100AA0004770405D4193B3E00FD0C9F7F6CF462FB2
:100AB0004F70405D4A3318F0495D31FD405241931B
:100AC00002D0A9F7EACFB4E0A695979587957795D8
:100AD0006795BA95C9F700976105710508959B015F
:100AE000AC010A2E06945795479537952795BA95E8
:100AF000C9F7620F731F841F951FA01D08952F92C1
:100B00003F924F925F926F927F928F929F92AF929D
:100B1000BF92CF92DF92EF92FF920F931F93CF93EA
:100B2000DF93CDB7DEB7CA1BDB0B0FB6F894DEBF81
:100B30000FBECDBF09942A88398848885F846E84A7
:100B40007D848C849B84AA84B984C884DF80EE80F1
:100B5000FD800C811B81AA81B981CE0FD11D0FB6FA
:100B6000F894DEBF0FBECDBFED010895F894FFCF1E
:100B70003C3C3C737563636573733E3E3E0000000E
:100B80000000000000000000000000000000000065
:100B900021212121213F3F3F3F3F00000001000074
:100BA00000000000530000000000000200000000F0
:100BB0005A00000000005245434549564544005341
:100BC00054415455533A2025780056414C3A20253B
:040BD000780A00009F
:00000001FF
