:100000000C9435000C945D000C945D000C945D0024
:100010000C945D000C945D000C945D000C945D00EC
:100020000C945D000C945D000C945D000C945D00DC
:100030000C945D000C945D000C945D000C945D00CC
:100040000C945D000C945D000C945F000C945D00BA
:100050000C945D000C945D000C945D000C945D00AC
:100060000C945D000C945D00A80811241FBECFEF16
:10007000D8E0DEBFCDBF12E0A0E0B1E0EAE5F7E1F5
:1000800002C005900D92A03EB107D9F723E0A0EE83
:10009000B2E001C01D92AD36B207E1F710E0C5E352
:1000A000D0E004C02197FE010E94AC08C433D10700
:1000B000C9F70E9476080C949A0B0C9400001F92CA
:1000C0000F920FB60F9211242F933F934F935F938C
:1000D0006F937F938F939F93AF93BF93EF93FF9310
:1000E0000E9435049091E002E92FF0E0EF5FFC4FB1
:1000F00080839F5F9093E002903211F08D3071F415
:1001000090910103911102C08D3041F01092E002F4
:1001100061E073E081E293E00E94C3037894FF9171
:10012000EF91BF91AF919F918F917F916F915F916F
:100130004F913F912F910F900FBE0F901F901895E8
:10014000EF92FF920F931F93CF93DF9300D000D0D5
:1001500000D00F92CDB7DEB78C011F8221E0AE0137
:10016000495F5F4F60E00E940E068F811F928F9360
:100170008CE591E09F938F930E94B2081F8221E04B
:10018000AE01495F5F4F61E0C8010E940E068F819A
:100190001F928F9389E691E09F938F930E94B208FC
:1001A0001F8221E0AE01495F5F4F62E0C8010E94FB
:1001B0000E068F811F928F9385E791E09F938F9317
:1001C0000E94B2081F8221E0AE01495F5F4F63E0E9
:1001D000C8010E940E068F811F928F9385E891E0DF
:1001E0009F938F930E94B2081F8221E0AE01495F66
:1001F0005F4F64E0C8010E940E068F811F928F93AB
:1002000084E991E09F938F930E94B2081F8221E0BE
:10021000AE01495F5F4F65E0C8010E940E068F8105
:100220001F928F9385EA91E09F938F930E94B2086B
:100230001F8221E0AE01495F5F4F66E0C8010E9466
:100240000E068F811F928F9381EB91E09F938F9386
:100250000E94B2081F8221E0AE01495F5F4F67E054
:10026000C8010E940E068F811F928F9380EC91E04F
:100270009F938F930E94B2081F820FB6F894DEBF3F
:100280000FBECDBF21E0AE01495F5F4F68E0C801FE
:100290000E940E068F811F928F938DEC91E09F93A9
:1002A0008F930E94B208FE0131967F0186E0119281
:1002B0008A95E9F725E0A7016AE0C8010E940E06C9
:1002C000FF92EF928EED91E09F938F930E94B20880
:1002D00025E0A7016BE0C8010E940E06FF92EF9295
:1002E0008FEE91E09F938F930E94B2081F8221E0CE
:1002F000AE01495F5F4F6CE0C8010E940E068F811E
:100300001F928F9380E092E09F938F930E94B20898
:100310001F8221E0AE01495F5F4F6DE0C8010E947E
:100320000E068F811F928F9381E192E09F938F93AE
:100330000E94B2081F8221E0AE01495F5F4F6EE06C
:10034000C8010E940E068F811F928F9382E292E075
:100350009F938F930E94B2081F8221E0AE01495FF4
:100360005F4F6FE0C8010E940E068F811F928F932E
:1003700083E392E09F938F930E94B20825E0A70148
:1003800060E1C8010E940E06FF92EF9284E492E0C1
:100390009F938F930E94B2081F820FB6F894DEBF1E
:1003A0000FBECDBF21E0AE01495F5F4F61E1C801E3
:1003B0000E940E068F811F928F9382E592E09F9399
:1003C0008F930E94B2081F8221E0AE01495F5F4F08
:1003D00062E1C8010E940E068F811F928F9381E611
:1003E00092E09F938F930E94B2081F8221E0AE019A
:1003F000495F5F4F63E1C8010E940E068F811F9223
:100400008F9380E792E09F938F930E94B2081F82A0
:1004100021E0AE01495F5F4F64E1C8010E940E0612
:100420008F811F928F938FE792E09F938F930E940B
:10043000B2081F8221E0AE01495F5F4F65E1C8014C
:100440000E940E068F811F928F938EE892E09F93F9
:100450008F930E94B2081F8221E0AE01495F5F4F77
:1004600066E1C8010E940E068F811F928F938DE96D
:1004700092E09F938F930E94B2081F8221E0AE0109
:10048000495F5F4F67E1C8010E940E068F811F928E
:100490008F938CEA92E09F938F930E94B2081F8201
:1004A00021E0AE01495F5F4F6CE1C8010E940E067A
:1004B0008F811F928F938EEB92E09F938F930E9478
:1004C000B2080FB6F894DEBF0FBECDBF27960FB6A9
:1004D000F894DEBF0FBECDBFDF91CF911F910F917A
:1004E000FF90EF900895DC01FB018C9180831196C1
:1004F0008C911197818312968C91828308950F932A
:100500001F93CF93DF93EC018B016BE473E00796AD
:100510000E947302B801655E7F4FCE010E94AD0755
:1005200061E071E0CE010C960E94730260E071E020
:10053000CE010E94D0056BE473E0CE01DF91CF9134
:100540001F910F910C94AD07DB01FC01835F21919A
:100550009D91291304C08E13FACF81E0089580E0A5
:1005600008950F931F93CF93DF938C0181E10E9435
:100570003C0482E00E943C04E801005F1F4F899127
:100580000E943C04C017D107D1F7DF91CF911F9192
:100590000F9108950F931F93CF93DF938C018FE1F9
:1005A0000E943C0484E00E943C04E801025E1F4F6C
:1005B00089910E943C04C017D107D1F7DF91CF91F8
:1005C0001F910F9108950F931F93CF93DF938C0189
:1005D0008FE10E943C0480E00E943C04E801025E3E
:1005E0001F4F89910E943C04C017D107D1F7DF91BA
:1005F000CF911F910F910895CF93DF93EC0184E089
:100600000E943C0483E00E943C0488810E943C04D8
:1006100089810E943C048A81DF91CF910C943C0433
:100620000F931F93CF93DF938C01EB01E881E0538D
:10063000E73010F5F0E0E456F44F0C94AC08219646
:10064000CE010E94E302C8010E940A058823A1F09E
:10065000BE01C801DF91CF911F910F910C947F02D1
:100660008BB190E289278BB9C8010E940A05BE01AF
:100670006F5F7F4F8111EDCFDF91CF911F910F9170
:1006800008950E940A0561E0811160E0C8010E949E
:100690000D05EACF8BB190E289278BB96EE473E048
:1006A000C80107960E947302BE016F5F7F4FC801A9
:1006B0000E94AD0761E271E0C8010C960E947302CE
:1006C00060E271E0C8010E94D0056EE473E0C801E9
:1006D000DF91CF911F910F910C94AD07CB01019643
:1006E000DF91CF911F910F910C94FC02CB010196E9
:1006F000DF91CF911F910F910C94B1022196CE0101
:100700000E94CA02A0CFEF92FF920F931F93CF9344
:10071000C62F0E942E067C01C250C430E0F4C2E015
:1007200084E00E943C0481E00E943C040C2F10E015
:100730000E5F1F4FF701EC0FF11D80810E943C04FA
:10074000CF5FC0171106B1F3ACF3CF911F910F919A
:10075000FF90EF900895C0E0E3CFCF93DF930E9426
:100760006706EC0184E00E943C0481E00E943C04A6
:1007700088810E943C0489810E943C048A81DF9127
:10078000CF910C943C040F931F93CF93DF938C0174
:10079000EB01E881EA3008F057C0F0E0ED55F44F86
:1007A0000C94AC086F5F7F4F0E94D005C8010E9477
:1007B0001E058111FBCFDF91CF911F910F910895FD
:1007C0006E5F7F4FDF91CF911F910F910C94AD071A
:1007D0006E5F7F4F4981DF91CF911F910F910C94F4
:1007E0005807DF91CF911F910F910C94AD03698150
:1007F000DF91CF911F910F910C9483030E940A0502
:1008000061E0811160E0C801DF91CF911F910F91EC
:100810000C940D058AEC92E09F938F930E94B2088E
:10082000C8010E940A05805D0E943C040F900F9051
:100830008AE0DF91CF911F910F910C943C048BB112
:1008400090E289278BB9B7CF81ED92E00E94C8086A
:1008500081E20E943C048E01005E1F4F89910E943C
:100860003C04C017D107D1F7E3CF8091C00087FFC8
:10087000FCCF8091C60008959091C00095FFFCCFF9
:100880008093C6000895E7E6F3E08EE491E0938359
:10089000828380E491E0918380831092C50087E693
:1008A0008093C400E0ECF0E080818D7F808386E05F
:1008B0008093C200E1ECF0E088E180838081806871
:1008C000808308958AE00C943C040F931F93CF9388
:1008D0008C01C0E0F801EC0FF11D8081811105C091
:1008E000CF911F910F910C9462040E943C04CF5F42
:1008F000F1CFCF93DF93C82FD62F80E00E94350829
:100900008C2F8F7180620E944A088D2F0E944A08A6
:1009100081E0DF91CF910C943508CF93DF93FC01F8
:10092000108281E0818390E2928393E0938314822A
:10093000858388E08683DF01179685E0ED011992B3
:100940008A95E9F781E28087818715969EE1ED011E
:1009500019929A95E9F799E7948720E32587968776
:10096000828B838B97E3968B878B808F98E3938F13
:10097000848F858F99E390A381A382A391E495A3AB
:1009800086A387A3DF91CF9108950E94290880E074
:100990000E942F0881E00C94350880E00C947904C3
:1009A00081E00C94790482E00C94790483E00C9447
:1009B000790484E00C94790485E00C94790486E051
:1009C0000C94790487E00C94790488E00C94790401
:1009D000423089F030F4442359F082E1413049F04B
:1009E0000895443061F048F086E1453011F00895F3
:1009F00081E10C94790483E1FCCF84E1FACF85E1B5
:100A0000F8CF87E10C9479048CE10C947904FC0113
:100A100080810895FC0181810895FC01618308951E
:100A2000CF9380E00E9435088FEF0E944A08C82FBC
:100A300081E00E9435088C2FCF9108950E94100507
:100A4000982F907381E009F080E00895CF93DF93B1
:100A5000EC010E94100585FF04C08C81DF91CF91CD
:100A6000089584FF02C08D81F9CF8FEFF7CFCF9328
:100A700080E00E94350880E60E944A0880E00E94DB
:100A80004A08C82F81E00E9435088C2FCF91089525
:100A9000CF93DF93EC0181E0888380E00E943508EA
:100AA00082EE0E944A0881E00E94350860E787E0F4
:100AB0000E94790480E00E942F086E81636080E0CC
:100AC0000E94790481E0DF91CF910C942F08CF939D
:100AD000DF93EC01188260E787E00E9479046E8161
:100AE000626080E0DF91CF910C947904CF93DF9323
:100AF000EC01188280E00E942F086E8180E0DF9177
:100B0000CF910C947904EF92FF920F931F93CF93A0
:100B1000DF93EB018A017B01E20EF11CCE15DF05AC
:100B200039F089910E944A08F80181938F01F6CF2C
:100B3000DF91CF911F910F91FF90EF9008950F9348
:100B40001F93CF93DF93EC018B0180E00E94350867
:100B500081E60E944A082A81A801B801CE010E94BC
:100B6000830581E00E94350860E487E0DF91CF9142
:100B70001F910F910C9479040F931F93CF93DF93E0
:100B8000EB018B01040F111DC017D10721F08991D2
:100B90000E944A08F9CFDF91CF911F910F910895DC
:100BA0000F931F93CF93DF93EC018B0180E00E94A2
:100BB0002F08CE010E94670580E00E94350881EE73
:100BC0000E944A0881E00E94350880E00E943508B2
:100BD00080EA0E944A084A81B801CE010E94BC0501
:100BE00081E00E94350881E0DF91CF911F910F9144
:100BF0000C942F08CF93DF93C62FD42F80E00E9450
:100C000035088C2F8F7180620E944A088D2F0E94B8
:100C10004A0881E0DF91CF910C943508EF92FF9262
:100C20000F931F93CF93DF938C01E62EEA01F22EF0
:100C300080E00E9435088E2D8F710E944A082F2D6A
:100C4000AE01BE01C8010E94830581E0DF91CF9112
:100C50001F910F91FF90EF900C9435081092620352
:100C6000109263031092640310926503109266035E
:100C70006230F1F038F4662379F06130A1F082E659
:100C800093E008956430F1F0C0F06530C1F721E0E1
:100C900046E653E06FE004C025E042E653E06AE038
:100CA0000E940E06ECCF25E042E653E06BE0F8CF61
:100CB00021E046E653E06CE0F3CF21E046E653E066
:100CC0006DE0EECF21E046E653E06EE0E9CF25E0AF
:100CD0004DE553E060E10E940E068DE593E0089536
:100CE00021E04CE553E060E00E940E0680915C0339
:100CF000089521E04BE553E061E00E940E068091EB
:100D00005B03089521E04AE553E062E00E940E068D
:100D100080915A03089521E049E553E063E00E9481
:100D20000E0680915903089521E048E553E064E000
:100D30000E940E0680915803089521E047E553E094
:100D400065E00E940E0680915703089521E046E574
:100D500053E066E00E940E0680915603089521E05C
:100D600045E553E067E00E940E0680915503089523
:100D700021E044E553E068E00E940E0680915403B0
:100D800008956230F1F038F4662379F06130A1F013
:100D90008091530308956430F1F0C0F06530C1F7DD
:100DA00021E043E553E066E104C021E043E553E080
:100DB00061E10E940E06ECCF21E043E553E062E1E1
:100DC000F8CF21E043E553E063E1F3CF21E043E5D1
:100DD00053E064E1EECF21E043E553E065E1E9CF84
:100DE00021E042E553E067E10E940E068091520344
:100DF000089521E041E553E06CE10E940E068091E8
:100E000051030895CF93DF930F92CDB7DEB721E062
:100E1000AE014F5F5F4F67E10E940E0689818170CE
:100E20000F90DF91CF910895CF93DF93EC010E9453
:100E3000100591E086FD06C0CE010E94020791E0F8
:100E4000811190E0892FDF91CF910895CF93DF93A7
:100E50000F92CDB7DEB721E0AE014F5F5F4F68E084
:100E60000E940E0689818F700F90DF91CF910895B7
:100E7000EF92FF920F931F93CF93DF938C01C62FB6
:100E80007A01D22F80E00E9435088C2F8F7180620A
:100E90000E944A084D2FB701C8010E94BC0581E09D
:100EA000DF91CF911F910F91FF90EF900C94350837
:100EB000FF920F931F93CF93DF93EC01F62E072F32
:100EC000142F80E00E942F08123091F1D0F41123EA
:100ED00011F1113041F181E00E942F08EF2DF02F28
:100EE000DE0185E0189FA00DB11D11241C968B8199
:100EF0008E0F9F2F911DE817F90749F121912D932E
:100F0000FACF1430F9F0C8F0153029F721E04F2D51
:100F1000502F6FE004C02B814F2D502F6AE0CE017F
:100F20000E943807D8CF2B814F2D502F6BE0F7CF81
:100F300021E04F2D502F6CE0F2CF21E04F2D502FAC
:100F40006DE0EDCF21E04F2D502F6EE0E8CFDF9127
:100F5000CF911F910F91FF9008950F931F93CF93FF
:100F6000DF93EC018B01AC01445F5F4F2B816AE0A2
:100F70000E9438072B81A80160E1CE010E9438074A
:100F8000F801DE0117968B81800F912F911DE817D4
:100F9000F90719F021912D93FACFDF91CF911F918D
:100FA0000F910895EF92FF921F93CF93DF93EC017F
:100FB00080E28A8362E085E00E94790461E083E058
:100FC0000E9479047E018CE0E80EF11C10E0412FB4
:100FD000B701CE010E94580785E0E80EF11C1F5FA3
:100FE0001630A9F7BE01695F7F4FCE010E94AD07A1
:100FF0006A8181E10E9479046A8182E10E94790418
:101000006A8183E10E9479046A8184E10E94790403
:101010006A8185E10E9479046A8186E10E947904EF
:1010200066E086E00E9479046E8180E00E94790487
:1010300060E081E00E9479046FE382E00E9479041D
:1010400060E08CE1DF91CF911F91FF90EF900C94C5
:101050007904229A219A259A239A2498089588231C
:1010600011F02A9A08952A980895882311F0299A50
:10107000089529980895882311F02D9A08952D98A0
:101080000895882311F02B9A08952B98089583B121
:1010900080710895EF92FF920F931F93CF93E82EE4
:1010A00080E00E943B0807E010E0C0E0F12CC7019F
:1010B000002E02C0959587950A94E2F780FF12C032
:1010C0002B9A2D9ACC0F1C99C16080E00E943B089E
:1010D0000150110960F78C2FCF911F910F91FF9054
:1010E000EF90089580E00E944108EBCF0E944304F6
:1010F00081E293E00E94C50481E293E00E94D2075E
:1011000081E293E00E944805789481E293E00E9496
:101110000705811104C081E293E00E94480581E245
:1011200093E00E941407882361F061EE72E081E28F
:1011300093E00E949F0561EE72E081E293E00E94DD
:1011400010038FE39CE90197F1F700C00000DDCFA9
:1011500081E293E00C948D04EE0FFF1F0590F49153
:10116000E02D0994B0E0A0E0E8EBF8E00C94730BFC
:10117000AE014B5F5F4FFA0161917191AF018091B8
:10118000690390916A030E94F408E2E00C948F0BCB
:101190000F931F93CF93DF93E0916903F0916A035C
:1011A000238110E000E021FD0EC00FEF1FEFC8010A
:1011B000DF91CF911F910F9108950995892B11F01F
:1011C0000FEF1FEFCE01EC018991609169037091DF
:1011D0006A03DB011896ED91FC918111EECF8AE054
:1011E0000995892B21F3E1CFABE0B0E0EAEFF8E01D
:1011F0000C94630B7C013B018A01FC01178216826F
:10120000838181FFB9C19AE0292ECE0101965C014C
:10121000F7019381F30193FD859193FF81913F0144
:10122000882309F446C1853239F493FD859193FFF3
:1012300081913F01853229F4B70190E00E94D50ADF
:10124000E7CF912C412C512CFFE1F51538F08B3272
:1012500009F188F4803201F1833221F157FC3AC060
:1012600020ED280F2A3040F556FE1FC0929C200D1D
:101270001124922E06C08D3291F0803379F7689454
:1012800050F8F30193FD859193FF81913F01811106
:10129000DBCF20C0689451F8689452F8F2CF68947C
:1012A00053F8EFCF689454F8ECCF429C200D1124F2
:1012B000422E689455F8E5CF8E3229F456FCF9C0D9
:1012C000689456F8DECF8C3619F4689457F8D9CF65
:1012D0008836B9F2982F9F7D95549330C0F08336AD
:1012E000A1F18337C1F1833509F05BC0F801C190EA
:1012F000D1908F01692D70E056FC02C06FEF7FEF37
:10130000C6010E94BF0A4C01689457F80AC00C5FDE
:101310001F4F2FE3298388248394912C6501E8943F
:1013200057F853FC04C04814190409F018F5342C7C
:101330008114910431F5332009F46ACFB70180E2BA
:1013400090E00E94D50A3A94F6CFF8018081898313
:101350000E5F1F4FE0CFF801C190D1908F01692D32
:1013600070E056FC02C06FEF7FEFC6010E94CA0A10
:101370004C01D5CFB70180E290E00E94D50A4A9493
:10138000D2CFF60157FC859157FE81916F01B701CD
:1013900090E00E94D50A31103A94F1E08F1A91083A
:1013A000C7CF843619F0893609F074C0F80157FEAA
:1013B0006AC061917191819191918F01252D2F7654
:1013C000D22E97FF09C090958095709561957F4FBB
:1013D0008F4F9F4F6894D7F82AE030E0A5010E9414
:1013E000050BC82ECA188C2C5D2CD6FE0CC0E894B8
:1013F00050F8C91440F4D4FE05C0D2FC03C0FD2D42
:10140000FE7E5F2E892C54FE8FC0FE01EC0DF11D77
:101410008081803309F081C0252D297E522E852DB3
:101420008870382E53FC8FC050FE89C09C2C8414C9
:1014300018F44C0C942C981854FE8BC0B70180E320
:1014400090E00E94D50A52FE09C088E790E051FE64
:1014500002C088E590E0B7010E94D50AC91408F4DB
:1014600084C0CA94D12C9FEFC91AD90ACA0CDB1CBC
:10147000F60182916F01B70190E00E94D50AAC1489
:10148000BD04B1F758CF61917191072E000C880B04
:10149000990B93CFD52CE894D4F82AE030E0853727
:1014A00039F1952D997FD92E8F3601F148F4883581
:1014B000A9F0F701868197812B96E2E10C947F0BCE
:1014C000803749F08837A9F7D4FE02C06894D2F873
:1014D00020E130E00DC06894D4F8F6CF54FE03C08C
:1014E000E92FE660DE2E20E132E002C028E030E0A5
:1014F000F801D7FE0DC061917191819191918F0199
:10150000A5010E94050BC82ECA18E894D7F86BCF26
:101510006191719190E080E0F2CF52FC02C083941F
:101520007ECF839483947BCF852D867809F477CF03
:10153000F6CFB70180E290E00E94D50A839484142C
:10154000C0F3312C79CF342C3818841408F474CFBC
:10155000F8CF852D867809F481CF8BE251FE80E2A9
:1015600057FC8DE2B70190E077CFB70180E390E0C0
:101570000E94D50A9A9472CF8FEF9FEF9DCFFC0106
:101580000590615070400110D8F7809590958E0FAE
:101590009F1F0895FC016150704001900110D8F721
:1015A000809590958E0F9F1F08950F931F93CF9353
:1015B000DF93182F092FEB018B8181FD09C01FEFED
:1015C0000FEF812F902FDF91CF911F910F910895F1
:1015D00082FF14C02E813F818C819D81281739079D
:1015E0003CF4E881F981CF010196998388831083C7
:1015F0008E819F8101969F838E83E3CFE885F98555
:10160000812F0995892BA1F3DACFFA01AA27283077
:1016100051F1203181F1E8946F936E7F6E5F7F4FBF
:101620008F4F9F4FAF4FB1E03ED0B4E03CD0670F3B
:10163000781F891F9A1FA11D680F791F8A1F911D8E
:10164000A11D6A0F711D811D911DA11D20D009F4DE
:1016500068943F912AE0269F11243019305D319320
:10166000DEF6CF010895462F4770405D4193B3E009
:101670000FD0C9F7F6CF462F4F70405D4A3318F0B0
:10168000495D31FD4052419302D0A9F7EACFB4E061
:10169000A6959795879577956795BA95C9F7009719
:1016A0006105710508959B01AC010A2E06945795BA
:1016B000479537952795BA95C9F7620F731F841F11
:1016C000951FA01D08952F923F924F925F926F92A7
:1016D0007F928F929F92AF92BF92CF92DF92EF92C2
:1016E000FF920F931F93CF93DF93CDB7DEB7CA1B43
:1016F000DB0B0FB6F894DEBF0FBECDBF09942A886E
:10170000398848885F846E847D848C849B84AA8415
:10171000B984C884DF80EE80FD800C811B81AA81A2
:10172000B981CE0FD11D0FB6F894DEBF0FBECDBF6D
:10173000ED010895F894FFCF1F03300341034A03DE
:101740006E0376037E03D203E003E803F103F7039D
:0A175000FE030A041F04DB03DB03A1
:10175A00350000000000000000000000000000004A
:10176A00000000000000000000000000000000006F
:10177A00340000000000000000000000000000002B
:10178A00000000000000000000000000000000004F
:10179A000000000100000000000035040000000005
:1017AA000002000000003C04000000003A434F4ED3
:1017BA004649473A2025780A003A454E5F41413A60
:1017CA002025780A003A454E5F5258414444523A1D
:1017DA002025780A003A53455455505F41573A201C
:1017EA0025780A003A53455455505F524554523AA7
:1017FA002025780A003A52465F43483A2025780A5B
:10180A00003A52465F53455455503A2025780A000B
:10181A003A5354415455533A2025780A003A4F42D4
:10182A0053455256455F54583A2025780A003A5291
:10183A00585F414444525F50303A2025730A003AB7
:10184A0052585F414444525F50313A2025730A008E
:10185A003A52585F414444525F50323A2025780A3E
:10186A00003A52585F414444525F50333A20257837
:10187A000A003A52585F414444525F50343A202594
:10188A00780A003A52585F414444525F50353A2030
:10189A0025780A003A54585F414444523A20257345
:1018AA000A003A52585F50575F50303A2025780A5A
:1018BA00003A52585F50575F50313A2025780A0053
:1018CA003A52585F50575F50323A2025780A003A08
:1018DA0052585F50575F50333A2025780A003A52DF
:1018EA00585F50575F50343A2025780A003A5258C8
:1018FA005F50575F50353A2025780A003A464946E4
:10190A004F5F5354415455533A2025780A003A44BC
:10191A00594E50443A2025780A0053544154453AC6
:10192A0000494E56414C4944205354415445000005
:00000001FF
