:100000000C9435000C945D000C945D000C945D0024
:100010000C945D000C945D000C945D000C945D00EC
:100020000C945D000C945D000C945D000C945D00DC
:100030000C945D000C945D000C945D000C945D00CC
:100040000C945D000C945D000C945F000C945D00BA
:100050000C945D000C945D000C945D000C945D00AC
:100060000C945D000C945D00740811241FBECFEF4A
:10007000D8E0DEBFCDBF12E0A0E0B1E0E4EEF6E1F3
:1000800002C005900D92AC3FB107D9F723E0ACEF69
:10009000B2E001C01D92A638B207E1F710E0C5E357
:1000A000D0E004C02197FE010E947808C433D10734
:1000B000C9F70E9442080C94660B0C9400001F9232
:1000C0000F920FB60F9211242F933F934F935F938C
:1000D0006F937F938F939F93AF93BF93EF93FF9310
:1000E0000E942A04E091FC02AE2FB0E0A35EBC4F58
:1000F0008C93EF5FE093FC02ED3111F08D3061F4F1
:10010000F0E0E45EFC4F10821092FC026DE173E0BF
:100110008DE393E00E94BA037894FF91EF91BF9131
:10012000AF919F918F917F916F915F914F913F918F
:100130002F910F900FBE0F901F901895EF92FF9286
:100140000F931F93CF93DF9300D000D000D00F9276
:10015000CDB7DEB78C011F8221E0AE01495F5F4F52
:1001600060E00E9403068F811F928F938CE591E0DF
:100170009F938F930E947E081F8221E0AE01495F0A
:100180005F4F61E0C8010E9403068F811F928F9329
:1001900089E691E09F938F930E947E081F8221E061
:1001A000AE01495F5F4F62E0C8010E9403068F8184
:1001B0001F928F9385E791E09F938F930E947E0813
:1001C0001F8221E0AE01495F5F4F63E0C8010E94DA
:1001D00003068F811F928F9385E891E09F938F9301
:1001E0000E947E081F8221E0AE01495F5F4F64E0FC
:1001F000C8010E9403068F811F928F9384E991E0CA
:100200009F938F930E947E081F8221E0AE01495F79
:100210005F4F65E0C8010E9403068F811F928F9394
:1002200085EA91E09F938F930E947E081F8221E0D0
:10023000AE01495F5F4F66E0C8010E9403068F81EF
:100240001F928F9381EB91E09F938F930E947E0882
:100250001F8221E0AE01495F5F4F67E0C8010E9445
:1002600003068F811F928F9380EC91E09F938F9371
:100270000E947E081F820FB6F894DEBF0FBECDBF6E
:1002800021E0AE01495F5F4F68E0C8010E940306AC
:100290008F811F928F938DEC91E09F938F930E949B
:1002A0007E08FE0131967F0186E011928A95E9F77A
:1002B00025E0A7016AE0C8010E940306FF92EF92C1
:1002C0008EED91E09F938F930E947E0825E0A70119
:1002D0006BE0C8010E940306FF92EF928FEE91E05F
:1002E0009F938F930E947E081F8221E0AE01495F99
:1002F0005F4F6CE0C8010E9403068F811F928F93AD
:1003000080E092E09F938F930E947E081F8221E0FD
:10031000AE01495F5F4F6DE0C8010E9403068F8107
:100320001F928F9381E192E09F938F930E947E08AA
:100330001F8221E0AE01495F5F4F6EE0C8010E945D
:1003400003068F811F928F9382E292E09F938F9397
:100350000E947E081F8221E0AE01495F5F4F6FE07F
:10036000C8010E9403068F811F928F9383E392E05E
:100370009F938F930E947E0825E0A70160E1C8014A
:100380000E940306FF92EF9284E492E09F938F9382
:100390000E947E081F820FB6F894DEBF0FBECDBF4D
:1003A00021E0AE01495F5F4F61E1C8010E94030691
:1003B0008F811F928F9382E592E09F938F930E948B
:1003C0007E081F8221E0AE01495F5F4F62E1C801F4
:1003D0000E9403068F811F928F9381E692E09F9384
:1003E0008F930E947E081F8221E0AE01495F5F4F1C
:1003F00063E1C8010E9403068F811F928F9380E7FB
:1004000092E09F938F930E947E081F8221E0AE01AD
:10041000495F5F4F64E1C8010E9403068F811F920C
:100420008F938FE792E09F938F930E947E081F82A5
:1004300021E0AE01495F5F4F65E1C8010E940306FC
:100440008F811F928F938EE892E09F938F930E94EB
:100450007E081F8221E0AE01495F5F4F66E1C8015F
:100460000E9403068F811F928F938DE992E09F93E4
:100470008F930E947E081F8221E0AE01495F5F4F8B
:1004800067E1C8010E9403068F811F928F938CEA57
:1004900092E09F938F930E947E081F8221E0AE011D
:1004A000495F5F4F6CE1C8010E9403068F811F9274
:1004B0008F938EEB92E09F938F930E947E080FB6EE
:1004C000F894DEBF0FBECDBF27960FB6F894DEBFFF
:1004D0000FBECDBFDF91CF911F910F91FF90EF9095
:1004E0000895DC01FB018C91808311968C9111970A
:1004F000818312968C9182830895DB01FC01835FD6
:1005000021919D91291304C08E13FACF81E00895A3
:1005100080E008950F931F93CF93DF938C018AECB3
:1005200092E09F938F930E947E08E801005F1F4F27
:100530000F900F9089910E943104C017D107D1F715
:100540008AE0DF91CF911F910F910C9431040F93AA
:100550001F93CF938C0183ED92E09F938F930E9422
:100560007E080F900F90C0E0F801EC0FF11D808124
:10057000882321F00E943104CF5FF6CF8AE0CF912B
:100580001F910F910C943104CF93DF93EC018DED0B
:1005900092E09F938F930E947E0888810E9431048D
:1005A00089810E9431048A810E9431040F900F904A
:1005B0008AE0DF91CF910C9431040F931F93CF9376
:1005C000DF93EC018B01FB018081813389F1F8F429
:1005D000803349F18091690390916803892B09F078
:1005E0007BC0CE010E94FF04882309F46EC060E244
:1005F00071E0C8010E947D02882309F449C080E2AD
:1006000091E0DF91CF911F910F910C948A02823378
:10061000C9F08333F9F6CB0101960E94C40281E050
:1006200080936803D7CF8BB190E289278BB9D2CF63
:10063000CE010E94FF0461E0811160E0CE010E94C2
:100640000205C8CF80916703811107C08BB190E28A
:1006500089278BB981E080936703B8016F5F7F4F73
:10066000CE010E94870761E071E0CE010C960E94E6
:10067000710260E071E0CE010E94C505BE01695FB4
:100680007F4FCE010E94870781E080936903A2CF4C
:10069000C8010E94A702045E1F4FB801CE010E944C
:1006A00087076DE271E0C8010E94710260E271E0AB
:1006B000CE010E94C505BE01695F7F4FCE01DF916B
:1006C000CF911F910F910C948707C801DF91CF91B3
:1006D0001F910F910C94A702DF91CF911F910F9161
:1006E0000895EF92FF920F931F93CF93C62F0E940E
:1006F00023067C01C250C43000F5C2E086EE92E0D1
:100700009F938F930E947E080F900F900C2F10E004
:100710000E5F1F4FF701EC0FF11D80810E94310425
:10072000CF5FC0171106B1F3ACF38AE0CF911F91F0
:100730000F91FF90EF900C943104C0E0DFCFCF9386
:10074000DF930E945C06EC0186EE92E09F938F930C
:100750000E947E0888810E94310489810E943104B0
:100760008A810E9431040F900F908AE0DF91CF912F
:100770000C9431040F931F93CF93DF938C01EB0103
:10078000E881EA3008F05EC0F0E0E859F44F0C94DC
:100790007808635E7F4F0C960E947102BE016F5F06
:1007A0007F4FC8010E94C505C8010E941305811131
:1007B000FBCFDF91CF911F910F9108956F5F7F4F16
:1007C000DF91CF911F910F910C9487076E5F7F4F40
:1007D0004981DF91CF911F910F910C944D07DF91CB
:1007E000CF911F910F910C949F036981DF91CF915D
:1007F0001F910F910C9471030E94FF0461E081111D
:1008000060E0C801DF91CF911F910F910C94020518
:1008100086EE92E09F938F930E947E08C8010E940B
:10082000FF04805D0E9431040F900F908AE0DF91F9
:10083000CF911F910F910C9431048BB190E28927D5
:100840008BB9B7CF8DEE92E0DF91CF911F910F91D1
:100850000C9494088091C00087FFFCCF8091C60063
:1008600008959091C00095FFFCCF8093C600089535
:10087000E0E8F3E08EE491E09383828380E491E00A
:10088000918380831092C50087E68093C400E0ECDA
:10089000F0E080818D7F808386E08093C200E1EC70
:1008A000F0E088E1808380818068808308958AE019
:1008B0000C9431040F931F93CF938C01C0E0F80187
:1008C000EC0FF11D8081811105C0CF911F910F9117
:1008D0000C9457040E943104CF5FF1CFCF93DF9384
:1008E000C82FD62F80E00E9401088C2F8F71806264
:1008F0000E9416088D2F0E94160881E0DF91CF918B
:100900000C940108CF93DF93FC01108281E0818376
:1009100090E2928393E093831482858388E08683B8
:10092000DF01179685E0ED0119928A95E9F781E2DA
:100930008087818715969EE1ED0119929A95E9F7D6
:1009400093E3948720E325879687828B838B97E3B5
:10095000968B878B808F98E3938F848F858F99E315
:1009600090A381A382A391E495A386A387A3DF919B
:10097000CF9108950E94F50780E00E94FB0781E077
:100980000C94010880E00C946E0481E00C946E04D9
:1009900082E00C946E0483E00C946E0484E00C946A
:1009A0006E0485E00C946E0486E00C946E0487E07F
:1009B0000C946E0488E00C946E04423089F030F49C
:1009C000442359F082E1413049F00895443061F008
:1009D00048F086E1453011F0089581E10C946E04F1
:1009E00083E1FCCF84E1FACF85E1F8CF87E10C9475
:1009F0006E048CE10C946E04FC0180810895FC016E
:100A000081810895FC0161830895CF9380E00E9465
:100A100001088FEF0E941608C82F81E00E9401088C
:100A20008C2FCF9108950E940505982F907381E037
:100A300009F080E00895CF93DF93EC010E94050553
:100A400085FF04C08C81DF91CF91089584FF02C09F
:100A50008D81F9CF8FEFF7CFCF9380E00E9401080F
:100A600080E60E94160880E00E941608C82F81E0E8
:100A70000E9401088C2FCF910895CF93DF93EC0152
:100A800081E0888380E00E94010882EE0E941608BF
:100A900081E00E94010860E787E00E946E0480E028
:100AA0000E94FB076E81636080E00E946E0481E01B
:100AB000DF91CF910C94FB07CF93DF93EC01188269
:100AC00060E787E00E946E046E81626080E0DF91E3
:100AD000CF910C946E04CF93DF93EC01188280E0E9
:100AE0000E94FB076E8180E0DF91CF910C946E0431
:100AF000EF92FF920F931F93CF93DF93EB018A0145
:100B00007B01E20EF11CCE15DF0539F089910E94C0
:100B10001608F80181938F01F6CFDF91CF911F91D5
:100B20000F91FF90EF9008950F931F93CF93DF9352
:100B3000EC018B0180E00E94010881E60E9416080A
:100B40002A81A801B801CE010E94780581E00E94A7
:100B5000010860E487E0DF91CF911F910F910C9421
:100B60006E040F931F93CF93DF93EB018B01040F60
:100B7000111DC017D10721F089910E941608F9CFE5
:100B8000DF91CF911F910F9108950F931F93CF93F2
:100B9000DF93EC018B0180E00E94FB07CE010E94F5
:100BA0005C0580E00E94010881EE0E94160881E049
:100BB0000E94010880E00E94010880EA0E94160855
:100BC0004A81B801CE010E94B10581E00E9401086E
:100BD00081E0DF91CF911F910F910C94FB07CF9390
:100BE000DF93C62FD42F80E00E9401088C2F8F71D5
:100BF00080620E9416088D2F0E94160881E0DF9106
:100C0000CF910C940108EF92FF920F931F93CF9313
:100C1000DF938C01E62EEA01F22E80E00E940108AB
:100C20008E2D8F710E9416082F2DAE01BE01C801B6
:100C30000E94780581E0DF91CF911F910F91FF9085
:100C4000EF900C94010810927B0310927C03109299
:100C50007D0310927E0310927F036230F1F038F42E
:100C6000662379F06130A1F08BE793E0089564305A
:100C7000F1F0C0F06530C1F721E04FE753E06FE0DD
:100C800004C025E04BE753E06AE00E940306ECCF86
:100C900025E04BE753E06BE0F8CF21E04FE753E06E
:100CA0006CE0F3CF21E04FE753E06DE0EECF21E0C1
:100CB0004FE753E06EE0E9CF25E046E753E060E11F
:100CC0000E94030686E793E0089521E045E753E09C
:100CD00060E00E94030680917503089521E044E7D7
:100CE00053E061E00E94030680917403089521E0BF
:100CF00043E753E062E00E94030680917303089586
:100D000021E042E753E063E00E9403068091720312
:100D1000089521E041E753E064E00E9403068091DA
:100D20007103089521E040E753E065E00E94030667
:100D300080917003089521E04FE653E066E00E9441
:100D4000030680916F03089521E04EE653E067E0CB
:100D50000E94030680916E03089521E04DE653E062
:100D600068E00E94030680916D0308956230F1F0FF
:100D700038F4662379F06130A1F080916C03089516
:100D80006430F1F0C0F06530C1F721E04CE653E08B
:100D900066E104C021E04CE653E061E10E940306F5
:100DA000ECCF21E04CE653E062E1F8CF21E04CE6E5
:100DB00053E063E1F3CF21E04CE653E064E1EECF92
:100DC00021E04CE653E065E1E9CF21E04BE653E05A
:100DD00067E10E94030680916B03089521E04AE6D3
:100DE00053E06CE10E94030680916A030895CF935B
:100DF000DF930F92CDB7DEB721E0AE014F5F5F4FBB
:100E000067E10E940306898181700F90DF91CF9185
:100E10000895CF93DF93EC010E94050591E086FDD4
:100E200006C0CE010E94F70691E0811190E0892F63
:100E3000DF91CF910895CF93DF930F92CDB7DEB7B7
:100E400021E0AE014F5F5F4F68E00E940306898199
:100E50008F700F90DF91CF910895EF92FF920F93D3
:100E60001F93CF93DF938C01C62F7A01D22F80E09E
:100E70000E9401088C2F8F7180620E9416084D2FEE
:100E8000B701C8010E94B10581E0DF91CF911F91A8
:100E90000F91FF90EF900C940108EF92FF921F9337
:100EA000CF93DF93EC017B01142F80E00E94FB07BE
:100EB000123009F160F41123B1F01130C1F081E07A
:100EC000DF91CF911F91FF90EF900C94FB071430AE
:100ED000D1F0A8F021E0A7016FE0153081F7CE0135
:100EE0000E942D07ECCF2B81A7016AE0F8CF2B8160
:100EF000A7016BE0F4CF21E0A7016CE0F0CF21E087
:100F0000A7016DE0ECCF21E0A7016EE0E8CF0F93E1
:100F10001F93CF93DF93EC018B01AC01445F5F4FD4
:100F20002B816AE00E942D072B81A80160E1CE0190
:100F3000DF91CF911F910F910C942D07EF92FF92AB
:100F40001F93CF93DF93EC0180E28A8362E085E018
:100F50000E946E0461E083E00E946E047E018CE0DA
:100F6000E80EF11C10E0412FB701CE010E944D07A1
:100F700085E0E80EF11C1F5F1630A9F7BE01695F1E
:100F80007F4FCE010E9487076A8181E10E946E0433
:100F90006A8182E10E946E046A8183E10E946E048C
:100FA0006A8184E10E946E046A8185E10E946E0478
:100FB0006A8186E10E946E0466E086E00E946E040B
:100FC0006E8180E00E946E0460E081E00E946E0409
:100FD0006FE382E00E946E0460E08CE1DF91CF91CC
:100FE0001F91FF90EF900C946E04229A219A259AFB
:100FF000239A24980895882311F02A9A08952A980C
:101000000895882311F0299A08952998089588232E
:1010100011F02D9A08952D980895882311F02B9A98
:1010200008952B98089583B180710895EF92FF92EF
:101030000F931F93CF93E82E80E00E94070807E0EC
:1010400010E0C0E0F12CC701002E02C095958795F5
:101050000A94E2F780FF12C02B9A2D9ACC0F1C99AC
:10106000C16080E00E9407080150110960F78C2FD1
:10107000CF911F910F91FF90EF90089580E00E9413
:101080000D08EBCF0E9438048DE393E00E94BA0470
:101090008DE393E00E949E078DE393E00E943D055F
:1010A00078948DE393E00E94FC04811104C08DE3E9
:1010B00093E00E943D058DE393E00E940907882399
:1010C00061F06DEF72E08DE393E00E9494056DEFA7
:1010D00072E08DE393E00E94DD028FE39CE90197CB
:1010E000F1F700C00000DDCF8DE393E00C948204A3
:1010F000EE0FFF1F0590F491E02D0994B0E0A0E001
:10110000E4E8F8E00C943F0BAE014B5F5F4FFA014F
:1011100061917191AF0180918203909183030E944C
:10112000C008E2E00C945B0B0F931F93CF93DF9307
:10113000E0918203F0918303238110E000E021FD20
:101140000EC00FEF1FEFC801DF91CF911F910F91DC
:1011500008950995892B11F00FEF1FEFCE01EC01D7
:1011600089916091820370918303DB011896ED9160
:10117000FC918111EECF8AE00995892B21F3E1CF13
:10118000ABE0B0E0E6ECF8E00C942F0B7C013B0107
:101190008A01FC0117821682838181FFB9C19AE01E
:1011A000292ECE0101965C01F7019381F30193FD95
:1011B000859193FF81913F01882309F446C18532CF
:1011C00039F493FD859193FF81913F01853229F494
:1011D000B70190E00E94A10AE7CF912C412C512C3D
:1011E000FFE1F51538F08B3209F188F4803201F116
:1011F000833221F157FC3AC020ED280F2A3040F508
:1012000056FE1FC0929C200D1124922E06C08D32D6
:1012100091F0803379F7689450F8F30193FD85914C
:1012200093FF81913F018111DBCF20C0689451F879
:10123000689452F8F2CF689453F8EFCF689454F85A
:10124000ECCF429C200D1124422E689455F8E5CF36
:101250008E3229F456FCF9C0689456F8DECF8C36ED
:1012600019F4689457F8D9CF8836B9F2982F9F7D32
:1012700095549330C0F08336A1F18337C1F18335A3
:1012800009F05BC0F801C190D1908F01692D70E029
:1012900056FC02C06FEF7FEFC6010E948B0A4C0123
:1012A000689457F80AC00C5F1F4F2FE329838824E6
:1012B0008394912C6501E89457F853FC04C04814BA
:1012C000190409F018F5342C8114910431F53320F8
:1012D00009F46ACFB70180E290E00E94A10A3A9433
:1012E000F6CFF801808189830E5F1F4FE0CFF801B0
:1012F000C190D1908F01692D70E056FC02C06FEF54
:101300007FEFC6010E94960A4C01D5CFB70180E25B
:1013100090E00E94A10A4A94D2CFF60157FC859131
:1013200057FE81916F01B70190E00E94A10A311030
:101330003A94F1E08F1A9108C7CF843619F08936B4
:1013400009F074C0F80157FE6AC0619171918191F2
:1013500091918F01252D2F76D22E97FF09C0909560
:101360008095709561957F4F8F4F9F4F6894D7F808
:101370002AE030E0A5010E94D10AC82ECA188C2CA0
:101380005D2CD6FE0CC0E89450F8C91440F4D4FE8D
:1013900005C0D2FC03C0FD2DFE7E5F2E892C54FEBD
:1013A0008FC0FE01EC0DF11D8081803309F081C0FA
:1013B000252D297E522E852D8870382E53FC8FC006
:1013C00050FE89C09C2C841418F44C0C942C981852
:1013D00054FE8BC0B70180E390E00E94A10A52FE48
:1013E00009C088E790E051FE02C088E590E0B701AF
:1013F0000E94A10AC91408F484C0CA94D12C9FEF9A
:10140000C91AD90ACA0CDB1CF60182916F01B70117
:1014100090E00E94A10AAC14BD04B1F758CF6191CD
:101420007191072E000C880B990B93CFD52CE89463
:10143000D4F82AE030E0853739F1952D997FD92EFF
:101440008F3601F148F48835A9F0F701868197813C
:101450002B96E2E10C944B0B803749F08837A9F7C3
:10146000D4FE02C06894D2F820E130E00DC0689448
:10147000D4F8F6CF54FE03C0E92FE660DE2E20E15B
:1014800032E002C028E030E0F801D7FE0DC06191E3
:101490007191819191918F01A5010E94D10AC82E6D
:1014A000CA18E894D7F86BCF6191719190E080E011
:1014B000F2CF52FC02C083947ECF839483947BCF7F
:1014C000852D867809F477CFF6CFB70180E290E0DA
:1014D0000E94A10A83948414C0F3312C79CF342C58
:1014E0003818841408F474CFF8CF852D867809F461
:1014F00081CF8BE251FE80E257FC8DE2B70190E094
:1015000077CFB70180E390E00E94A10A9A9472CF4E
:101510008FEF9FEF9DCFFC0105906150704001104F
:10152000D8F7809590958E0F9F1F0895FC0161500C
:10153000704001900110D8F7809590958E0F9F1FF5
:1015400008950F931F93CF93DF93182F092FEB016B
:101550008B8181FD09C01FEF0FEF812F902FDF914D
:10156000CF911F910F91089582FF14C02E813F816A
:101570008C819D81281739073CF4E881F981CF01DE
:1015800001969983888310838E819F8101969F8322
:101590008E83E3CFE885F985812F0995892BA1F307
:1015A000DACFFA01AA27283051F1203181F1E894ED
:1015B0006F936E7F6E5F7F4F8F4F9F4FAF4FB1E046
:1015C0003ED0B4E03CD0670F781F891F9A1FA11D41
:1015D000680F791F8A1F911DA11D6A0F711D811D42
:1015E000911DA11D20D009F468943F912AE0269F07
:1015F00011243019305D3193DEF6CF010895462F66
:101600004770405D4193B3E00FD0C9F7F6CF462F46
:101610004F70405D4A3318F0495D31FD40524193AF
:1016200002D0A9F7EACFB4E0A6959795879577956C
:101630006795BA95C9F700976105710508959B01F3
:10164000AC010A2E06945795479537952795BA957C
:10165000C9F7620F731F841F951FA01D08952F9255
:101660003F924F925F926F927F928F929F92AF9232
:10167000BF92CF92DF92EF92FF920F931F93CF937F
:10168000DF93CDB7DEB7CA1BDB0B0FB6F894DEBF16
:101690000FBECDBF09942A88398848885F846E843C
:1016A0007D848C849B84AA84B984C884DF80EE8086
:1016B000FD800C811B81AA81B981CE0FD11D0FB68F
:1016C000F894DEBF0FBECDBFED010895F894FFCFB3
:1016D000C903DE03E603EF03F503FC0308041D045E
:0416E000D903D9034E
:1016E40033000000000000000000000000000000C3
:1016F40000000000000000000000000000000000E6
:101704003C3C3C737563636573733E3E3E0000006E
:1017140000000000000000000000000000000000C5
:10172400000000010000000000002A040000000086
:101734000002000000003104000000003A434F4E54
:101744004649473A2025780A003A454E5F41413AD6
:101754002025780A003A454E5F5258414444523A93
:101764002025780A003A53455455505F41573A2092
:1017740025780A003A53455455505F524554523A1D
:101784002025780A003A52465F43483A2025780AD1
:10179400003A52465F53455455503A2025780A0082
:1017A4003A5354415455533A2025780A003A4F424B
:1017B40053455256455F54583A2025780A003A5208
:1017C400585F414444525F50303A2025730A003A2E
:1017D40052585F414444525F50313A2025730A0005
:1017E4003A52585F414444525F50323A2025780AB5
:1017F400003A52585F414444525F50333A202578AE
:101804000A003A52585F414444525F50343A20250A
:10181400780A003A52585F414444525F50353A20A6
:1018240025780A003A54585F414444523A202573BB
:101834000A003A52585F50575F50303A2025780AD0
:10184400003A52585F50575F50313A2025780A00C9
:101854003A52585F50575F50323A2025780A003A7E
:1018640052585F50575F50333A2025780A003A5255
:10187400585F50575F50343A2025780A003A52583E
:101884005F50575F50353A2025780A003A4649465A
:101894004F5F5354415455533A2025780A003A4433
:1018A400594E50443A2025780A0053554343455332
:1018B400533A0052454345495645443A004144444D
:1018C400524553533A0053544154453A00494E56F5
:0C18D400414C494420535441544500004D
:00000001FF
