:100000000C9434000C9451000C9451000C94510049
:100010000C9451000C9451000C9451000C9451001C
:100020000C9451000C9451000C9451000C9451000C
:100030000C9451000C9451000C9451000C945100FC
:100040000C9451000C9451000C94A7000C94510096
:100050000C9451000C9451000C9451000C945100DC
:100060000C9451000C94510011241FBECFEFD8E026
:10007000DEBFCDBF11E0A0E0B1E0E4ECFDE002C0E6
:1000800005900D92AE37B107D9F721E0AEE7B1E0A8
:1000900001C01D92A83EB207E1F70E9463030C94D1
:1000A000D6060C940000A0E0B1E0FC01835F9191C2
:1000B0002D91022E000C330B9217130621F48E1390
:1000C000F6CF81E0089580E008950F931F93CF93BA
:1000D000DF938C0188E691E09F938F930E94EE035B
:1000E000E8010B5F1F4F0F900F9089910E9435011F
:1000F000C017D107D1F78AE00E943501DF91CF9177
:100100001F910F910895FC013196A5E2B1E006968A
:1001100021912D93E817F907D9F785E291E00C9426
:100120003303FC013196A0E2B1E0069621912D93B4
:10013000E817F907D9F780E291E00C942303FC015A
:100140004F9621812193E817F907D9F708951F9257
:100150000F920FB60F9211242F933F934F935F93FB
:100160006F937F938F939F93AF93BF93EF93FF937F
:100170000E942E01E0918001AE2FB0E0AF53BE4F40
:100180008C93EF5FE0938001EF3111F08D30F9F443
:10019000F0E0EF53FE4F108210928001E091C10118
:1001A000E053EA3008F055C0F0E0E852F94F0C9403
:1001B000E80381EC91E00E949F0081EC91E00E94B5
:1001C00094020E94CC018111FCCF10927F0178949F
:1001D000FF91EF91BF91AF919F918F917F916F911F
:1001E0005F914F913F912F910F900FBE0F901F90F5
:1001F000189581EC91E00E948300E7CF81EC91E0BB
:100200000E949100E2CF85E291E00E946500DDCF7F
:1002100080E291E0FACF81E090917E01911180E03F
:1002200080937E01D2CF88E691E09F938F930E94C6
:10023000EE0380917E01805D0E9435018AE00E947C
:1002400035010F900F90C1CF8BB190E289278BB908
:10025000BCCF8FE691E00E940404B7CF8091C0002C
:1002600087FFFCCF8091C60008959091C00095FF54
:10027000FCCF8093C6000895E2EEF1E088E391E0C0
:10028000938382838AE291E0918380831092C500F8
:1002900087E68093C400E0ECF0E080818D7F80836E
:1002A00086E08093C200E1ECF0E088E18083808109
:1002B0008068808308958AE00C9435010F931F9322
:1002C000CF938C01C0E0F801EC0FF11D808181110A
:1002D00005C0CF911F910F910C945B010E943501D5
:1002E000CF5FF1CF0E94420380E00E94480381E08B
:1002F0000C944E038091E1010895EF92FF920F93C9
:100300001F93CF93E82E80E00E94540307E010E093
:10031000C0E0F12CC701002E02C0959587950A9484
:10032000E2F780FF18C081E00E945A0381E00E943A
:100330005403CC0F0E9460038111C16080E00E94D1
:1003400054030150110930F78C2FCF911F910F9159
:10035000FF90EF90089580E0E7CFCF9380E00E9478
:100360004E0380E60E947D0180E00E947D01C82F3F
:1003700081E00E944E038C2FCF910895CF9380E0AF
:100380000E944E038FEF0E947D01C82F81E00E94E2
:100390004E038C2FCF9108950E94BE01982F907329
:1003A00081E009F080E008950E94BE0185FD04C04F
:1003B00084FD04C08FEF089580E0089581E00895E2
:1003C000EF92FF920F931F93CF93DF93EC018B017A
:1003D0007C01E40EF11CCE15DF0539F4DF91CF91DD
:1003E0001F910F91FF90EF90089589910E947D01D8
:1003F000F80181938F01EFCF0F931F93CF93DF937A
:10040000EC018C01060F111DC017D10729F4DF91F3
:10041000CF911F910F91089589910E947D01F4CF92
:10042000CF93DF93C82FD62F80E00E944E038C2FEE
:100430008F7180620E947D018D2F0E947D0181E07D
:10044000DF91CF910C944E03CF93DF93EC0180E0CA
:100450000E944E0381E60E947D014091E101BE01B0
:10046000CE010E94E00181E00E944E0360E487E03B
:10047000DF91CF910C94100280E00E944E0382EE37
:100480000E947D0181E00E944E0360E787E00E94A8
:10049000100280E00E9448036BE080E00E9410029E
:1004A00081E00C9448036093E101682F85E00E948D
:1004B000100260E081E10E9410026091E10182E19E
:1004C0000E94100260E083E10E94100260E084E17B
:1004D0000E94100260E085E10E94100260E086E167
:1004E0000E94100266E086E00E94100268E080E050
:1004F0000E94100263E081E00E94100263E082E04B
:100500000E9410026FE484E00E94100260E08CE11F
:100510000E9410020C943C0260E787E00E941002E7
:100520006AE080E00C941002CF93DF93EC0180E04E
:100530000E9448030E948C0280E00E944E0381EEDC
:100540000E947D0181E00E944E0380E00E944E03E4
:1005500080EA0E947D016091E101CE010E94FC01D0
:1005600081E00E944E0381E0DF91CF910C9448031B
:1005700080E00E94480368E080E00C9410020F9332
:100580001F93CF93DF93082FEB01142F80E00E947D
:100590004E03802F8F710E947D01412FBE01CE013D
:1005A0000E94E00181E0DF91CF911F910F910C94A7
:1005B0004E03CF93DF930F92CDB7DEB741E0BE017C
:1005C0006F5F7F4F87E10E94BF02898181700F902A
:1005D000DF91CF9108950E94BE0191E086FD05C094
:1005E0000E94D90291E0811190E0892F0895CF9364
:1005F000DF930F92CDB7DEB741E0BE016F5F7F4F53
:1006000088E00E94BF0289818F700F90DF91CF91A7
:1006100008950F931F93CF93DF93C82F8B01D42F8F
:1006200080E00E944E038C2F8F7180620E947D01BA
:100630006D2FC8010E94FC0181E0DF91CF911F91D5
:100640000F910C944E03CF93DF93EC0180E00E9456
:10065000480345E0BE018BE00E94090381E0DF9181
:10066000CF910C944803CF93DF93EC0145E0BC019C
:100670008AE00E94090345E0BE0180E1DF91CF914D
:100680000C940903229A219A259A239A2498089572
:10069000882311F02A9A08952A980895882311F042
:1006A000299A089529980895882311F02D9A08957C
:1006B0002D980895882311F02B9A08952B9808956A
:1006C00083B1807108950E943C010E94720160E232
:1006D00082E00E94530285E291E00E94330380E2AF
:1006E00091E00E9423037894559AFF24F394C2E585
:1006F000D1E006E411E080E2E82E80917F018111D3
:1007000004C00E943C02F0927F010E94EB02882309
:1007100009F44CC081E891E00E942402809181019B
:10072000813319F48BB18E258BB980917E0188239A
:1007300009F447C081E891E00E945300882349F002
:1007400080E091E09F938F931F930F930E94EE039D
:1007500029C081E891E09F938F93DF93CF930E940C
:10076000EE038091200190912101A0912201B0918E
:10077000230180930D0190930E01A0930F01B0937C
:100780001001809124018093110189B18072805DF4
:10079000809312011092130180E091E00E94940274
:1007A00010927F010F900F900F900F908FE591E0C6
:1007B0000E9404048FE39CE90197F1F700C0000058
:1007C0009CCF81E891E09F938F93DF93CF93BECF2F
:1007D000EE0FFF1F0590F491E02D0994B0E0A0E02A
:1007E000E4EFF3E00C94AF06AE014B5F5F4FFA010C
:1007F00061917191AF018091E4019091E5010E94B6
:100800003004E2E00C94CB060F931F93CF93DF9359
:10081000E091E401F091E501238110E000E021FD89
:100820000EC00FEF1FEFC801DF91CF911F910F9105
:1008300008950995892B11F00FEF1FEFCE01EC0100
:1008400089916091E4017091E501DB011896ED91C9
:10085000FC918111EECF8AE00995892B21F3E1CF3C
:10086000ABE0B0E0E6E3F4E00C949F067C013B01D2
:100870008A01FC0117821682838181FFB9C19AE047
:10088000292ECE0101965C01F7019381F30193FDBE
:10089000859193FF81913F01882309F446C18532F8
:1008A00039F493FD859193FF81913F01853229F4BD
:1008B000B70190E00E941106E7CF912C412C512CFA
:1008C000FFE1F51538F08B3209F188F4803201F13F
:1008D000833221F157FC3AC020ED280F2A3040F531
:1008E00056FE1FC0929C200D1124922E06C08D3200
:1008F00091F0803379F7689450F8F30193FD859176
:1009000093FF81913F018111DBCF20C0689451F8A2
:10091000689452F8F2CF689453F8EFCF689454F883
:10092000ECCF429C200D1124422E689455F8E5CF5F
:100930008E3229F456FCF9C0689456F8DECF8C3616
:1009400019F4689457F8D9CF8836B9F2982F9F7D5B
:1009500095549330C0F08336A1F18337C1F18335CC
:1009600009F05BC0F801C190D1908F01692D70E052
:1009700056FC02C06FEF7FEFC6010E94FB054C01E1
:10098000689457F80AC00C5F1F4F2FE3298388240F
:100990008394912C6501E89457F853FC04C04814E3
:1009A000190409F018F5342C8114910431F5332021
:1009B00009F46ACFB70180E290E00E9411063A94F0
:1009C000F6CFF801808189830E5F1F4FE0CFF801D9
:1009D000C190D1908F01692D70E056FC02C06FEF7D
:1009E0007FEFC6010E9406064C01D5CFB70180E219
:1009F00090E00E9411064A94D2CFF60157FC8591EF
:100A000057FE81916F01B70190E00E9411063110ED
:100A10003A94F1E08F1A9108C7CF843619F08936DD
:100A200009F074C0F80157FE6AC06191719181911B
:100A300091918F01252D2F76D22E97FF09C0909589
:100A40008095709561957F4F8F4F9F4F6894D7F831
:100A50002AE030E0A5010E944106C82ECA188C2C5D
:100A60005D2CD6FE0CC0E89450F8C91440F4D4FEB6
:100A700005C0D2FC03C0FD2DFE7E5F2E892C54FEE6
:100A80008FC0FE01EC0DF11D8081803309F081C023
:100A9000252D297E522E852D8870382E53FC8FC02F
:100AA00050FE89C09C2C841418F44C0C942C98187B
:100AB00054FE8BC0B70180E390E00E94110652FE05
:100AC00009C088E790E051FE02C088E590E0B701D8
:100AD0000E941106C91408F484C0CA94D12C9FEF57
:100AE000C91AD90ACA0CDB1CF60182916F01B70141
:100AF00090E00E941106AC14BD04B1F758CF61918B
:100B00007191072E000C880B990B93CFD52CE8948C
:100B1000D4F82AE030E0853739F1952D997FD92E28
:100B20008F3601F148F48835A9F0F7018681978165
:100B30002B96E2E10C94BB06803749F08837A9F781
:100B4000D4FE02C06894D2F820E130E00DC0689471
:100B5000D4F8F6CF54FE03C0E92FE660DE2E20E184
:100B600032E002C028E030E0F801D7FE0DC061910C
:100B70007191819191918F01A5010E944106C82E2A
:100B8000CA18E894D7F86BCF6191719190E080E03A
:100B9000F2CF52FC02C083947ECF839483947BCFA8
:100BA000852D867809F477CFF6CFB70180E290E003
:100BB0000E94110683948414C0F3312C79CF342C15
:100BC0003818841408F474CFF8CF852D867809F48A
:100BD00081CF8BE251FE80E257FC8DE2B70190E0BD
:100BE00077CFB70180E390E00E9411069A9472CF0C
:100BF0008FEF9FEF9DCFFC01059061507040011079
:100C0000D8F7809590958E0F9F1F0895FC01615035
:100C1000704001900110D8F7809590958E0F9F1F1E
:100C200008950F931F93CF93DF93182F092FEB0194
:100C30008B8181FD09C01FEF0FEF812F902FDF9176
:100C4000CF911F910F91089582FF14C02E813F8193
:100C50008C819D81281739073CF4E881F981CF0107
:100C600001969983888310838E819F8101969F834B
:100C70008E83E3CFE885F985812F0995892BA1F330
:100C8000DACFFA01AA27283051F1203181F1E89416
:100C90006F936E7F6E5F7F4F8F4F9F4FAF4FB1E06F
:100CA0003ED0B4E03CD0670F781F891F9A1FA11D6A
:100CB000680F791F8A1F911DA11D6A0F711D811D6B
:100CC000911DA11D20D009F468943F912AE0269F30
:100CD00011243019305D3193DEF6CF010895462F8F
:100CE0004770405D4193B3E00FD0C9F7F6CF462F70
:100CF0004F70405D4A3318F0495D31FD40524193D9
:100D000002D0A9F7EACFB4E0A69597958795779595
:100D10006795BA95C9F700976105710508959B011C
:100D2000AC010A2E06945795479537952795BA95A5
:100D3000C9F7620F731F841F951FA01D08952F927E
:100D40003F924F925F926F927F928F929F92AF925B
:100D5000BF92CF92DF92EF92FF920F931F93CF93A8
:100D6000DF93CDB7DEB7CA1BDB0B0FB6F894DEBF3F
:100D70000FBECDBF09942A88398848885F846E8465
:100D80007D848C849B84AA84B984C884DF80EE80AF
:100D9000FD800C811B81AA81B981CE0FD11D0FB6B8
:100DA000F894DEBF0FBECDBFED010895F894FFCFDC
:100DB000D900F900FE00030108010B011301240111
:040DC000E500E50065
:100DC4003C3C3C737563636573733E3E3E000000B8
:100DD400000000000000000000000000000000000F
:100DE40021212121213F3F3F3F3F0000000100001E
:100DF400000000002E0100000000000200000000BE
:100E0400350100000000535543434553533A2573BD
:100E14000A0052454345495645443A25730A00772A
:100E24006F726B696E673F0053544154453A0049F1
:0E0E34004E56414C4944205354415445000051
:00000001FF
