:100000000C9434000C9451000C9451000C94510049
:100010000C9451000C9451000C9451000C9451001C
:100020000C9451000C9451000C9451000C9451000C
:100030000C9451000C9451000C9451000C945100FC
:100040000C9451000C9451000C94AF000C9451008E
:100050000C9451000C9451000C9451000C945100DC
:100060000C9451000C94510011241FBECFEFD8E026
:10007000DEBFCDBF11E0A0E0B1E0E2E7FDE002C0ED
:1000800005900D92A437B107D9F721E0A4E7B1E0BC
:1000900001C01D92AE3DB207E1F70E9466030C94C9
:1000A000AE060C940000BC0190E0492F50E0FA012C
:1000B000E050FF4F2081211102C081E00895460FDA
:1000C000571FFA018081022E000C330B8217130692
:1000D00011F49F5FEACF80E008950F931F93CF93B1
:1000E000DF938C018FE591E09F938F930E94C6036D
:1000F000E8010B5F1F4F0F900F9089910E9438010C
:10010000C017D107D1F78AE00E943801DF91CF9163
:100110001F910F910895FC013196A5E2B1E006967A
:1001200021912D93E817F907D9F785E291E00C9416
:100130003603FC013196A0E2B1E0069621912D93A1
:10014000E817F907D9F780E291E00C942603FC0147
:100150004F9621812193E817F907D9F708951F9247
:100160000F920FB60F9211242F933F934F935F93EB
:100170006F937F938F939F93AF93BF93EF93FF936F
:100180000E943101E0917601AE2FB0E0A954BE4F3C
:100190008C93EF5FE0937601EF3111F08D30F9F43D
:1001A000F0E0E954FE4F108210927601E091B70121
:1001B000E053E93008F050C0F0E0E055F94F0C94FE
:1001C000C00387EB91E00E94A70087EB91E00E94BB
:1001D00097020E94CF018111FCCF10927501789493
:1001E000FF91EF91BF91AF919F918F917F916F910F
:1001F0005F914F913F912F910F900FBE0F901F90E5
:10020000189587EB91E00E948B00E7CF87EB91E098
:100210000E949900E2CF85E291E00E946D00DDCF5F
:1002200080E291E0FACF81E090917401911180E039
:1002300080937401D2CF8FE591E09F938F930E94BA
:10024000C60380917401805D0E9438018AE00E949B
:1002500038010F900F90C1CF86E691E00E94DC0339
:10026000BCCF8091C00087FFFCCF8091C60008956D
:100270009091C00095FFFCCF8093C6000895E8EDF3
:10028000F1E088E391E0938382838AE291E09183B5
:1002900080831092C50087E68093C400E0ECF0E014
:1002A00080818D7F808386E08093C200E1ECF0E066
:1002B00088E1808380818068808308958AE00C943F
:1002C00038010F931F93CF938C01C0E0F801EC0F1E
:1002D000F11D8081811105C0CF911F910F910C9468
:1002E0005E010E943801CF5FF1CF0E94450380E09C
:1002F0000E944B0381E00C9451038091D701089533
:10030000EF92FF920F931F93CF93E82E80E00E940D
:10031000570307E010E0C0E0F12CC701002E02C037
:10032000959587950A94E2F780FF18C081E00E94B6
:100330005D0381E00E945703CC0F0E94630381118B
:10034000C16080E00E9457030150110930F78C2FE3
:10035000CF911F910F91FF90EF90089580E0E7CF2C
:10036000CF9380E00E94510380E60E94800180E0EC
:100370000E948001C82F81E00E9451038C2FCF91F1
:100380000895CF9380E00E9451038FEF0E94800177
:10039000C82F81E00E9451038C2FCF9108950E94B5
:1003A000C101982F907381E009F080E008950E94C8
:1003B000C10185FD04C084FD04C08FEF089580E075
:1003C000089581E00895EF92FF920F931F93CF93CA
:1003D000DF93EC018B017C01E40EF11CCE15DF05EF
:1003E00039F4DF91CF911F910F91FF90EF90089515
:1003F00089910E948001F80181938F01EFCF0F93C3
:100400001F93CF93DF93EC018C01060F111DC017D2
:10041000D10729F4DF91CF911F910F910895899110
:100420000E948001F4CFCF93DF93C82FD62F80E0B6
:100430000E9451038C2F8F7180620E9480018D2F4A
:100440000E94800181E0DF91CF910C945103CF9302
:10045000DF93EC0180E00E94510381E60E9480015D
:100460004091D701BE01CE010E94E30181E00E94CC
:10047000510360E487E0DF91CF910C94130280E098
:100480000E94510382EE0E94800181E00E9451038C
:1004900060E787E00E94130280E00E944B036BE05C
:1004A00080E00E94130281E00C944B036093D7011B
:1004B000682F85E00E94130260E081E10E94130230
:1004C0006091D70182E10E94130260E083E10E9403
:1004D000130260E084E10E94130260E085E10E9463
:1004E000130260E086E10E94130266E086E00E944B
:1004F000130268E080E00E94130263E081E00E9442
:10050000130263E082E00E9413026FE484E00E9421
:10051000130260E08CE10E9413020C943F0260E73A
:1005200087E00E9413026AE080E00C941302CF93EC
:10053000DF93EC0180E00E944B030E948F0280E079
:100540000E94510381EE0E94800181E00E945103CC
:1005500080E00E94510380EA0E9480016091D701EF
:10056000CE010E94FF0181E00E94510381E0DF91F2
:10057000CF910C944B0380E00E944B0368E080E035
:100580000C9413020F931F93CF93DF93082FEB016B
:10059000142F80E00E945103802F8F710E948001F0
:1005A000412FBE01CE010E94E30181E0DF91CF9196
:1005B0001F910F910C945103CF93DF930F92CDB7FE
:1005C000DEB741E0BE016F5F7F4F87E10E94C2024C
:1005D000898181700F90DF91CF9108950E94C101B0
:1005E00091E086FD05C00E94DC0291E0811190E05F
:1005F000892F0895CF93DF930F92CDB7DEB741E0F7
:10060000BE016F5F7F4F88E00E94C20289818F70B8
:100610000F90DF91CF9108950F931F93CF93DF93A6
:10062000C82F8B01D42F80E00E9451038C2F8F7133
:1006300080620E9480016D2FC8010E94FF0181E04D
:10064000DF91CF911F910F910C945103CF93DF93C2
:10065000EC0180E00E944B0345E0BE018BE00E946C
:100660000C0381E0DF91CF910C944B03CF93DF9388
:10067000EC0145E0BC018AE00E940C0345E0BE01AC
:1006800080E1DF91CF910C940C03229A219A259A54
:10069000239A24980895882311F02A9A08952A9875
:1006A0000895882311F0299A089529980895882398
:1006B00011F02D9A08952D980895882311F02B9A02
:1006C00008952B98089583B1807108950E943F0189
:1006D0000E94750160E282E00E94560285E291E08C
:1006E0000E94360380E291E00E9426037894FF2462
:1006F000F394C2E5D1E006E411E080917501811127
:1007000004C00E943F02F09275010E94EE0288230D
:1007100049F187E791E00E942702809174018823C4
:1007200041F187E791E00E945300882349F080E07F
:1007300091E09F938F931F930F930E94C6030EC067
:1007400087E791E09F938F93DF93CF930E94C60337
:1007500080E091E00E949702109275010F900F9037
:100760000F900F908FE39CE90197F1F700C0000014
:10077000C4CF87E791E09F938F93DF93CF93DDCF33
:10078000EE0FFF1F0590F491E02D0994B0E0A0E07A
:10079000ECECF3E00C948706AE014B5F5F4FFA017F
:1007A00061917191AF018091DA019091DB010E941A
:1007B0000804E2E00C94A3060F931F93CF93DF93FA
:1007C000E091DA01F091DB01238110E000E021FDEE
:1007D0000EC00FEF1FEFC801DF91CF911F910F9156
:1007E00008950995892B11F00FEF1FEFCE01EC0151
:1007F00089916091DA017091DB01DB011896ED912E
:10080000FC918111EECF8AE00995892B21F3E1CF8C
:10081000ABE0B0E0EEE0F4E00C9477067C013B0145
:100820008A01FC0117821682838181FFB9C19AE097
:10083000292ECE0101965C01F7019381F30193FD0E
:10084000859193FF81913F01882309F446C1853248
:1008500039F493FD859193FF81913F01853229F40D
:10086000B70190E00E94E905E7CF912C412C512C73
:10087000FFE1F51538F08B3209F188F4803201F18F
:10088000833221F157FC3AC020ED280F2A3040F581
:1008900056FE1FC0929C200D1124922E06C08D3250
:1008A00091F0803379F7689450F8F30193FD8591C6
:1008B00093FF81913F018111DBCF20C0689451F8F3
:1008C000689452F8F2CF689453F8EFCF689454F8D4
:1008D000ECCF429C200D1124422E689455F8E5CFB0
:1008E0008E3229F456FCF9C0689456F8DECF8C3667
:1008F00019F4689457F8D9CF8836B9F2982F9F7DAC
:1009000095549330C0F08336A1F18337C1F183351C
:1009100009F05BC0F801C190D1908F01692D70E0A2
:1009200056FC02C06FEF7FEFC6010E94D3054C0159
:10093000689457F80AC00C5F1F4F2FE3298388245F
:100940008394912C6501E89457F853FC04C0481433
:10095000190409F018F5342C8114910431F5332071
:1009600009F46ACFB70180E290E00E94E9053A9469
:10097000F6CFF801808189830E5F1F4FE0CFF80129
:10098000C190D1908F01692D70E056FC02C06FEFCD
:100990007FEFC6010E94DE054C01D5CFB70180E292
:1009A00090E00E94E9054A94D2CFF60157FC859168
:1009B00057FE81916F01B70190E00E94E905311067
:1009C0003A94F1E08F1A9108C7CF843619F089362E
:1009D00009F074C0F80157FE6AC06191719181916C
:1009E00091918F01252D2F76D22E97FF09C09095DA
:1009F0008095709561957F4F8F4F9F4F6894D7F882
:100A00002AE030E0A5010E941906C82ECA188C2CD5
:100A10005D2CD6FE0CC0E89450F8C91440F4D4FE06
:100A200005C0D2FC03C0FD2DFE7E5F2E892C54FE36
:100A30008FC0FE01EC0DF11D8081803309F081C073
:100A4000252D297E522E852D8870382E53FC8FC07F
:100A500050FE89C09C2C841418F44C0C942C9818CB
:100A600054FE8BC0B70180E390E00E94E90552FE7E
:100A700009C088E790E051FE02C088E590E0B70128
:100A80000E94E905C91408F484C0CA94D12C9FEFD0
:100A9000C91AD90ACA0CDB1CF60182916F01B70191
:100AA00090E00E94E905AC14BD04B1F758CF619104
:100AB0007191072E000C880B990B93CFD52CE894DD
:100AC000D4F82AE030E0853739F1952D997FD92E79
:100AD0008F3601F148F48835A9F0F70186819781B6
:100AE0002B96E2E10C949306803749F08837A9F7FA
:100AF000D4FE02C06894D2F820E130E00DC06894C2
:100B0000D4F8F6CF54FE03C0E92FE660DE2E20E1D4
:100B100032E002C028E030E0F801D7FE0DC061915C
:100B20007191819191918F01A5010E941906C82EA2
:100B3000CA18E894D7F86BCF6191719190E080E08A
:100B4000F2CF52FC02C083947ECF839483947BCFF8
:100B5000852D867809F477CFF6CFB70180E290E053
:100B60000E94E90583948414C0F3312C79CF342C8E
:100B70003818841408F474CFF8CF852D867809F4DA
:100B800081CF8BE251FE80E257FC8DE2B70190E00D
:100B900077CFB70180E390E00E94E9059A9472CF85
:100BA0008FEF9FEF9DCFFC010590615070400110C9
:100BB000D8F7809590958E0F9F1F0895FC01615086
:100BC000704001900110D8F7809590958E0F9F1F6F
:100BD00008950F931F93CF93DF93182F092FEB01E5
:100BE0008B8181FD09C01FEF0FEF812F902FDF91C7
:100BF000CF911F910F91089582FF14C02E813F81E4
:100C00008C819D81281739073CF4E881F981CF0157
:100C100001969983888310838E819F8101969F839B
:100C20008E83E3CFE885F985812F0995892BA1F380
:100C3000DACFFA01AA27283051F1203181F1E89466
:100C40006F936E7F6E5F7F4F8F4F9F4FAF4FB1E0BF
:100C50003ED0B4E03CD0670F781F891F9A1FA11DBA
:100C6000680F791F8A1F911DA11D6A0F711D811DBB
:100C7000911DA11D20D009F468943F912AE0269F80
:100C800011243019305D3193DEF6CF010895462FDF
:100C90004770405D4193B3E00FD0C9F7F6CF462FC0
:100CA0004F70405D4A3318F0495D31FD4052419329
:100CB00002D0A9F7EACFB4E0A695979587957795E6
:100CC0006795BA95C9F700976105710508959B016D
:100CD000AC010A2E06945795479537952795BA95F6
:100CE000C9F7620F731F841F951FA01D08952F92CF
:100CF0003F924F925F926F927F928F929F92AF92AC
:100D0000BF92CF92DF92EF92FF920F931F93CF93F8
:100D1000DF93CDB7DEB7CA1BDB0B0FB6F894DEBF8F
:100D20000FBECDBF09942A88398848885F846E84B5
:100D30007D848C849B84AA84B984C884DF80EE80FF
:100D4000FD800C811B81AA81B981CE0FD11D0FB608
:100D5000F894DEBF0FBECDBFED010895F894FFCF2C
:100D6000E100010106010B01100113011B01ED005F
:020D7000ED0094
:100D72003C3C3C737563636573733E3E3E0000000A
:100D82000000000000000000000000000000000061
:100D920021212121213F3F3F3F3F00000001000070
:100DA200000000003101000000000002000000000D
:100DB200380100000000535543434553533A25730D
:100DC2000A0052454345495645443A25730A0053A1
:100DD200544154453A00494E56414C4944205354DB
:040DE2004154450033
:00000001FF
