:100000000C9434000C9451000C9451000C94510049
:100010000C9451000C9451000C9451000C9451001C
:100020000C9451000C9451000C9451000C9451000C
:100030000C9451000C9451000C9451000C945100FC
:100040000C9451000C9451000C94B7000C94510086
:100050000C9451000C9451000C9451000C945100DC
:100060000C9451000C94510011241FBECFEFD8E026
:10007000DEBFCDBF11E0A0E0B1E0E0E2FDE002C0F4
:1000800005900D92A637B107D9F721E0A6E7B1E0B8
:1000900001C01D92AF3DB207E1F70E9457030C94D7
:1000A0008E060C940000BC0190E0492F50E0FA014C
:1000B000E050FF4F2081211102C081E00895460FDA
:1000C000571FFA018081022E000C330B8217130692
:1000D00011F49F5FEACF80E008950F931F93CF93B1
:1000E000DF938C018FE591E09F938F930E94A6038D
:1000F000E8010B5F1F4F0F900F9089910E9429011B
:10010000C017D107D1F78AE00E942901DF91CF9172
:100110001F910F910895FC013196A5E2B1E006967A
:1001200021912D93E817F907D9F785E291E00E9414
:10013000270385E291E00C946D00FC013196A0E26A
:10014000B1E0069621912D93E817F907D9F780E2DF
:1001500091E00E94170380E291E00C946D00FC0195
:100160004F9621812193E817F907D9F708951F9237
:100170000F920FB60F9211242F933F934F935F93DB
:100180006F937F938F939F93AF93BF93EF93FF935F
:100190000E942201E0917701AE2FB0E0A854BE4F3B
:1001A0008C93EF5FE0937701EF3111F08D3049F5DB
:1001B000F0E0E854FE4F1082109277018091B80170
:1001C0008233B1F148F4803371F0813361F188E614
:1001D00091E00E94BC0313C0833379F18433B9F7F3
:1001E00080E291E02CC088EB91E00E94AF0088EBA8
:1001F00091E00E9488020E94C0018111FCCF109200
:1002000076017894FF91EF91BF91AF919F918F917B
:100210007F916F915F914F913F912F910F900FBE02
:100220000F901F90189588EB91E00E948B00E7CF0C
:1002300088EB91E00E949D00E2CF85E291E00E9470
:100240006D00DDCF8091C00087FFFCCF8091C6009C
:1002500008959091C00095FFFCCF8093C60008954B
:10026000E9EDF1E088E391E0938382838AE291E013
:10027000918380831092C50087E68093C400E0ECF0
:10028000F0E080818D7F808386E08093C200E1EC86
:10029000F0E088E1808380818068808308958AE02F
:1002A0000C9429010F931F93CF938C01C0E0F801A8
:1002B000EC0FF11D8081811105C0CF911F910F912D
:1002C0000C944F010E942901CF5FF1CF0E943603A9
:1002D00080E00E943C0381E00C9442038091D801AD
:1002E0000895EF92FF920F931F93CF93E82E80E033
:1002F0000E94480307E010E0C0E0F12CC701002E87
:1003000002C0959587950A94E2F780FF18C081E0B6
:100310000E944E0381E00E944803CC0F0E945403C8
:100320008111C16080E00E9448030150110930F73B
:100330008C2FCF911F910F91FF90EF90089580E047
:10034000E7CFCF9380E00E94420380E60E947101D4
:1003500080E00E947101C82F81E00E9442038C2F2F
:10036000CF910895CF9380E00E9442038FEF0E94C7
:100370007101C82F81E00E9442038C2FCF91089514
:100380000E94B201982F907381E009F080E00895F7
:100390000E94B20185FD04C084FD04C08FEF089562
:1003A00080E0089581E00895EF92FF920F931F93EC
:1003B000CF93DF93EC018B017C01E40EF11CCE1591
:1003C000DF0539F4DF91CF911F910F91FF90EF90EE
:1003D000089589910E947101F80181938F01EFCFF7
:1003E0000F931F93CF93DF93EC018C01060F111D28
:1003F000C017D10729F4DF91CF911F910F91089574
:1004000089910E947101F4CFCF93DF93C82FD62F2B
:1004100080E00E9442038C2F8F7180620E947101E4
:100420008D2F0E94710181E0DF91CF910C944203E6
:10043000CF93DF93EC0180E00E94420381E60E94AB
:1004400071014091D801BE01CE010E94D40181E02A
:100450000E94420360E487E0DF91CF910C94040294
:1004600080E00E94420382EE0E94710181E00E94BE
:10047000420360E787E00E94040280E00E943C03A0
:100480006BE080E00E94040281E00C943C036093E6
:10049000D801682F85E00E94040260E081E10E949B
:1004A00004026091D80182E10E94040260E083E1CD
:1004B0000E94040260E084E10E94040260E085E1A1
:1004C0000E94040260E086E10E94040266E086E089
:1004D0000E94040268E080E00E94040263E081E080
:1004E0000E94040263E082E00E9404026FE484E060
:1004F0000E94040260E08CE10E9404020C9430022D
:1005000060E787E00E9404026AE080E00C94040245
:10051000CF93DF93EC0180E00E943C030E948002B5
:1005200080E00E94420381EE0E94710181E00E94FE
:10053000420380E00E94420380EA0E9471016091C0
:10054000D801CE010E94F00181E00E94420381E0C7
:10055000DF91CF910C943C0380E00E943C0368E063
:1005600080E00C9404020F931F93CF93DF93082F26
:10057000EB01142F80E00E944203802F8F710E94B4
:100580007101412FBE01CE010E94D40181E0DF91B3
:10059000CF911F910F910C944203CF93DF930F9251
:1005A000CDB7DEB741E0BE016F5F7F4F87E10E94AC
:1005B000B302898181700F90DF91CF9108950E94DD
:1005C000B20191E086FD05C00E94CD0291E081114B
:1005D00090E0892F0895CF93DF930F92CDB7DEB7C8
:1005E00041E0BE016F5F7F4F88E00E94B3028981C6
:1005F0008F700F90DF91CF9108950F931F93CF933A
:10060000DF93C82F8B01D42F80E00E9442038C2FF0
:100610008F7180620E9471016D2FC8010E94F001EC
:1006200081E0DF91CF911F910F910C944203CF9302
:10063000DF93EC0180E00E943C0345E0BE018BE0CB
:100640000E94FD0281E0DF91CF910C943C03CF9397
:10065000DF93EC0145E0BC018AE00E94FD0245E029
:10066000BE0180E1DF91CF910C94FD02229A219A84
:10067000259A239A24980895882311F02A9A089598
:100680002A980895882311F0299A089529980895A1
:10069000882311F02D9A08952D980895882311F03C
:1006A0002B9A08952B98089583B1807108950E9424
:1006B00030010E94660160E282E00E94470285E20A
:1006C00091E00E94270380E291E00E941703789452
:1006D000FF24F394C2E5D1E006E411E080917601B5
:1006E000811104C00E943002F09276010E94DF0264
:1006F0008823C1F088E791E00E94180288E791E022
:100700000E9453008823A9F080E091E09F938F938B
:100710001F930F930E94A6030F900F900F900F90BE
:10072000109276018FE39CE90197F1F700C0000079
:10073000D5CF88E791E09F938F93DF93CF930E946B
:10074000A60380E091E00E948802E6CFB0E0A0E03E
:10075000ECEAF3E00C946706AE014B5F5F4FFA01E1
:1007600061917191AF018091DB019091DC010E9458
:10077000E803E2E00C9483060F931F93CF93DF937B
:10078000E091DB01F091DC01238110E000E021FD2C
:100790000EC00FEF1FEFC801DF91CF911F910F9196
:1007A00008950995892B11F00FEF1FEFCE01EC0191
:1007B00089916091DB017091DC01DB011896ED916C
:1007C000FC918111EECF8AE00995892B21F3E1CFCD
:1007D000ABE0B0E0EEEEF3E00C9457067C013B0199
:1007E0008A01FC0117821682838181FFB9C19AE0D8
:1007F000292ECE0101965C01F7019381F30193FD4F
:10080000859193FF81913F01882309F446C1853288
:1008100039F493FD859193FF81913F01853229F44D
:10082000B70190E00E94C905E7CF912C412C512CD3
:10083000FFE1F51538F08B3209F188F4803201F1CF
:10084000833221F157FC3AC020ED280F2A3040F5C1
:1008500056FE1FC0929C200D1124922E06C08D3290
:1008600091F0803379F7689450F8F30193FD859106
:1008700093FF81913F018111DBCF20C0689451F833
:10088000689452F8F2CF689453F8EFCF689454F814
:10089000ECCF429C200D1124422E689455F8E5CFF0
:1008A0008E3229F456FCF9C0689456F8DECF8C36A7
:1008B00019F4689457F8D9CF8836B9F2982F9F7DEC
:1008C00095549330C0F08336A1F18337C1F183355D
:1008D00009F05BC0F801C190D1908F01692D70E0E3
:1008E00056FC02C06FEF7FEFC6010E94B3054C01BA
:1008F000689457F80AC00C5F1F4F2FE329838824A0
:100900008394912C6501E89457F853FC04C0481473
:10091000190409F018F5342C8114910431F53320B1
:1009200009F46ACFB70180E290E00E94C9053A94C9
:10093000F6CFF801808189830E5F1F4FE0CFF80169
:10094000C190D1908F01692D70E056FC02C06FEF0D
:100950007FEFC6010E94BE054C01D5CFB70180E2F2
:1009600090E00E94C9054A94D2CFF60157FC8591C8
:1009700057FE81916F01B70190E00E94C9053110C7
:100980003A94F1E08F1A9108C7CF843619F089366E
:1009900009F074C0F80157FE6AC0619171918191AC
:1009A00091918F01252D2F76D22E97FF09C090951A
:1009B0008095709561957F4F8F4F9F4F6894D7F8C2
:1009C0002AE030E0A5010E94F905C82ECA188C2C37
:1009D0005D2CD6FE0CC0E89450F8C91440F4D4FE47
:1009E00005C0D2FC03C0FD2DFE7E5F2E892C54FE77
:1009F0008FC0FE01EC0DF11D8081803309F081C0B4
:100A0000252D297E522E852D8870382E53FC8FC0BF
:100A100050FE89C09C2C841418F44C0C942C98180B
:100A200054FE8BC0B70180E390E00E94C90552FEDE
:100A300009C088E790E051FE02C088E590E0B70168
:100A40000E94C905C91408F484C0CA94D12C9FEF30
:100A5000C91AD90ACA0CDB1CF60182916F01B701D1
:100A600090E00E94C905AC14BD04B1F758CF619164
:100A70007191072E000C880B990B93CFD52CE8941D
:100A8000D4F82AE030E0853739F1952D997FD92EB9
:100A90008F3601F148F48835A9F0F70186819781F6
:100AA0002B96E2E10C947306803749F08837A9F75A
:100AB000D4FE02C06894D2F820E130E00DC0689402
:100AC000D4F8F6CF54FE03C0E92FE660DE2E20E115
:100AD00032E002C028E030E0F801D7FE0DC061919D
:100AE0007191819191918F01A5010E94F905C82E04
:100AF000CA18E894D7F86BCF6191719190E080E0CB
:100B0000F2CF52FC02C083947ECF839483947BCF38
:100B1000852D867809F477CFF6CFB70180E290E093
:100B20000E94C90583948414C0F3312C79CF342CEE
:100B30003818841408F474CFF8CF852D867809F41A
:100B400081CF8BE251FE80E257FC8DE2B70190E04D
:100B500077CFB70180E390E00E94C9059A9472CFE5
:100B60008FEF9FEF9DCFFC01059061507040011009
:100B7000D8F7809590958E0F9F1F0895FC016150C6
:100B8000704001900110D8F7809590958E0F9F1FAF
:100B900008950F931F93CF93DF93182F092FEB0125
:100BA0008B8181FD09C01FEF0FEF812F902FDF9107
:100BB000CF911F910F91089582FF14C02E813F8124
:100BC0008C819D81281739073CF4E881F981CF0198
:100BD00001969983888310838E819F8101969F83DC
:100BE0008E83E3CFE885F985812F0995892BA1F3C1
:100BF000DACFFA01AA27283051F1203181F1E894A7
:100C00006F936E7F6E5F7F4F8F4F9F4FAF4FB1E0FF
:100C10003ED0B4E03CD0670F781F891F9A1FA11DFA
:100C2000680F791F8A1F911DA11D6A0F711D811DFB
:100C3000911DA11D20D009F468943F912AE0269FC0
:100C400011243019305D3193DEF6CF010895462F1F
:100C50004770405D4193B3E00FD0C9F7F6CF462F00
:100C60004F70405D4A3318F0495D31FD4052419369
:100C700002D0A9F7EACFB4E0A69597958795779526
:100C80006795BA95C9F700976105710508959B01AD
:100C9000AC010A2E06945795479537952795BA9536
:100CA000C9F7620F731F841F951FA01D08952F920F
:100CB0003F924F925F926F927F928F929F92AF92EC
:100CC000BF92CF92DF92EF92FF920F931F93CF9339
:100CD000DF93CDB7DEB7CA1BDB0B0FB6F894DEBFD0
:100CE0000FBECDBF09942A88398848885F846E84F6
:100CF0007D848C849B84AA84B984C884DF80EE8040
:100D0000FD800C811B81AA81B981CE0FD11D0FB648
:100D1000F894DEBF0FBECDBFED010895F894FFCF6C
:100D20003C3C3C737563636573733E3E3E0000005C
:100D300000000000000000000000000000000000B3
:100D4000D7D7D7D7D7E7E7E7E7E7000000010000EC
:100D5000000000002201000000000002000000006E
:100D6000290100000000535543434553533A25736E
:100D70000A0052454345495645443A25730A004105
:100D80004444524553533A00494E56414C4944203D
:060D9000535441544500DC
:00000001FF
